:020000040000fa
:10000000f07f0020112000000f250000fb250000dc
:1000100000000000000000000000000000000000e0
:100020000000000000000000000000004b3600004f
:1000300000000000000000004b3600004b360000be
:100040004b3600004b3600004b3600004b360000ac
:100050004b3600004b3600004b3600004b3600009c
:100060004b360000c11900004b3600004b36000033
:100070004b3600004b3600004b3600004921000093
:100080004b3600004b360000212100004b360000ab
:100090004b3600004b3600004b3600004b3600005c
:1000a0004b3600004b3600004b3600004b3600004c
:020000040000fa
:1000b000f8b5c046f8bc08bc9e467047a91f0000b2
:1000c000f8b5c046f8bc08bc9e467047811f0000ca
:020000040000fa
:1000d000ffffffffffffffffffffffffffffffff30
:1000e000ffffffffffffffffffffffffffffffff20
:1000f000dfffffffffffdfffffffffffbeffffff91
:10010000ffffdfffffffffffffffffffffffffff1f
:10011000ffffffffffffffffffffffffdfffffff0f
:10012000ffffffffffffffffffffffffffffffffdf
:10013000ffffffffffffffffffffffffffffbfff0f
:100140007fff9fff7fff7fff9fff9fff7fff9fff3f
:100150007fffbfffffffffffffffffffffffffff6f
:10016000ffffffffffffffffffffffffffffffff9f
:10017000ffffffffffffffffffffffffffffffff8f
:10018000ffffffffffffffffffffffffffffbcfec3
:1001900015fc16fcf6fb16fc16fc16fc16fc17fcf0
:1001a000b5fbbafdffffdfffffffdfffffffffff34
:1001b000fffffffffffffffffffffffffffffff757
:1001c000ffffffffffffffffffffffffffffffff3f
:1001d000ffffffffbfffbfffbfff9fff9fff79fd37
:1001e0008bd08bd86ce08bd8acd88cd88cd8acd8d2
:1001f000ace073ebbfff9fff9fffdfffffffffff41
:10020000fffffffffffffffffffffffffffffff706
:10021000ffffffffffffffffffffffffffffffffee
:10022000ffffffff9fffdffebffebffefffeb8fc2c
:100230004ce84cf04df04df04cf04cf04cf04df0e3
:100240002bf014fb1fff9efebffebfffdfffffff73
:10025000ffffffffffffffffffffffffffffffffae
:10026000ffffffffffffffffffffffffffffffff9e
:10027000bfffdfffb9f56cc1aed18dc9aed1ecd8ef
:100280000cf80cf80df80cf80cf80cf80cf80df84c
:100290000cf8ade8cec18ec92cc9b9edbfffdfffa8
:1002a000ffffffffffffffffffffffffffffffff5e
:1002b000ffffffffffffffffffffffffffffffff4e
:1002c0009fff9fff39fd4be06ce86ce86ce04cf061
:1002d0000cf80cf80cf80cf80cf80cf80cf80df8fd
:1002e0000cf84cf06ce06ce84ce839fd7fff7fffc8
:1002f000ffffffffffffffffffffffffffffffff0e
:10030000fffffffffffffffffffffffffffffffffd
:1003100018f576fcf3fa2cf80df80df80df80df839
:100320002cf80cf80cf80cf82cf80cf80cf80df86c
:100330000cf80cf80cf82cf80bf833f397f4f8fce5
:10034000ffffffffffffffffffffffffffffffffbd
:10035000fffffffffffffff7ffffffffffffdfffd5
:10036000efe16be06ce80cf80cf82cf00cf82df8d1
:100370002cf80df80cf00cf82cf00cf80cf80df82b
:100380000cf80cf80cf80cf82cf06ce08bd010e2a8
:10039000ffffdfffffffffffffffffffffffffff8d
:1003a000ffffdfffffffffffdfffbffffffe1fffbe
:1003b0006ff90cf80cf80cf82cf80dd90dd90dd9f3
:1003c0000dd9edd86df00df80cf02cf80cf80cf8f8
:1003d0002df80cf82cf00dd94dd94de12dd971ea3d
:1003e0003fff3fffdfffffffffffffffffffffffbd
:1003f000dfffffffffffdeffdfffb9f52dd94dd98e
:100400006df00cf82cf82cf82bf8dbfd1fffdefe4e
:10041000fefefffe4ff90cf80cf84df80cf80cf846
:100420002cf80bf84ff91fff1ffffffe1fff5cfeac
:100430006de10cd1b9f5ffffbfffffffffffffff2d
:10044000ffffffffffffffffdfff79fd0bf02cf049
:100450000cf00cf84cf06ad08bd8bcfeffffdfff2d
:10046000dfffdfff8ee18ce04ce82cf80cf80cf895
:100470006be88be0cfd9dfffdffffffffffffcfe64
:10048000cbd88ad099f5ffffdffffffffffffeff0c
:10049000ffffffffffffffffdfff79f50bf84df8d0
:1004a0002df80cf88ff156f435fc7effbfffffffef
:1004b000ffffdfff97f437f492fa0bf84df80cf8d2
:1004c000d2f256fcf7f4ffffffffdfffffff5efff6
:1004d00076f435f4bcfeffffffffffffffffffffd9
:1004e000ffffffffffffffffffff99fd0cf80cf878
:1004f0002df80bf8f4fa9fff3ffffffffffffff718
:10050000fff7ffff9fff7fffdafc0cf82cf80bf8da
:10051000f9fc7fff7fffffffffffffffffefdfff24
:100520009fff7fffdfffffffffffffffdffffffffb
:10053000ffffffffffffdeffffff59fd0cf82df867
:100540000cf80cf8d2fadfff9ffffffffffffff769
:10055000bfd7bfdf7fdfffe7bbec0df82cf80bf850
:10056000f8fcdfffbeffffffffffffefffd79fe7b6
:100570007fdfbfe7dff7ffffffffffffffffffffab
:10058000ffffffffffffbfffdfff59fd0cf82df856
:100590000df80cf8f3faffffffffdfffffff1aaec5
:1005a000741af52af52a141bd1790df80cf80bf8fa
:1005b00039fdffffffffdeffdffff984931a1733da
:1005c000162b93223dbedfffbfffffffffffffffa4
:1005d000ffffffffdfff9fffbfff3afd0cf80cf8a6
:1005e0002df80bf814fbffffdef7fffffffffda563
:1005f000370a980ab80ad902b4610cf80cf80af85c
:1006000018fdffffffffdfffffffba6c3802b812d3
:10061000b80a3702fec59fff9fffffffffffffffe6
:10062000ffffffffffff18f596f413f30cf80cf82b
:100630000df80bf8f4fafffffffffffffffffd9d32
:100640005a02fb0a7902db02b5590bf82df80af8b9
:1006500039fdffffffffffffffffbc643a02da0a2c
:10066000ba029b0ad8a375f419f5ffffffffffff3d
:10067000ffffffffdfffefe1abd86ce80cf80cf8f1
:100680002cf82bf8f3faffffdfffdff7ffff1d9ecb
:100690005902b9027a12fb02b5610cf82df80af87a
:1006a00018fdfffffffffef7dfffdb6c5902ba0208
:1006b0009a0aba027189aad8efe1fef7dfffffffbd
:1006c000ffffffffffff90f90bf80cf80cf80cf898
:1006d0000cf82bf8b3fa7fffbffedfffffff1ca66d
:1006e00096121723f641f63932810cf80df80bf803
:1006f00099fc5fff3ffffffffffffa7c961af82a85
:10070000f641173acfb00af88ff9ffffffffffff5e
:10071000ffffdfffffffb0f90bf82df80cf80cf826
:100720000cf80cf86df00cd10dd9fdfefeffdfefdb
:100730009fdf9fdff3c170b8afd80bf80df80cf84e
:10074000ede8edd870dadeffffffbfe7dfe7bfdee1
:10075000f0b8d1b04ee80af870f9ffffffffffffd5
:10076000ffffdfffffff90f90bf80df80cf80cf816
:100770000cf80cf80cf82cf82cf83cfe9fff7fffcf
:100780005fff9fff4ff90df80cf80bf80df80df80f
:100790002cf80cf870f97fff7fff9fff9fff7dfe15
:1007a0002df02ef00cf80af890f9ffffdfffffffa5
:1007b000ffffffffffff8ff90bf80cf80cf80df8a7
:1007c0000cf80df80cf80cf80df854fbf5fbd5fb04
:1007d000d6fbd5fbaef80df80cf82cf80df80df89b
:1007e0000df80df8aef816fcd6fb16fc36fc74fbc3
:1007f0002df00ef80cf80bf8b0f1ffffffffffff34
:10080000ffffffffffffb0f90bf80df80cf80df834
:100810000cf80df80cf80cf80df88cd88bd88be090
:100820008cd88bd82cf80cf80cf80cf80cf82cf8a9
:100830000df80df80cf8abd08cd88bd08bd86ce0c1
:100840002cf80cf80df80bf8b0f1dffffffffffffd
:10085000ffffffffffff90f90bf80df80cf80df804
:100860000cf80df80cf80cf80df84df84cf84cf0ad
:100870004cf04cf80cf80cf82cf00df80cf80cf8c7
:100880000cf80cf80cf86df02cf06cf06cf00cf02f
:100890000cf80cf80df80bf8b0f9ffffffffffffa5
:1008a000ffffffffffff90f90bf80df80cf80df8b4
:1008b0000cf80cf82cf82cf80df80cf80df80cf8d6
:1008c0000cf80cf80cf80cf82cf00df80cf80cf8ef
:1008d0002df80cf80cf80cf80cf80cf80cf80df8d6
:1008e0000cf80cf80df80cf8b0f9ffffffffffff54
:1008f000ffffffffffff90f92bf80df80cf80df844
:100900000cf80df80cf80cf00cf80df80df80df8cb
:100910000cf80df80df80cf80bf80df80cf80cf8b5
:100920000cf80bf82cf80df80cf80cf80cf80cf887
:100930000cf80cf80df80cf8b0f9ffffffffffff03
:10094000ffffffffffff90f92bf80df80cf80df8f3
:100950002df80cf80cf82cf80cf80cf80df80df834
:100960000df80df80cf80cf80bf80df80cf80cf865
:100970000df82cf80cf00df80cf80cf80cf82df81c
:100980000cf80cf80df80bf890f9ffffffffffffd4
:10099000ffffffffffff90f90cf80df80cf80df8c2
:1009a0000cf80cf80cf80cf80cf80cf80cf80df826
:1009b0000cf80df80cf80df80cf80df80cf80cf814
:1009c0000df80cf80cf80df80df80cf80cf80cf804
:1009d0000cf80df80df80bf890f9ffffffffffff83
:1009e000ffffffffffff90f90cf80df80cf80cf873
:1009f0004cf06ce82df00cf80cf80cf80cf82df815
:100a00000bf80df82cf06de82bf04ce84ce82cf8c6
:100a10000df80cf80df80df80df82cf06df04cf009
:100a20000cf80df80df80bf890f9ffffffffffff32
:100a3000ffffffffffff90f90cf80df80cf80df821
:100a40008bd0cbc0ade00df80df80cf80cf80df81c
:100a50000cf80df8abd0ccc8ecd0ccc8acc82cf09e
:100a60000cf82df80cf80cf80cf8acd8cbc8cbc8a7
:100a70000cf80ef80cf80bf890f9ffffffffffffe2
:100a8000ffffffffffff90f90cf80df84cf84df059
:100a9000f9fcfcfdd7fb0cf82df82cf80cf80df840
:100aa0000cf82df8d9fcbcfd7afd7bfdbdfd0ff9de
:100ab0000cf80cf80cf84cf02cf0d7fbdcfdfafc31
:100ac0004cf82df82cf80bf890f9ffffffffffff13
:100ad000ffffffffffff8ff90bf82cf06ce88ce0b5
:100ae0009dfe7fff5afd2be84ce82cf00cf80cf82b
:100af0000cf84df8befe9fff9fff9fff9fff70f910
:100b00000cf82cf82cf86ce82be039fd9fff9dfecb
:100b10008ce86ce02be80bf88ff9ffffffffffff7d
:100b2000ffffffffffffaff10cf82ef9b1f2b2eac1
:100b30005efffffffaf550f291f2adf00cf82df8e0
:100b40000cf84cf8fdfeffffbeffdfffffff8ff943
:100b50000cf80cf88df092f271eafafdffff3effff
:100b6000b2f2b1f24ff90bf8aff9ffffffffdfff71
:100b7000ffffffffffffaff10bf854fb5fff5fffcd
:100b8000dfffffffdfff3fff7fffaff90cf82cf81f
:100b90000cf84cf01dffffffffffdfffffff8ff999
:100ba0000cf80cf88ff97fff5fffbfffffffdfff3f
:100bb0003fff5fff54fb0bf8aff1ffffffffffffad
:100bc000dfffffffffff2fda8bd8b3e3ffffbfff8d
:100bd000ffffffffffffdfffffff2fd26bd8acd877
:100be0008bd00cd91dffffffdffffffffff70fdaf0
:100bf0008bd88bd0efd9dfffffffffffffffffff99
:100c0000bfffffffb4e36bd850daffffffffdfff4a
:100c1000ffffffffffff7cfebafdddfeffffffffd2
:100c2000ffffffffffffffffffff5cfedbfddbfdc4
:100c3000fbfdfbfdbfffffffffffffffffff5cfeb4
:100c4000bbfdfbfd3cfeffffffffffffffffffffc4
:100c5000ffffffffbdfedafd7cfeffffffffffff92
:100c6000ffffffffffffdfffdfffdffffffffffff4
:100c7000fffffffffffffff7ffffdfff7fffdfff4c
:100c8000dfffbfffffffffffffffffffffffdffff4
:100c9000dfffbfffbffffffffff7ffffffffffff0c
:100ca000ffffffffdfffdfffdfffffffffffffffb4
:100cb000ffffffffffffffffffffdffffffffff76c
:100cc000ffffdfffffffffffffffdfffdfffffff94
:100cd000dfffbfffffffffffffffffffffffdfffa4
:100ce000ffffdfffdfffffffffffffffdfffffff74
:100cf000ffffffffffffffffffffffffffffffff04
:100d0000dfffffffffffffffffffdfffffffffff33
:100d1000ffffffffdfffffffffffdfffdfffffff43
:100d2000ffffdffffffffffffff7ffffffffdfff1b
:100d3000ffffffffdfffffffffffffffffffffffe3
:100d4000ffffffffffffffffffffdfffffffffffd3
:020000040000fa
:100d50007c0000201c00000000000000b00000200b
:100d60000100000000000000500000202c000000e6
:100d700000000000980000201000000000000000ab
:100d8000b10000200300000000000000b4000020bb
:100d9000f802000001000000503000006030000048
:100da000703000008030000090300000a030000063
:100db000b0300000c0300000d0300000e030000053
:100dc000f030000000310000103100002031000040
:100dd000303100004031000050310000603100002f
:100de000703100008031000090310000a03100001f
:100df000b0310000c0310000d0310000e03100000f
:100e0000f0310000003200001032000020320000fb
:100e100030320000403200005032000060320000ea
:100e2000703200008032000090320000a0320000da
:100e3000b0320000c0320000d0320000e0320000ca
:100e4000f0320000003300001033000020330000b7
:100e500030330000403300005033000060330000a6
:100e6000703300008033000090330000a033000096
:100e7000b0330000c0330000d0330000e033000086
:100e8000f033000000340000103400002034000073
:100e90003034000040340000503400006034000062
:100ea000703400008034000090340000a034000052
:100eb000b0340000c0340000d0340000e034000042
:100ec000f03400000035000010350000203500002f
:100ed000303500004035000050350000603500001e
:100ee000703500008035000090350000a03500000e
:100ef000b0350000c0350000d0350000e0350000fe
:100f0000f0350000003600001036000020360000ea
:100f100030360000583000006830000078300000a3
:100f20008830000098300000a8300000b830000081
:100f3000c8300000d8300000e8300000f830000071
:100f4000083100001831000028310000383100005d
:100f5000483100005831000068310000783100004d
:100f60008831000098310000a8310000b83100003d
:100f7000c8310000d8310000e8310000f83100002d
:100f80000832000018320000283200003832000019
:100f90004832000058320000683200007832000009
:100fa0008832000098320000a8320000b8320000f9
:100fb000c8320000d8320000e8320000f8320000e9
:100fc00008330000183300002833000038330000d5
:100fd00048330000583300006833000078330000c5
:100fe0008833000098330000a8330000b8330000b5
:100ff000c8330000d8330000e8330000f8330000a5
:101000000834000018340000283400003834000090
:101010004834000058340000683400007834000080
:101020008834000098340000a8340000b834000070
:10103000c8340000d8340000e8340000f834000060
:10104000083500001835000028350000383500004c
:10105000483500005835000068350000783500003c
:101060008835000098350000a8350000b83500002c
:10107000c8350000d8350000e8350000f83500001c
:101080000836000018360000283600003836000008
:10109000a800002004000000000000000000002064
:1010a0005000000000000000ac0000200400000020
:1010b0000000000000000000000000006666666698
:020000040000fa
:1010c000f0b5de4657464e464546e0b589b0079036
:1010d00002919c4612ab187805901378203bdab247
:1010e000069243001b185b011b1a904643449b0069
:1010f000ad4a9a5813795279002a00d149e16046e5
:10110000000a039088464244d2b20492002429e1a6
:10111000802a00d903e1029d802d00d9ffe0a34e73
:10112000942520237351db007351a14d2a26ae6212
:10113000a946283e019b4d462d7e3542fbd00193aa
:101140009a4d98239a4680267600b446ee50531c5a
:10115000994620239b4653465e46ee50043b664626
:10116000ee50934d0026ae62aa460236019b5546cc
:101170002d7e3542fbd09c468d4d4b46ab62aa4638
:101180000226634655462d7e3542fbd00193874d9e
:1011900098239a4680267600b446ee50783b9b46cc
:1011a00053465e46ee50043b6646ee50804d0026a8
:1011b000ae62aa460236019b55462d7e3542fbd0d3
:1011c0009c467b4d4b46ab62a946022663464d4684
:1011d0002d7e3542fbd09c46744d80235b009946a2
:1011e0009826ab51043ee03bab514b46ab51704da2
:1011f000693eae62a946293e63464d462d7e354284
:10120000fbd00193694d98239a4680267600b44618
:10121000ee50029b0233994620239b4653465e467e
:10122000ee50043b6646ee50614d0026ae62aa4683
:101230000236019b55462d7e3542fbd09c465c4dc7
:101240004b46ab62aa460226634655462d7e354282
:10125000fbd00193554d98239a4680267600b446dc
:10126000ee50783b9b4653465e46ee50043b664646
:10127000ee504f4d0026ae62aa460236019b5546ff
:101280002d7e3542fbd09c46494d4b46ab62a9466c
:10129000022663464d462d7e3542fbd09c46434d8b
:1012a00080235b0099469826ab51043ee03bab514e
:1012b0004b46ab513e4d683eae62a9462a3e634660
:1012c0004d462d7e3542fbd09b46384d982399469e
:1012d00080267600b446ee50783b9a464b465646fa
:1012e000ee50043b6646ee50314d039bab62a9467f
:1012f000fe3e5b464d462d7e3542fbd0ff25054028
:101300002b4eb56202259c46337e2b42fcd06346b1
:101310000193264e982580235b00735111e0012034
:1013200001f060f90134e4b280310132d2b290456b
:101330000dd01d4d019b5d592d682d5d0d4200d1d5
:10134000e6e64908082ff0d90029eed1eae73b008c
:101350008446029f0137fab202920134e4b2049942
:101360008a4216d0002bf4d0079a9d18e9b2019159
:101370008021059d6800a84640444001401b069d11
:10138000a846404480001f00019b9846019060469b
:10139000cfe7084a11785b18137009b03cbc90463f
:1013a0009946a246ab46f0bdb4000020004400417f
:0813b00000080042b200002019
:020000040000fa
:1013b800f0b5de4657464e464546e0b585b0894607
:1013c8009b460eac23889c460fac24780294127876
:1013d800203ad3b20393620012195201121b9846a5
:1013e800424492009b4c1259167953790193441e3a
:1013f8003419e4b20a00013a98464244d2b284420f
:1014080000d2bce0802c00d9b9e08a4200d2b6e014
:10141800802a00d9b3e0904f942520217951c90042
:1014280079518e4d2a27af622900283f0b7e3b4217
:10143800fcd0894d9823984680277f00ef50431ca5
:1014480020204146685074302f501f0a834daf62e8
:1014580028000227017e3942fcd0ff2528001840c9
:101468007e4da8622f0002253b7e2b42fcd07a4895
:10147800982780256d00c55101342023c351043fae
:10148800c551764800258562070002353b7e2b4210
:10149800fcd072488462050002242b7e2342fcd0d3
:1014a8006d4880256d0098240551043c202707517c
:1014b80005516a48693c84620500293c2b7e234219
:1014c800fcd0654898258024640044514f46023773
:1014d8002021415174314450380a604988620d0016
:1014e800fe3c2b7e2342fcd0ff2139405b488162c1
:1014f80004000220237e0342fcd057499824802010
:1015080040000851023220250d51043c085153492e
:10151800002088620c000230237e0342fcd04f4931
:101528008a6208000221037e0b42fcd04a4a8020ce
:101538004000982150500439202454505050474ab4
:101548006839916210002a39037e0b42fcd0424a66
:10155800982080214900115020241450043811503b
:10156800019b002b66d063461b0a99465b461b0a03
:10157800984600230024c2466746984647e0012063
:1015880001f02cf8354b55469d621f0002253b7e25
:101598002b42fcd0ff2365462b40304dab622f0019
:1015a80002253b7e2b42fcd01be00132d2b2964290
:1015b80020d0284bc3581b681b5d0b42e2d0274b39
:1015c8004d469d621f0002253b7e2b42fcd0ff2327
:1015d8005d462b40214dab622f0002253b7e2b42fe
:1015e800fcd04908082ee0d90029ded10134e4b244
:1015f8008031dae75346ca46674699460134e4b271
:1016080045460135ebb29846019b434512d000226e
:101618008021002ef2d0029b58009c466044400175
:10162800c01a039b9c46604480004b46d146bc468a
:101638009a46bee7084a982380214900d150084bb2
:101648001a78b6181e7005b03cbc90469946a2465a
:10165800ab46f0bdb4000020004400410008004241
:04166800b2000020ac
:020000040000fa
:10166c00f0b5c64600b5938801305c08041be4b2a3
:10167c00013be318d8b2d3885d084d1bedb2eb18d3
:10168c00d9b2844200d9d1e0802800d9cee08d4275
:10169c0000d9cbe0802900d9c8e0664e94232027de
:1016ac00f750ff00f750644b2a269e621f00283e1d
:1016bc003b7e3342fcd05f4b982780267600b046a9
:1016cc00de510134e03ede51043f4646de51260a2f
:1016dc00594b9e621f0002263b7e3342fcd0ff23f7
:1016ec001c40554b9c621e000224337e2342fcd0ce
:1016fc00504b9826802464009c51013020279f5128
:10170c00043e9c514c4b00249c621e000234337ee0
:10171c002342fcd0484b98621c000220237e0342db
:10172c00fcd0444b8024640098201c5004382026a4
:10173c001e501c50404b693898621c002938237e7f
:10174c000342fcd03b4b98248020400018510235ba
:10175c0020261e51043c1851280a374b98621c0055
:10176c000220237e0342fcd0ff231d40324b9d629e
:10177c001c000220237e0342fcd02e4b9824802098
:10178c0040001851023120251d51043c18512a4ba0
:10179c00002098621c000230237e0342fcd0264bb2
:1017ac00996218000221037e0b42fcd0214b802051
:1017bc00400098215850043920245c5058501e4b3e
:1017cc006839996218002a39037e0b42fcd0194bf8
:1017dc00982080214900195020241c50043819509d
:1017ec009188d3884b43002b18dd0024124b022127
:1017fc00ff2566001068805b000a9862187e08421c
:10180c00fcd01068805b28409862187e0842fcd09f
:10181c0001349688d0887043a042eadc054a9823ac
:10182c0080214900d15004bc9046f0bd012000f04d
:0c183c00d3fec0460044004100080042fa
:020000040000fa
:1018480030b55b4a94232021d150c900d150594b5f
:101858002a229a621a000223117e1942fcd0544ba4
:101868009821802252005a5020245c5004395a5042
:10187800504b00229a621a000223117e1942fcd0b2
:101888004c4b02229a621a000223117e1942fcd0a4
:10189800474b9821802252005a5020245c5004392a
:1018a8005a50444b00229a621a000223117e1942b0
:1018b800fcd0404b81229a621a000223117e194201
:1018c800fcd03b4b8021490098229950043a2024af
:1018d8009c509950374b693a9a621a000223117e3c
:1018e8001942fcd0324b9821802252005a502024b1
:1018f8005c5004395a502f4b00229a621a00022376
:10190800117e1942fcd02b4b03229a621a00022343
:10191800117e1942fcd0264b9821802252005a5041
:1019280020245c5004395a50224b00229a621a0033
:101938000223117e1942fcd01e4b82229a621a00a1
:101948000223117e1942fcd0194b802149009822ac
:101958009950043a20249c509950164b683a9a6240
:101968001a000223117e1942fcd0114b98218022c3
:1019780052005a5020245c5004395a50050a8023da
:10198800db010c4a1e3c6b3101409562107e2042ff
:10199800fcd09162107e2042fcd0013b9bb2002b10
:1019a800f3d1034a983380214900d15030bdc04655
:0819b800004400410008004258
:020000040000fa
:1019c00070b5504b586a504b9b7d002b54d04e49fc
:1019d0004c68072214404b4b5a699d699e680b7ee8
:1019e0005b0757d5896a474bdb68934252d9002c75
:1019f00043d1444b5b6899540132434b1b7edb0758
:101a000016d5414b012119753e4b9b68ab4256d907
:101a10003c4b1b68595d3c4b99620135394b1b6946
:101a2000002b01d1b54262d0364bdb68934262d0c5
:101a3000344b5a619d61344b1b7e9b0715d5334b4c
:101a40001b78002b18d02f4bdb68934211d12d4b04
:101a500000221a772c4907240c752c490a701b6a3e
:101a6000002b09d0274b1b6a9847284b1b78002b6b
:101a700002d0254b02229a7570bd224b5b68540040
:101a8000e1520132204b1b7edb07d1d51e4b0121d9
:101a9000197508e01c4b1b7edb07c9d51a4b0121c9
:101aa0001975002cb0d0174b9b68ab4213d9154b5e
:101ab0001b686900c95a144b99620135aee7114b96
:101ac0001b69002baad0104bff2199620d490b69ad
:101ad000013b0b61a2e70b4b1b69002b9ed00a4b0d
:101ae0000b49996207490b69013b0b6196e7074b6c
:101af000012119709ce7044b012199750331197577
:101b000096e7c0465000002000080042b0000020c8
:041b1000ffff0000d3
:020000040000fa
:101b140070b500f059fd4d4c982380229200e2509c
:101b240000f024fb94232022e250d200e250484be0
:101b3400ff3a9a62190001320b7e1342fcd0434ce7
:101b440080256d009823e550782000f0d1fa942385
:101b54002022e250e5503e4b0f3a9a6219000f3aa8
:101b64000b7e1342fcd0394c80256d009823e55040
:101b7400782000f0bdfa94232022e250e550344b43
:101b84001a329a621900383a0b7e1342fcd02f4b5a
:101b94009821802252005a502020585004395a501b
:101ba4002b4bfb3a9a621900033a0b7e1342fcd08a
:101bb400264b8021490098229950043a20209850bd
:101bc4009950234b5e3a9a621900343a0b7e1342c1
:101bd400fcd01e4b9821802252005a50202058508d
:101be40004395a501a4b383a9a621900c63a0b7e95
:101bf4001342fcd0154b8021490098229950043a95
:101c0400202098509950124b813a9a621900113a47
:101c14000b7e1342fcd00d4b802149009822995031
:101c2400043a202098509950094b6b3a9a62190053
:101c3400273a0b7e1342fcd0044a982380214900a2
:101c4400d1500a2000f054fa70bdc046004400414f
:041c54000008004242
:020000040000fa
:101c580010b5274b274a1a60274a1a6100224021eb
:101c68005a5401315a5401315a54413944201954b3
:101c78000230195401301954053105301954013016
:101c880019540130195401301a54033019540130d1
:101c9800195423381a5401301a54013004241c549e
:101ca8000130185403301a5401301a5402301a54af
:101cb8004730cc24a4001c501030104c1c50343039
:101cc8001a5401301a5403301a5401301a5405308a
:101cd8001954013019540130195401301954ac31d8
:101ce8005a5402315a5403315a5401315a5410bdce
:101cf800004400410780000004700c0010c103007c
:020000040000fa
:101d08001d4b00229a619a8c80218a439a841a007a
:101d18001023d1680b42fcd0184b1b689b0e3f2b3d
:101d280027d09b02802292001343134a9362102308
:101d3800d1680b42fcd0104b02229a841a0010235f
:101d4800d1680b42fcd00e4b0e4a5a601a005378e9
:101d58005bb2002bfbdb0a4b0b4a5a800b4a5a80ba
:101d68000b4a5a800b4b0c4a1a62034b00221a6228
:101d78007047203bd5e7c04600080040246080003b
:101d8800000c004000070100144000001a40000049
:0c1d98001b400000000400400409010092
:020000040000fa
:101da400f0b585b0140003930aab1e880bab1d7805
:101db4000cab1f78124b1870124b19701378002b50
:101dc40019d105b0f0bd0f4b19780d4b1878009759
:101dd40033002200fff772f909e00a4b1978084b27
:101de400187801970096039b2200fff7e3fa013469
:101df4002378002be5d0012de5d0002df7d1ece7b9
:081e0400b2000020b300002031
:020000040000fa
:101e0c0010b584b0002000f059f90021114801f000
:101e1c0001f9fff779fe104c2000fff70ffdfa20b7
:101e2c00800000f061f90d4a40214020fff718fcba
:101e3c00fa2000f059f92000fff700fd012302936e
:101e4c000193002300931f33054a3c210a20fff71e
:101e5c00a3fffee739300000ffff00004430000014
:041e6c002c30000016
:020000040000fa
:101e7000bff35f8f62b6124bc22080001a5811491f
:101e80001140c02212020a431a50802292001a60a6
:101e900004301a581202120ac02109060a431a50c5
:101ea000802212021a6004301a5807491140c022d9
:101eb00012040a431a508022d2021a607047c046a8
:0c1ec00000e100e0ff00ffffffff00ff5b
:020000040000fa
:101ecc0000230e4a10b513600d4a13600d4a1360bf
:101edc000d4a13600d4a13600d4a536213610133ae
:101eec00936001f0affb01f0adfb0a4c0a4b9c4236
:101efc0000d310bd08cc9847f8e7c046ac000020d2
:101f0c000c0000200800002000000020040000202d
:0c1f1c0010000020bc000000c00000000d
:020000040000fa
:101f2800124b01221a6019008b681a42fcd10f4b20
:101f3800b82252011a600122da6301325a61693209
:101f48001a64363a5a641d3a9a64da641a65084a79
:101f5800da62084a00211160802252029a62120253
:101f68001a621a009368002bfcd1704700200042c7
:081f78000ff80f00a00000208b
:020000040000fa
:101f800010b5064c2378002b07d1054b002b02d04f
:101f9000044800e000bf0123237010bd7c00002036
:101fa0000000000000000000044b10b5002b03d01f
:101fb0000349044800e000bf10bdc0460000000017
:081fc000800000200000000079
:020000040000fa
:101fc8000e4b01221a801a00d37b5bb2002bfbdb7d
:101fd8000a4bac22d2001a80094a1a833b229a7310
:101fe800084a0021116001225a7312025a811a000c
:101ff800d37b5bb2002bfbdb7047c046002c004252
:08200800ed0200009800002029
:020000040000fa
:1020100010b50a4b98470a4b984700f039f8094b1e
:10202000ff229343084a9360084b9847084b984710
:10203000084b9847fff7eafefee7c046232600005c
:10204000232600000000000000ed00e0cd1e00008f
:082050002326000023260000f6
:020000040000fa
:102058000a4a0023136213779360d360084a5360d7
:10206800d369002bfcd1064b01221a73054a1a606a
:102078001a00d369002bfcd17047c04650000020dd
:08208800000800420e000100f7
:020000040000fa
:1020900010b50b480168002905d14368002b02d117
:1020a00001f0d5fa10bd04008368064a9bb20c34d7
:1020b0009b009b5842682000984780002018e9e761
:0820c000500d0000fc2500009a
:020000040000fa
:1020c80010b5094b06225a60fff7c2fdfff718fe4c
:1020d80000f09cfffff724fffff7bafffff770ff40
:0c20e800fff7c2fe10bdc04600400041e2
:020000040000fa
:1020f40010b5040000f050fa002c0ad00648002164
:10210400020001701378002bfcd0013ca4b2002c17
:0c211400f7d100f04dfa10bdb100002022
:020000040000fa
:1021200010b5074b987bc0b23b229a73054b1b68d6
:10213000002b03d0034b59681b68984710bdc0465d
:08214000002c00429800002071
:020000040000fa
:1021480010b5064a5168064bd86a064cdc62db6a51
:102158001368002b01d01368984710bda000002019
:08216800002000420ff80f00f7
:020000040000fa
:1021700070b5064c10259423e5503220fff7baffc6
:102180009823e5503220fff7b5ff70bd00440041b1
:020000040000fa
:10219000fff0fff0fff0cf70b6f0b6f0b5f0cdf085
:1021a000fb30fad0f6d0f6d0ef30fff0fff0fff0c2
:020000040000fa
:1021b000ff80ff80ff80e380dd80dd80db80e780c3
:1021c000d780ba80bd80bc80c300ff80ff80ff80c5
:020000040000fa
:1021d000fffcfffcfffcf03ccfdcbfecb8b4773475
:1021e0006fb46f746f6c6e6cb11cbff4cfccf03ced
:020000040000fa
:1021f000ff80ff80ff80f780eb80eb80e980dd804f
:10220000dd808080be807f007f00ff80ff80ff80b8
:020000040000fa
:10221000ff80ff80ff808180be80be80be80818085
:10222000be80be80be80be808180ff80ff80ff8038
:020000040000fa
:10223000ffc0ffc0ffc0e1c0dec0bf40bfc0bfc025
:10224000bfc0bfc0bf40dec0e1c0ffc0ffc0ffc015
:020000040000fa
:10225000ffc0ffc0ffc081c0bec0bf40bf40bf4085
:10226000bf40bf40bf40bec081c0ffc0ffc0ffc075
:020000040000fa
:10227000ff80ff80ff808080bf80bf80bf80808024
:10228000bf80bf80bf80bf808080ff80ff80ff80d5
:020000040000fa
:10229000ff80ff80ff808080bf80bf80bf80818003
:1022a000bf80bf80bf80bf80bf80ff80ff80ff8076
:020000040000fa
:1022b000ffe0ffe0ffe0e0e0df60bfa0bfe0bfe0e5
:1022c000bc20bfa0bfa0df60e0e0ffe0ffe0ffe0d8
:020000040000fa
:1022d000ff80ff80ff80be80be80be80be80808089
:1022e000be80be80be80be80be80ff80ff80ff803b
:020000040000fa
:1022f000ff80ff80ff80be80bd80bb80b780b7803d
:10230000ab809d80bd80be80bf00ff80ff80ff80ce
:020000040000fa
:10231000ffe0ffe0ffe0bfa09f209f20aea0aea0a7
:10232000b5a0b5a0b5a0bba0bba0ffe0ffe0ffe05b
:020000040000fa
:10233000ff80ff80ff80be809e80ae80ae80b68032
:10234000b680ba80ba80bc80be80ff80ff80ff80ec
:020000040000fa
:10235000ffe0ffe0ffe0e0e0df60bfa0bfa0bfa0c4
:10236000bfa0bfa0bfa0df60e0e0ffe0ffe0ffe0b4
:020000040000fa
:10237000ff80ff80ff808180be80be80be80be80e7
:102380008180bf80bf80bf80bf80ff80ff80ff80d3
:020000040000fa
:10239000ffe0ffe0ffe0e0e0df60bfa0bfa0bfa084
:1023a000bfa0bfa0bd60de60e120ffe0ffe0ffe076
:020000040000fa
:1023b000ffc0ffc0ffc080c0bf40bf40bf40bf40a4
:1023c00080c0bbc0bdc0bec0bf40ffc0ffc0ffc01b
:020000040000fa
:1023d000ff80ff80ff80c180be80be80bf80c7803d
:1023e000f880fe80be80be80c180ff80ff80ff80bd
:020000040000fa
:1023f000ff80ff80ff808080f780f780f780f78084
:10240000f780f780f780f780f780ff80ff80ff80fc
:020000040000fa
:10241000ff80ff80ff80be80be80be80be80be8009
:10242000be80be80be80dd80e380ff80ff80ff80b5
:020000040000fa
:10243000ff80ff80ff807f007f00be80be80dd8048
:10244000dd80eb80eb80f780f780ff80ff80ff80ee
:020000040000fa
:10245000fff8fff8fff87df07af0bae8bae8bae8da
:10246000d758d758d758efb8efb8fff8fff8fff8ac
:020000040000fa
:10247000ff80ff80ff807f00be80dd80dd80eb80fd
:10248000f780f780f780f780f780ff80ff80ff807c
:020000040000fa
:10249000ffe0ffe0ffe0ffe0ffe0a46099a0bba049
:1024a000bba0bba0bba0bba0bba0ffe0ffe0ffe0c8
:020000040000fa
:1024b000ff80ff80ff80ff80ff8077007700aa8089
:1024c000aa80aa80aa80dd80dd80ff80ff80ff8057
:020000040000fa
:1024d00010b5054c054b9c4202d8fdf7f1fd10bd2f
:1024e000043c23689847f5e7d0000000cc000000ca
:020000040000fa
:1024f000002310b5934206d103201840421e90419c
:0e2500009b08c01810bdc45ccc540133f2e738
:020000040000fa
:02250e00fee7e6
:020000040000fa
:10251000ff80ff80ff80dd80ab80ab80d580f280c4
:0c252000ea80ed80ff80ff80ff80c04655
:020000040000fa
:10252c00ffc0ffc0ffc0e0c0df40b280ac80ad8018
:0c253c00ad40b0c0df00e0c0ffc0c046f2
:020000040000fa
:10254800ff80ff80ff80be809c809c80aa80aa803c
:0c255800aa80b680ff80ff80ff80c04694
:020000040000fa
:10256400ff80ff80ff8077006b00aa80aa80aa808a
:0c257400aa80dd80ff80ff80ff80c04651
:020000040000fa
:10258000ff80ff80ff80ff80ff808180b680b68063
:0c259000b680b680ff80ff80ff80c04650
:020000040000fa
:10259c00044a138802210b431380d37b5bb2002bbc
:0825ac00fbdb7047002c00422c
:020000040000fa
:1025b400044a138802218b431380d37b5bb2002b24
:0825c400fbdb7047002c004214
:020000040000fa
:1025cc0010b5044b01229a6101329a619620fff7f3
:0825dc008bfd10bd004400411d
:020000040000fa
:1025e40010b5040001f033f8fff770ff01f02ff885
:0625f400200001f023f8b5
:020000040000fa
:0225fa00fee7fa
:020000040000fa
:1025fc0011260000f1240000473600004736000089
:04260c00473600004d
:020000040000fa
:102610008a18914201d10020704700230b700131cc
:02262000f7e7da
:020000040000fa
:022622007047ff
:020000040000fa
:10262400e0e0e0e0e0e0e0e0e0e0e0e0e000c04640
:020000040000fa
:10263400f0f0f0f0f0f0f0f0f0f0f0f0f0f0f0f096
:020000040000fa
:10264400e0e0e0a0a0a0a0a0e0a0e0e0e000c046a0
:020000040000fa
:10265400f8f8f8d8d8d8d8d8d8d8d8f8d8f8f8f816
:020000040000fa
:10266400f0f0f0505050f0f0f0f0f0f0f000c04610
:020000040000fa
:10267400f8f8f8a8a8a8a8f8f8f8f8f8f8f8f8f816
:020000040000fa
:10268400fcfcfcd4d404ac045c5cfcfcfc00c04644
:020000040000fa
:10269400ffffffededeb00dbdb00b7b7b7ffffff9c
:020000040000fa
:1026a400fcfcfc8c541cc4d4548cdcfcfc00c046e4
:020000040000fa
:1026b400ffffefc3ad6f6f8fe3eded6b87efffffb0
:020000040000fa
:1026c400fefefec6b6ce9e687288fefefe00c046c2
:020000040000fa
:1026d400c0c0c0404040c0c0c0c0c0c0c000c046b0
:020000040000fa
:1026e400e0e0e0a0a0a0a0e0e0e0e0e0e0e0e0e0e6
:020000040000fa
:1026f400e0e0e0c0a06060606060a0c0e000c046b0
:020000040000fa
:10270400f8f8f8e8d8d8b8b8b8b8b8b8b8d8d8e8a5
:020000040000fa
:10271400e0e0e060a0c0c0c0c0c0a060e000c0466f
:020000040000fa
:10272400f8f8f8b8d8d8e8e8e8e8e8e8e8d8d8b895
:020000040000fa
:10273400f0f0f010b050f0f0f0f0f0f0f000c0461f
:020000040000fa
:10274400f8f8f8d800d8a8f8f8f8f8f8f8f8f8f88d
:020000040000fa
:10275400fcfcfcfcdcdc04dcdcfcfcfcfc00c0461b
:020000040000fa
:10276400fffffffffff7f7f780f7f7f7ffffffff24
:020000040000fa
:10277400e0e0e0e0e0e0e0e0e0a0a0e0e000c0466f
:020000040000fa
:10278400f0f0f0f0f0f0f0f0f0f0f0f0d0d0d0f0a5
:020000040000fa
:10279400e0e0e0e0e0e0e020e0e0e0e0e000c0468f
:020000040000fa
:1027a400f8f8f8f8f8f8f8f8f808f8f8f8f8f8f895
:020000040000fa
:1027b400e0e0e0e0e0e0e0e0e0a0e0e0e000c046ef
:020000040000fa
:1027c400f0f0f0f0f0f0f0f0f0f0f0f0d0f0f0f025
:020000040000fa
:1027d400e0e0e0c0c0a0a0a06060e0e0e000c0468f
:020000040000fa
:1027e400f0f0f0e0e0d0d0d0b0b0b07070f0f0f025
:020000040000fa
:1027f400fcfcfc8c74747474748cfcfcfc00c0468b
:020000040000fa
:10280400ffffffc3bdbdbdbdbdbdbdbdc3ffffff5c
:020000040000fa
:10281400fcfcfcecccacececececfcfcfc00c046b2
:020000040000fa
:10282400fffffff7e7d7f7f7f7f7f7f7f7ffffff34
:020000040000fa
:10283400fcfcfc8c74f4ecdcbc04fcfcfc00c0462a
:020000040000fa
:10284400ffffffc3bdbdfdfdfbf7efdf81ffffff12
:020000040000fa
:10285400fcfcfc8c74f4ccf4748cfcfcfc00c046d2
:020000040000fa
:10286400ffffffc3bdbdfde3fdfdbdbdc3ffffff16
:020000040000fa
:10287400fcfcfce4d4b47400f4f4fcfcfc00c0469e
:020000040000fa
:10288400fffffffbf3ebdbdbbb7b01fbfbffffff8e
:020000040000fa
:10289400fcfcfc84bc0c74f4748cfcfcfc00c04692
:020000040000fa
:1028a400ffffffc1dfbf83bdfdfdbdbbc3ffffff56
:020000040000fa
:1028b400fcfcfc8c740c7474748cfcfcfc00c04632
:020000040000fa
:1028c400ffffffe3ddbfbfa39dbdbdbdc3ffffff92
:020000040000fa
:1028d400fcfcfc04ececdcdcbcbcfcfcfc00c046fa
:020000040000fa
:1028e400ffffff81fdfbfbf7f7f7efefefffffffc4
:020000040000fa
:1028f400fcfcfc8c74748c74748cfcfcfc00c04672
:020000040000fa
:10290400ffffffc3bdbdbdc3bdbdbdbdc3ffffff55
:020000040000fa
:10291400fcfcfc8c74747484748cfcfcfc00c04659
:020000040000fa
:10292400ffffffc3bdbdbdb9c5fdfdbbc7ffffffb5
:020000040000fa
:10293400e0e0e0e0e0a0e0e0e0a0e0e0e000c046ad
:020000040000fa
:10294400f0f0f0f0f0b0f0f0f0f0f0f0b0f0f0f003
:020000040000fa
:10295400e0e0e0e0e0a0e0e0e0a0a0e0e000c046cd
:020000040000fa
:10296400f0f0f0f0f0b0f0f0f0f0f0f0b0b0b0f063
:020000040000fa
:10297400fcfcfcfcf4ccbcccf4fcfcfcfc00c04631
:020000040000fa
:10298400fffffffffffdf3cfbfcff3fdffffffff0f
:020000040000fa
:10299400fcfcfcfcfc04fc04fcfcfcfcfc00c04651
:020000040000fa
:1029a400ffffffffffff81ffff81ffffffffffff2f
:020000040000fa
:1029b400fcfcfcfcbcccf4ccbcfcfcfcfc00c04629
:020000040000fa
:1029c400ffffffffffbfcff3fdf3cfbfffffffff0d
:020000040000fa
:1029d400fcfcfc8478f8e4ecfcecfcfcfc00c04659
:020000040000fa
:1029e400ffffffc3bdbdfdfbf7efefffeffffffff1
:020000040000fa
:1029f400fefefeeed6d6ba82ba7cfefefe00c046cd
:020000040000fa
:102a0400fefefe86baba82baba86fefefe00c04652
:020000040000fa
:102a1400fefefec6babebebebac6fefefe00c0467e
:020000040000fa
:102a2400fefefe8eb6bababab68efefefe00c046f2
:020000040000fa
:102a3400fefefe82bebe82bebe82fefefe00c0461a
:020000040000fa
:102a4400fcfcfc84bcbc8cbcbcbcfcfcfc00c046d8
:020000040000fa
:102a5400ffffffe7dbbfb1bddbe7ffffff00c046c1
:020000040000fa
:102a6400fefefebababa82bababafefefe00c0468a
:020000040000fa
:102a7400e0e0e0a0a0a0a0a0a0a0e0e0e000c046ac
:020000040000fa
:102a8400e0e0e0a0a0a0a0a0a0a0a0a0a0e0e0e0c2
:020000040000fa
:102a9400f8f8f8e8e8e8e8e86818f8f8f800c04654
:020000040000fa
:102aa400fcfcfcf4f4f4f4f4f4f474748cfcfcfc1a
:020000040000fa
:102ab400fefefebab6aeae96babcfefefe00c04640
:020000040000fa
:102ac400fcfcfcbcbcbcbcbcbc80fcfcfc00c0462c
:020000040000fa
:102ad400ffffffbfbfbfbfbfbfbfbfbf80ffffffc1
:020000040000fa
:102ae400fefefeba9a9aaab2b2bafefefe00c04632
:020000040000fa
:102af400ffffffc3bdbdbdbdbdc3ffffff00c0469b
:020000040000fa
:102b0400fefefe86baba86bebebefefefe00c0460d
:020000040000fa
:102b1400ffffffc3bdbdbdbdb3c1ffffff00c04686
:020000040000fa
:102b2400fefefe86baba86b6babafefefe00c046fd
:020000040000fa
:102b3400fefefec6babec6fabac6fefefe00c04619
:020000040000fa
:102b4400fefefe82eeeeeeeeeeeefefefe00c04671
:020000040000fa
:102b5400fefefebabababababac6fefefe00c04655
:020000040000fa
:102b6400fefefe7cbababad6d6eefefefe00c04623
:020000040000fa
:102b7400fefefebad6eeeed6ba7cfefefe00c046df
:020000040000fa
:102b8400ffffff7ebdbddbe7e7dbbdbd7effffffd3
:020000040000fa
:102b9400fefefe7cbad6eeeeeeeefefefe00c04673
:020000040000fa
:102ba400fcfcfc00f0e4cc9c7c00fcfcfc00c0467b
:020000040000fa
:102bb400ffffff80fdfbfbf7efdfdfbf00ffffff41
:020000040000fa
:102bc400e0e0e080a0a0a0a0a0a0a080e000c0461b
:020000040000fa
:102bd400f0f0f090b0b0b0b0b0b0b0b0b0b0b09071
:020000040000fa
:102be400e0e0e06060a0a0a0c0c0e0e0e000c0467b
:020000040000fa
:102bf400f0f0f07070b0b0b0d0d0d0e0e0f0f0f011
:020000040000fa
:102c0400e0e0e020a0a0a0a0a0a0a020e000c0469a
:020000040000fa
:102c1400f0f0f090d0d0d0d0d0d0d0d0d0d0d090d0
:020000040000fa
:102c2400f8f8f8d8a8a870f8f8f8f8f8f800c0464a
:020000040000fa
:102c3400f8f8f8d8a8a8a870f8f8f8f8f8f8f8f8a8
:020000040000fa
:102c4400fcfcfcfcfcfcfcfcfcfcfc00fc00c046aa
:020000040000fa
:102c5400ffffffffffffffffffffffffffffff007f
:020000040000fa
:102c6400e0e0e060a0e0e0e0e0e0e0e0e000c046ba
:020000040000fa
:102c7400f8f8f8b8d8f8f8f8f8f8f8f8f8f8f8f830
:020000040000fa
:102c8400fcfcfcfcfcc4f4c4b484fcfcfc00c046a6
:020000040000fa
:102c9400ffffffffffc3bdfde1ddbdb9c5ffffffc2
:020000040000fa
:102ca400fcfcfcbcbc8cb4b4b48cfcfcfc00c04686
:020000040000fa
:102cb400ffffffbfbfa39dbdbdbdbd9da3ffffff24
:020000040000fa
:102cc400f8f8f8f8f8c8b0b8b0c8f8f8f800c04692
:020000040000fa
:102cd400fefefefefec6babebebebebac6fefefe08
:020000040000fa
:102ce400fcfcfcf4f4c4b4b4b4c4fcfcfc00c04666
:020000040000fa
:102cf400fffffffdfdc5b9bdbdbdbdb9c5ffffffec
:020000040000fa
:102d0400fcfcfcfcfcccb484bcc4fcfcfc00c04655
:020000040000fa
:102d1400ffffffffffc3bdbd81bfbfbdc3fffffffb
:020000040000fa
:102d2400e0e0e0c0a000a0a0a0a0e0e0e000c04679
:020000040000fa
:102d3400f0f0f0c0b000b0b0b0b0b0b0b0f0f0f0af
:020000040000fa
:102d4400fcfcfcfcfcc4b4b4b4c4b4ccfc00c0466d
:020000040000fa
:102d5400ffffffffffc5b9bdbdbdbdb9c5fdbdc307
:020000040000fa
:102d6400fcfcfcbcbc8cb4b4b4b4fcfcfc00c0469d
:020000040000fa
:102d7400ffffffbfbfa39dbdbdbdbdbdbdffffff29
:020000040000fa
:102d8400e0e0e0a0e0a0a0a0a0a0e0e0e000c04659
:020000040000fa
:102d9400e0e0e0a0e0a0a0a0a0a0a0a0a0e0e0e06f
:020000040000fa
:102da400e0e0e0a0e0a0a0a0a0a0a060e000c046f9
:020000040000fa
:102db400e0e0e0a0e0a0a0a0a0a0a0a0a0a0a0604f
:020000040000fa
:102dc400f0f0f070706050105060f0f0f000c04609
:020000040000fa
:102dd400fefefebebebcbab6ae96bababcfefefedf
:020000040000fa
:102de400e0e0e0a0a0a0a0a0a0a0e0e0e000c04639
:020000040000fa
:102df400e0e0e0a0a0a0a0a0a0a0a0a0a0e0e0e04f
:020000040000fa
:102e0400fcfcfcfcfc8cb4b4b4b4fcfcfc00c0467c
:020000040000fa
:102e1400ffffffffffa39dbdbdbdbdbdbdffffff08
:020000040000fa
:102e2400fcfcfcfcfcccb4b4b4ccfcfcfc00c04604
:020000040000fa
:102e3400ffffffffffc3bdbdbdbdbdbdc3ffffffa2
:020000040000fa
:102e4400fcfcfcfcfc8cb4b4b48cbcbcfc00c046e4
:020000040000fa
:102e5400ffffffffffa39dbdbdbdbd9da3bfbfbfc2
:020000040000fa
:102e6400fcfcfcfcfcc4b4b4b4c4f4f4fc00c046e4
:020000040000fa
:102e7400ffffffffffc5b9bdbdbdbdb9c5fdfdfd6c
:020000040000fa
:102e8400e0e0e0e0e080a0a0a0a0e0e0e000c04638
:020000040000fa
:102e9400f8f8f8f8f8a098b8b8b8b8b8b8f8f8f8e6
:020000040000fa
:102ea400f0f0f0f0f0807090e010f0f0f000c04628
:020000040000fa
:102eb400fefefefefec6babec6fafabac6fefefea6
:020000040000fa
:102ec400e0e0e0a0a000a0a0a080e0e0e000c04618
:020000040000fa
:102ed400f0f0f0b0b000b0b0b0b0b0b080f0f0f04e
:020000040000fa
:102ee400fcfcfcfcfcb4b4b4b4c4fcfcfc00c04664
:020000040000fa
:102ef400ffffffffffbdbdbdbdbdbdb9c5ffffffea
:020000040000fa
:102f0400f8f8f8f8f870a8a8a8d8f8f8f800c046b7
:020000040000fa
:102f1400fefefefefe7c7cbabad6d6eeeefefefec9
:020000040000fa
:102f2400fefefefefe6c545454bafefefe00c04685
:020000040000fa
:102f3400f8f8f8f8f870a8d8a870f8f8f800c046bf
:020000040000fa
:102f4400fcfcfcfcfc78b4b4ccccb4b478fcfcfc45
:020000040000fa
:102f5400f8f8f8f8f870a8a8a8d8d8b8f800c046c7
:020000040000fa
:102f6400fefefefefe7c7cbabad6d6d6eeeeee9e11
:020000040000fa
:102f7400f8f8f8f8f800e8d8b800f8f8f800c0460f
:020000040000fa
:102f8400fcfcfcfcfc00f4ececdcdcbc00fcfcfc1d
:020000040000fa
:102f9400e0e0e080a0a0a060a0a0a080e000c04687
:020000040000fa
:102fa400f8f8f8e8d8d8d8d8d8b8d8d8d8d8d8e83d
:020000040000fa
:102fb400e0e0e0a0a0a0a0a0a0a0a0a0e000c046e7
:020000040000fa
:102fc400e0e0e0a0a0a0a0a0a0a0a0a0a0a0a0a03d
:020000040000fa
:102fd400e0e0e020a0a0a0c0a0a0a020e000c046a7
:020000040000fa
:102fe400f8f8f8b8d8d8d8d8d8e8d8d8d8d8d8b82d
:020000040000fa
:102ff400fcfcfcfcfcfc1444fcfcfcfcfc00c0469b
:020000040000fa
:10300400ffffffffffffff8d61ffffffffffffffdc
:020000040000fa
:0c301400014b82225a60704700400041ce
:020000040000fa
:0c302000014b18605960704798000020b8
:020000040000fa
:0c302c0048616c6c6f204c756b61730088
:020000040000fa
:0c303800014b01221a707047b10000200b
:020000040000fa
:0c304400d0000000280028001000000050
:020000040000fa
:0830500024260000030d00001e
:020000040000fa
:08305800342600000410000002
:020000040000fa
:0830600044260000030d0000ee
:020000040000fa
:083068005426000005100000d1
:020000040000fa
:0830700064260000040d0000bd
:020000040000fa
:083078007426000005100000a1
:020000040000fa
:0830800084260000060d00008b
:020000040000fa
:0830880094260000081000006e
:020000040000fa
:08309000a4260000060d00005b
:020000040000fa
:08309800b4260000081000003e
:020000040000fa
:0830a00010250000090d0000dd
:020000040000fa
:0830a800902100000c10000053
:020000040000fa
:0830b000c4260000070d00001a
:020000040000fa
:0830b800b02100000910000026
:020000040000fa
:0830c000d4260000020d0000ff
:020000040000fa
:0830c800e426000003100000e3
:020000040000fa
:0830d000f4260000030d0000ce
:020000040000fa
:0830d8000427000005100000b0
:020000040000fa
:0830e00014270000030d00009d
:020000040000fa
:0830e800242700000510000080
:020000040000fa
:0830f00034270000040d00006c
:020000040000fa
:0830f800442700000510000050
:020000040000fa
:0831000054270000060d000039
:020000040000fa
:0831080064270000081000001c
:020000040000fa
:0831100074270000030d00000c
:020000040000fa
:083118008427000004100000f0
:020000040000fa
:0831200094270000030d0000dc
:020000040000fa
:08312800a427000005100000bf
:020000040000fa
:08313000b4270000030d0000ac
:020000040000fa
:08313800c42700000410000090
:020000040000fa
:08314000d4270000030d00007c
:020000040000fa
:08314800e42700000410000060
:020000040000fa
:08315000f4270000060d000049
:020000040000fa
:0831580004280000081000002b
:020000040000fa
:0831600014280000060d000018
:020000040000fa
:083168002428000008100000fb
:020000040000fa
:0831700034280000060d0000e8
:020000040000fa
:083178004428000008100000cb
:020000040000fa
:0831800054280000060d0000b8
:020000040000fa
:0831880064280000081000009b
:020000040000fa
:0831900074280000060d000088
:020000040000fa
:0831980084280000081000006b
:020000040000fa
:0831a00094280000060d000058
:020000040000fa
:0831a800a4280000081000003b
:020000040000fa
:0831b000b4280000060d000028
:020000040000fa
:0831b800c4280000081000000b
:020000040000fa
:0831c000d4280000060d0000f8
:020000040000fa
:0831c800e428000008100000db
:020000040000fa
:0831d000f4280000060d0000c8
:020000040000fa
:0831d8000429000008100000aa
:020000040000fa
:0831e00014290000060d000097
:020000040000fa
:0831e80024290000081000007a
:020000040000fa
:0831f00034290000030d00006a
:020000040000fa
:0831f80044290000041000004e
:020000040000fa
:0832000054290000030d000039
:020000040000fa
:0832080064290000041000001d
:020000040000fa
:0832100074290000060d000006
:020000040000fa
:083218008429000008100000e9
:020000040000fa
:0832200094290000060d0000d6
:020000040000fa
:08322800a429000008100000b9
:020000040000fa
:08323000b4290000060d0000a6
:020000040000fa
:08323800c42900000810000089
:020000040000fa
:08324000d4290000060d000076
:020000040000fa
:08324800e42900000810000059
:020000040000fa
:083250002c2500000a0d00000e
:020000040000fa
:08325800d02100000e1000005f
:020000040000fa
:08326000f4290000070d000035
:020000040000fa
:08326800f02100000910000034
:020000040000fa
:08327000042a0000070d000014
:020000040000fa
:08327800102200000910000003
:020000040000fa
:08328000142a0000070d0000f4
:020000040000fa
:08328800302200000a100000d2
:020000040000fa
:08329000242a0000070d0000d4
:020000040000fa
:08329800502200000a100000a2
:020000040000fa
:0832a000342a0000070d0000b4
:020000040000fa
:0832a800702200000910000073
:020000040000fa
:0832b000442a0000060d000095
:020000040000fa
:0832b800902200000910000043
:020000040000fa
:0832c000542a0000080d000073
:020000040000fa
:0832c800b02200000b10000011
:020000040000fa
:0832d000642a0000070d000054
:020000040000fa
:0832d800d022000009100000e3
:020000040000fa
:0832e000742a0000030d000038
:020000040000fa
:0832e800842a0000031000001d
:020000040000fa
:0832f000942a0000050d000006
:020000040000fa
:0832f800a42a000006100000ea
:020000040000fa
:08330000b42a0000070d0000d3
:020000040000fa
:08330800f02200000910000092
:020000040000fa
:08331000c42a0000060d0000b4
:020000040000fa
:08331800d42a00000810000097
:020000040000fa
:0833200048250000090d000022
:020000040000fa
:08332800102300000b1000004f
:020000040000fa
:08333000e42a0000070d000073
:020000040000fa
:08333800302300000910000021
:020000040000fa
:08334000f42a0000080d000052
:020000040000fa
:08334800502300000b100000ef
:020000040000fa
:08335000042b0000070d000032
:020000040000fa
:083358007023000009100000c1
:020000040000fa
:08336000142b0000080d000011
:020000040000fa
:08336800902300000b1000008f
:020000040000fa
:08337000242b0000070d0000f2
:020000040000fa
:08337800b02300000a10000060
:020000040000fa
:08338000342b0000070d0000d2
:020000040000fa
:08338800d02300000910000031
:020000040000fa
:08339000442b0000070d0000b2
:020000040000fa
:08339800f02300000910000001
:020000040000fa
:0833a000542b0000070d000092
:020000040000fa
:0833a8001024000009100000d0
:020000040000fa
:0833b000642b0000070d000072
:020000040000fa
:0833b8003024000009100000a0
:020000040000fa
:0833c00064250000090d000066
:020000040000fa
:0833c800502400000d1000006c
:020000040000fa
:0833d000742b0000070d000042
:020000040000fa
:0833d800842b00000810000026
:020000040000fa
:0833e000942b0000070d000012
:020000040000fa
:0833e800702400000910000030
:020000040000fa
:0833f000a42b0000060d0000f3
:020000040000fa
:0833f800b42b000008100000d6
:020000040000fa
:08340000c42b0000030d0000c5
:020000040000fa
:08340800d42b000004100000a9
:020000040000fa
:08341000e42b0000030d000095
:020000040000fa
:08341800f42b00000410000079
:020000040000fa
:08342000042c0000030d000064
:020000040000fa
:08342800142c00000410000048
:020000040000fa
:08343000242c0000050d000032
:020000040000fa
:08343800342c00000510000017
:020000040000fa
:08344000442c0000060d000001
:020000040000fa
:08344800542c000008100000e4
:020000040000fa
:08345000642c0000030d0000d4
:020000040000fa
:08345800742c000005100000b7
:020000040000fa
:08346000842c0000060d0000a1
:020000040000fa
:08346800942c00000810000084
:020000040000fa
:08347000a42c0000060d000071
:020000040000fa
:08347800b42c00000810000054
:020000040000fa
:08348000c42c0000050d000042
:020000040000fa
:08348800d42c00000710000025
:020000040000fa
:08349000e42c0000060d000011
:020000040000fa
:08349800f42c000008100000f4
:020000040000fa
:0834a000042d0000060d0000e0
:020000040000fa
:0834a800142d000008100000c3
:020000040000fa
:0834b000242d0000030d0000b3
:020000040000fa
:0834b800342d00000410000097
:020000040000fa
:0834c000442d0000060d000080
:020000040000fa
:0834c800542d00000810000063
:020000040000fa
:0834d000642d0000060d000050
:020000040000fa
:0834d800742d00000810000033
:020000040000fa
:0834e000842d0000030d000023
:020000040000fa
:0834e800942d00000310000008
:020000040000fa
:0834f000a42d0000030d0000f3
:020000040000fa
:0834f800b42d000003100000d8
:020000040000fa
:08350000c42d0000040d0000c1
:020000040000fa
:08350800d42d000007100000a3
:020000040000fa
:08351000e42d0000030d000092
:020000040000fa
:08351800f42d00000310000077
:020000040000fa
:0835200080250000090d0000e8
:020000040000fa
:08352800902400000b100000cc
:020000040000fa
:08353000042e0000060d00004e
:020000040000fa
:08353800142e00000810000031
:020000040000fa
:08354000242e0000060d00001e
:020000040000fa
:08354800342e00000810000001
:020000040000fa
:08355000442e0000060d0000ee
:020000040000fa
:08355800542e000008100000d1
:020000040000fa
:08356000642e0000060d0000be
:020000040000fa
:08356800742e000008100000a1
:020000040000fa
:08357000842e0000030d000091
:020000040000fa
:08357800942e00000510000074
:020000040000fa
:08358000a42e0000040d000060
:020000040000fa
:08358800b42e00000710000042
:020000040000fa
:08359000c42e0000030d000031
:020000040000fa
:08359800d42e00000410000015
:020000040000fa
:0835a000e42e0000060d0000fe
:020000040000fa
:0835a800f42e000008100000e1
:020000040000fa
:0835b000042f0000050d0000ce
:020000040000fa
:0835b800142f000007100000b1
:020000040000fa
:0835c000242f0000070d00009c
:020000040000fa
:0835c800b0240000091000000e
:020000040000fa
:0835d000342f0000050d00007e
:020000040000fa
:0835d800442f00000610000062
:020000040000fa
:0835e000542f0000050d00004e
:020000040000fa
:0835e800642f00000710000031
:020000040000fa
:0835f000742f0000050d00001e
:020000040000fa
:0835f800842f00000610000002
:020000040000fa
:08360000942f0000030d0000ef
:020000040000fa
:08360800a42f000005100000d2
:020000040000fa
:08361000b42f0000030d0000bf
:020000040000fa
:08361800c42f000003100000a4
:020000040000fa
:08362000d42f0000030d00008f
:020000040000fa
:08362800e42f00000510000072
:020000040000fa
:08363000f42f0000060d00005c
:020000040000fa
:0836380004300000081000003e
:020000040000fa
:0636400010b500f003f8d4
:020000040000fa
:0436460000207047a9
:020000040000fa
:02364a00fee799
:020000040000fa
:02364c00fee797
:020000040000fa
:02364e007047c3
:020000040000fa
:023650007047c1
:020000040000fa
:023652007047bf
:020000040000fa
:0200000400807a
:0440000077c700d8a6
:020000040000fa
:0200000400807a
:044004005c00ffff5e
:00000001FF
