:020000040000fa
:10000000f07f0020551100009b1600008b170000a8
:1000100000000000000000000000000000000000e0
:10002000000000000000000000000000cf270000da
:100030000000000000000000cf270000cf270000d4
:10004000cf270000cf270000cf270000cf270000d8
:10005000cf270000cf270000cf270000cf270000c8
:10006000cf270000650b0000cf270000cf2700003e
:10007000cf270000cf270000cf270000d5120000b7
:10008000cf270000cf270000ad120000cf270000cf
:10009000cf270000cf270000cf270000cf27000088
:1000a000cf270000cf270000cf270000cf27000078
:020000040000fa
:1000b000f8b5c046f8bc08bc9e467047ed1000007d
:1000c000f8b5c046f8bc08bc9e467047c510000095
:020000040000fa
:1000d0007c0000201c00000000000000b000002098
:1000e0000100000000000000500000202c00000073
:1000f0000000000098000020100000000000000038
:10010000b10000200300000000000000b400002047
:10011000f802000001000000d4210000e4210000ea
:10012000f421000004220000142200002422000018
:100130003422000044220000542200006422000007
:10014000742200008422000094220000a4220000f7
:10015000b4220000c4220000d4220000e4220000e7
:10016000f4220000042300001423000024230000d4
:1001700034230000442300005423000064230000c3
:10018000742300008423000094230000a4230000b3
:10019000b4230000c4230000d4230000e4230000a3
:1001a000f423000004240000142400002424000090
:1001b000342400004424000054240000642400007f
:1001c000742400008424000094240000a42400006f
:1001d000b4240000c4240000d4240000e42400005f
:1001e000f42400000425000014250000242500004c
:1001f000342500004425000054250000642500003b
:10020000742500008425000094250000a42500002a
:10021000b4250000c4250000d4250000e42500001a
:10022000f425000004260000142600002426000007
:1002300034260000442600005426000064260000f6
:10024000742600008426000094260000a4260000e6
:10025000b4260000c4260000d4260000e4260000d6
:10026000f4260000042700001427000024270000c3
:1002700034270000442700005427000064270000b2
:10028000742700008427000094270000a4270000a2
:10029000b4270000dc210000ec210000fc2100005c
:1002a0000c2200001c2200002c2200003c22000036
:1002b0004c2200005c2200006c2200007c22000026
:1002c0008c2200009c220000ac220000bc22000016
:1002d000cc220000dc220000ec220000fc22000006
:1002e0000c2300001c2300002c2300003c230000f2
:1002f0004c2300005c2300006c2300007c230000e2
:100300008c2300009c230000ac230000bc230000d1
:10031000cc230000dc230000ec230000fc230000c1
:100320000c2400001c2400002c2400003c240000ad
:100330004c2400005c2400006c2400007c2400009d
:100340008c2400009c240000ac240000bc2400008d
:10035000cc240000dc240000ec240000fc2400007d
:100360000c2500001c2500002c2500003c25000069
:100370004c2500005c2500006c2500007c25000059
:100380008c2500009c250000ac250000bc25000049
:10039000cc250000dc250000ec250000fc25000039
:1003a0000c2600001c2600002c2600003c26000025
:1003b0004c2600005c2600006c2600007c26000015
:1003c0008c2600009c260000ac260000bc26000005
:1003d000cc260000dc260000ec260000fc260000f5
:1003e0000c2700001c2700002c2700003c270000e1
:1003f0004c2700005c2700006c2700007c270000d1
:100400008c2700009c270000ac270000bc270000c0
:10041000a8000020040000000000000000000020f0
:100420005000000000000000ac00002004000000ac
:100430000000000000000000000000006666666624
:020000040000fa
:10044000f0b5de4657464e464546e0b589b00790c2
:1004500002919c4612ab187805901378203bdab2d3
:10046000069243001b185b011b1a904643449b00f5
:10047000ad4a9a5813795279002a00d149e1604671
:10048000000a039088464244d2b20492002429e133
:10049000802a00d903e1029d802d00d9ffe0a34e00
:1004a000942520237351db007351a14d2a26ae629f
:1004b000a946283e019b4d462d7e3542fbd0019337
:1004c0009a4d98239a4680267600b446ee50531ce7
:1004d000994620239b4653465e46ee50043b6646b3
:1004e000ee50934d0026ae62aa460236019b554659
:1004f0002d7e3542fbd09c468d4d4b46ab62aa46c5
:100500000226634655462d7e3542fbd00193874d2a
:1005100098239a4680267600b446ee50783b9b4658
:1005200053465e46ee50043b6646ee50804d002634
:10053000ae62aa460236019b55462d7e3542fbd05f
:100540009c467b4d4b46ab62a946022663464d4610
:100550002d7e3542fbd09c46744d80235b0099462e
:100560009826ab51043ee03bab514b46ab51704d2e
:10057000693eae62a946293e63464d462d7e354210
:10058000fbd00193694d98239a4680267600b446a5
:10059000ee50029b0233994620239b4653465e460b
:1005a000ee50043b6646ee50614d0026ae62aa4610
:1005b0000236019b55462d7e3542fbd09c465c4d54
:1005c0004b46ab62aa460226634655462d7e35420f
:1005d000fbd00193554d98239a4680267600b44669
:1005e000ee50783b9b4653465e46ee50043b6646d3
:1005f000ee504f4d0026ae62aa460236019b55468c
:100600002d7e3542fbd09c46494d4b46ab62a946f8
:10061000022663464d462d7e3542fbd09c46434d17
:1006200080235b0099469826ab51043ee03bab51da
:100630004b46ab513e4d683eae62a9462a3e6346ec
:100640004d462d7e3542fbd09b46384d982399462a
:1006500080267600b446ee50783b9a464b46564686
:10066000ee50043b6646ee50314d039bab62a9460b
:10067000fe3e5b464d462d7e3542fbd0ff250540b4
:100680002b4eb56202259c46337e2b42fcd063463e
:100690000193264e982580235b00735111e00120c1
:1006a00001f068f80134e4b280310132d2b29045f1
:1006b0000dd01d4d019b5d592d682d5d0d4200d162
:1006c000e6e64908082ff0d90029eed1eae73b0019
:1006d0008446029f0137fab202920134e4b20499cf
:1006e0008a4216d0002bf4d0079a9d18e9b20191e6
:1006f0008021059d6800a84640444001401b069d9e
:10070000a846404480001f00019b98460190604627
:10071000cfe7084a11785b18137009b03cbc9046cb
:100720009946a246ab46f0bdb4000020004400410b
:0807300000080042b2000020a5
:020000040000fa
:10073800f0b5de4657464e464546e0b585b0894693
:100748009b460eac23889c460fac24780294127802
:10075800203ad3b20393620012195201121b984631
:10076800424492009b4c1259167953790193441ec6
:100778003419e4b20a00013a98464244d2b284429b
:1007880000d2bce0802c00d9b9e08a4200d2b6e0a1
:10079800802a00d9b3e0904f942520217951c900cf
:1007a80079518e4d2a27af622900283f0b7e3b42a4
:1007b800fcd0894d9823984680277f00ef50431c32
:1007c80020204146685074302f501f0a834daf6275
:1007d80028000227017e3942fcd0ff252800184056
:1007e8007e4da8622f0002253b7e2b42fcd07a4822
:1007f800982780256d00c55101342023c351043f3b
:10080800c551764800258562070002353b7e2b429c
:10081800fcd072488462050002242b7e2342fcd05f
:100828006d4880256d0098240551043c2027075108
:1008380005516a48693c84620500293c2b7e2342a5
:10084800fcd0654898258024640044514f460237ff
:100858002021415174314450380a604988620d00a2
:10086800fe3c2b7e2342fcd0ff2139405b4881624d
:1008780004000220237e0342fcd05749982480209c
:1008880040000851023220250d51043c08515349bb
:10089800002088620c000230237e0342fcd04f49be
:1008a8008a6208000221037e0b42fcd04a4a80205b
:1008b8004000982150500439202454505050474a41
:1008c8006839916210002a39037e0b42fcd0424af3
:1008d80098208021490011502024145004381150c8
:1008e800019b002b66d063461b0a99465b461b0a90
:1008f800984600230024c2466746984647e00120f0
:1009080000f034ff354b55469d621f0002253b7ea3
:100918002b42fcd0ff2365462b40304dab622f00a5
:1009280002253b7e2b42fcd01be00132d2b296421c
:1009380020d0284bc3581b681b5d0b42e2d0274bc5
:100948004d469d621f0002253b7e2b42fcd0ff23b3
:100958005d462b40214dab622f0002253b7e2b428a
:10096800fcd04908082ee0d90029ded10134e4b2d0
:100978008031dae75346ca46674699460134e4b2fd
:1009880045460135ebb29846019b434512d00022fb
:100998008021002ef2d0029b58009c466044400102
:1009a800c01a039b9c46604480004b46d146bc4617
:1009b8009a46bee7084a982380214900d150084b3f
:1009c8001a78b6181e7005b03cbc90469946a246e7
:1009d800ab46f0bdb40000200044004100080042ce
:0409e800b200002039
:020000040000fa
:1009ec0030b55b4a94232021d150c900d150594bca
:1009fc002a229a621a000223117e1942fcd0544b0f
:100a0c009821802252005a5020245c5004395a50ac
:100a1c00504b00229a621a000223117e1942fcd01c
:100a2c004c4b02229a621a000223117e1942fcd00e
:100a3c00474b9821802252005a5020245c50043994
:100a4c005a50444b00229a621a000223117e19421a
:100a5c00fcd0404b81229a621a000223117e19426b
:100a6c00fcd03b4b8021490098229950043a202419
:100a7c009c509950374b693a9a621a000223117ea6
:100a8c001942fcd0324b9821802252005a5020241b
:100a9c005c5004395a502f4b00229a621a000223e0
:100aac00117e1942fcd02b4b03229a621a000223ae
:100abc00117e1942fcd0264b9821802252005a50ac
:100acc0020245c5004395a50224b00229a621a009e
:100adc000223117e1942fcd01e4b82229a621a000c
:100aec000223117e1942fcd0194b80214900982217
:100afc009950043a20249c509950164b683a9a62ab
:100b0c001a000223117e1942fcd0114b982180222d
:100b1c0052005a5020245c5004395a50050a802344
:100b2c00db010c4a1e3c6b3101409562107e204269
:100b3c00fcd09162107e2042fcd0013b9bb2002b7a
:100b4c00f3d1034a983380214900d15030bdc046bf
:080b5c000044004100080042c2
:020000040000fa
:100b640070b5504b586a504b9b7d002b54d04e4966
:100b74004c68072214404b4b5a699d699e680b7e52
:100b84005b0757d5896a474bdb68934252d9002cdf
:100b940043d1444b5b6899540132434b1b7edb07c2
:100ba40016d5414b012119753e4b9b68ab4256d972
:100bb4003c4b1b68595d3c4b99620135394b1b69b1
:100bc400002b01d1b54262d0364bdb68934262d030
:100bd400344b5a619d61344b1b7e9b0715d5334bb7
:100be4001b78002b18d02f4bdb68934211d12d4b6f
:100bf40000221a772c4907240c752c490a701b6aa9
:100c0400002b09d0274b1b6a9847284b1b78002bd5
:100c140002d0254b02229a7570bd224b5b685400aa
:100c2400e1520132204b1b7edb07d1d51e4b012143
:100c3400197508e01c4b1b7edb07c9d51a4b012133
:100c44001975002cb0d0174b9b68ab4213d9154bc8
:100c54001b686900c95a144b99620135aee7114b00
:100c64001b69002baad0104bff2199620d490b6917
:100c7400013b0b61a2e70b4b1b69002b9ed00a4b77
:100c84000b49996207490b69013b0b6196e7074bd6
:100c9400012119709ce7044b0121997503311975e1
:100ca40096e7c0465000002000080042b000002033
:040cb400ffff00003e
:020000040000fa
:100cb80070b500f0effc4d4c982380229200e25072
:100cc80000f018fb94232022e250d200e250484b57
:100cd800ff3a9a62190001320b7e1342fcd0434c52
:100ce80080256d009823e550782000f0c5fa9423fc
:100cf8002022e250e5503e4b0f3a9a6219000f3a13
:100d08000b7e1342fcd0394c80256d009823e550aa
:100d1800782000f0b1fa94232022e250e550344bb9
:100d28001a329a621900383a0b7e1342fcd02f4bc4
:100d38009821802252005a502020585004395a5085
:100d48002b4bfb3a9a621900033a0b7e1342fcd0f4
:100d5800264b8021490098229950043a2020985027
:100d68009950234b5e3a9a621900343a0b7e13422b
:100d7800fcd01e4b9821802252005a5020205850f7
:100d880004395a501a4b383a9a621900c63a0b7eff
:100d98001342fcd0154b8021490098229950043aff
:100da800202098509950124b813a9a621900113ab2
:100db8000b7e1342fcd00d4b80214900982299509c
:100dc800043a202098509950094b6b3a9a621900be
:100dd800273a0b7e1342fcd0044a9823802149000d
:100de800d1500a2000f048fa70bdc04600440041c6
:040df80000080042ad
:020000040000fa
:100dfc0010b5274b274a1a60274a1a610022422154
:100e0c005a544139442019540230195401301954a0
:100e1c000531053019540130195401301954013081
:100e2c001a54033019540130195422381a54013011
:100e3c0004241c540130185403301a5401301a5431
:100e4c0002301a544730154c1c501030144c1c50a6
:100e5c0030301a5401301a5403301a5401301a54d9
:100e6c0003301a5401301a540530195401301954f6
:100e7c000130195401301954aa315a5402315a54c0
:100e8c0002315a5403315a5401315a5410bdc046e0
:100e9c00004400410480000004700c003303000087
:040eac0010c103006e
:020000040000fa
:100eb0001d4b00229a619a8c80218a439a841a00e1
:100ec0001023d1680b42fcd0184b1b689b0e3f2ba4
:100ed00027d09b02802292001343134a936210236f
:100ee000d1680b42fcd0104b02229a841a001023c6
:100ef000d1680b42fcd00e4b0e4a5a601a00537850
:100f00005bb2002bfbdb0a4b0b4a5a800b4a5a8020
:100f10000b4a5a800b4b0c4a1a62034b00221a628e
:100f20007047203bd5e7c0460008004024608000a1
:100f3000000c004000070100144000001a400000af
:0c0f40001b4000000004004004090100f8
:020000040000fa
:100f4c00f0b585b0140003930aab1e880bab1d786b
:100f5c000cab1f78124b1870124b19701378002bb6
:100f6c0019d105b0f0bd0f4b19780d4b18780097bf
:100f7c0033002200fff75efa09e00a4b1978084ba0
:100f8c00187801970096039b2200fff7cffb0134e2
:100f9c002378002be5d0012de5d0002df7d1ece71f
:080fac00b2000020b300002098
:020000040000fa
:100fb400bff35f8f62b6124bc22080001a581149ea
:100fc4001140c02212020a431a50802292001a6071
:100fd40004301a581202120ac02109060a431a5090
:100fe400802212021a6004301a5807491140c022a4
:100ff40012040a431a508022d2021a607047c04673
:0c10040000e100e0ff00ffffffff00ff25
:020000040000fa
:1010100000230e4a10b513600d4a13600d4a136089
:101020000d4a13600d4a13600d4a53621361013378
:10103000936001f0cffb01f0cdfb0a4c0a4b9c42c0
:1010400000d310bd08cc9847f8e7c046ac0000209c
:101050000c000020080000200000002004000020f8
:0c10600010000020bc000000c0000000d8
:020000040000fa
:10106c00124b01221a6019008b681a42fcd10f4beb
:10107c00b82252011a600122da6301325a616932d4
:10108c001a64363a5a641d3a9a64da641a65084a44
:10109c00da62084a00211160802252029a6212021e
:1010ac001a621a009368002bfcd170470020004292
:0810bc000ff80f00a000002056
:020000040000fa
:1010c40010b5064c2378002b07d1054b002b02d01a
:1010d400044800e000bf0123237010bd7c00002001
:1010e4000000000000000000044b10b5002b03d0ea
:1010f4000349044800e000bf10bdc04600000000e2
:08110400800000200000000043
:020000040000fa
:10110c000e4b01221a801a00d37b5bb2002bfbdb47
:10111c000a4bac22d2001a80094a1a833b229a73da
:10112c00084a0021116001225a7312025a811a00d6
:10113c00d37b5bb2002bfbdb7047c046002c00421c
:08114c00ed02000098000020f4
:020000040000fa
:1011540010b50a4b98470a4b984700f05df8094bc5
:10116400ff229343084a9360084b9847084b9847db
:10117400084b984700f010f8fee7c046b31700008c
:10118400b31700000000000000ed00e011100000a3
:08119400b3170000b3170000bf
:020000040000fa
:10119c0000b585b0002000f057f800210b4801f095
:1011ac0001f8fff783fd0a48fff71afcfa208000cc
:1011bc0000f060f8012302930193002300931f3386
:1011cc00044a3c210a20fff7bbfefee7c9210000c0
:0811dc00ffff0000bc21000030
:020000040000fa
:1011e4000a4a0023136213779360d360084a53605a
:1011f400d369002bfcd1064b01221a73054a1a60ed
:101204001a00d369002bfcd17047c046500000205f
:08121400000800420e00010079
:020000040000fa
:10121c0010b50b480168002905d14368002b02d199
:10122c0001f0d1fa10bd04008368064a9bb20c345d
:10123c009b009b5842682000984780002018e9e7e3
:08124c00d00000008c17000027
:020000040000fa
:1012540010b5094b06225a60fff7cefdfff726feb4
:1012640000f09efffff700fffff7bafffff74cff08
:0c127400fff79efe10bdc0460040004188
:020000040000fa
:1012800010b5040000f05efa002c0ad006480021d8
:10129000020001701378002bfcd0013ca4b2002c9a
:0c12a000f7d100f05bfa10bdb100002097
:020000040000fa
:1012ac0010b5074b987bc0b23b229a73054b1b6859
:1012bc00002b03d0034b59681b68984710bdc046e0
:0812cc00002c004298000020f4
:020000040000fa
:1012d40010b5064a5168064bd86a064cdc62db6ad4
:1012e4001368002b01d01368984710bda00000209c
:0812f400002000420ff80f007a
:020000040000fa
:1012fc0070b5064c10259423e5503220fff7baff49
:10130c009823e5503220fff7b5ff70bd0044004133
:020000040000fa
:10131c00fff0fff0fff0cf70b6f0b6f0b5f0cdf007
:10132c00fb30fad0f6d0f6d0ef30fff0fff0fff044
:020000040000fa
:10133c00ff80ff80ff80e380dd80dd80db80e78045
:10134c00d780ba80bd80bc80c300ff80ff80ff8047
:020000040000fa
:10135c00fffcfffcfffcf03ccfdcbfecb8b47734f7
:10136c006fb46f746f6c6e6cb11cbff4cfccf03c6f
:020000040000fa
:10137c00ff80ff80ff80f780eb80eb80e980dd80d1
:10138c00dd808080be807f007f00ff80ff80ff803b
:020000040000fa
:10139c00ff80ff80ff808180be80be80be80818008
:1013ac00be80be80be80be808180ff80ff80ff80bb
:020000040000fa
:1013bc00ffc0ffc0ffc0e1c0dec0bf40bfc0bfc0a8
:1013cc00bfc0bfc0bf40dec0e1c0ffc0ffc0ffc098
:020000040000fa
:1013dc00ffc0ffc0ffc081c0bec0bf40bf40bf4008
:1013ec00bf40bf40bf40bec081c0ffc0ffc0ffc0f8
:020000040000fa
:1013fc00ff80ff80ff808080bf80bf80bf808080a7
:10140c00bf80bf80bf80bf808080ff80ff80ff8057
:020000040000fa
:10141c00ff80ff80ff808080bf80bf80bf80818085
:10142c00bf80bf80bf80bf80bf80ff80ff80ff80f8
:020000040000fa
:10143c00ffe0ffe0ffe0e0e0df60bfa0bfe0bfe067
:10144c00bc20bfa0bfa0df60e0e0ffe0ffe0ffe05a
:020000040000fa
:10145c00ff80ff80ff80be80be80be80be8080800b
:10146c00be80be80be80be80be80ff80ff80ff80bd
:020000040000fa
:10147c00ff80ff80ff80be80bd80bb80b780b780bf
:10148c00ab809d80bd80be80bf00ff80ff80ff8051
:020000040000fa
:10149c00ffe0ffe0ffe0bfa09f209f20aea0aea02a
:1014ac00b5a0b5a0b5a0bba0bba0ffe0ffe0ffe0de
:020000040000fa
:1014bc00ff80ff80ff80be809e80ae80ae80b680b5
:1014cc00b680ba80ba80bc80be80ff80ff80ff806f
:020000040000fa
:1014dc00ffe0ffe0ffe0e0e0df60bfa0bfa0bfa047
:1014ec00bfa0bfa0bfa0df60e0e0ffe0ffe0ffe037
:020000040000fa
:1014fc00ff80ff80ff808180be80be80be80be806a
:10150c008180bf80bf80bf80bf80ff80ff80ff8055
:020000040000fa
:10151c00ffe0ffe0ffe0e0e0df60bfa0bfa0bfa006
:10152c00bfa0bfa0bd60de60e120ffe0ffe0ffe0f8
:020000040000fa
:10153c00ffc0ffc0ffc080c0bf40bf40bf40bf4026
:10154c0080c0bbc0bdc0bec0bf40ffc0ffc0ffc09d
:020000040000fa
:10155c00ff80ff80ff80c180be80be80bf80c780bf
:10156c00f880fe80be80be80c180ff80ff80ff803f
:020000040000fa
:10157c00ff80ff80ff808080f780f780f780f78006
:10158c00f780f780f780f780f780ff80ff80ff807f
:020000040000fa
:10159c00ff80ff80ff80be80be80be80be80be808c
:1015ac00be80be80be80dd80e380ff80ff80ff8038
:020000040000fa
:1015bc00ff80ff80ff807f007f00be80be80dd80cb
:1015cc00dd80eb80eb80f780f780ff80ff80ff8071
:020000040000fa
:1015dc00fff8fff8fff87df07af0bae8bae8bae85d
:1015ec00d758d758d758efb8efb8fff8fff8fff82f
:020000040000fa
:1015fc00ff80ff80ff807f00be80dd80dd80eb8080
:10160c00f780f780f780f780f780ff80ff80ff80fe
:020000040000fa
:10161c00ffe0ffe0ffe0ffe0ffe0a46099a0bba0cb
:10162c00bba0bba0bba0bba0bba0ffe0ffe0ffe04a
:020000040000fa
:10163c00ff80ff80ff80ff80ff8077007700aa800b
:10164c00aa80aa80aa80dd80dd80ff80ff80ff80d9
:020000040000fa
:10165c0010b5054c054b9c4202d8fef72bfd10bd76
:10166c00043c23689847f5e7d0000000cc0000004c
:020000040000fa
:10167c00002310b5934206d103201840421e90411e
:0e168c009b08c01810bdc45ccc540133f2e7bb
:020000040000fa
:02169a00fee769
:020000040000fa
:10169c0010b5054a98230121d1500131d150962023
:0c16ac00fff7e8fd10bdc04600440041ff
:020000040000fa
:1016b800ff80ff80ff80dd80ab80ab80d580f2802b
:0c16c800ea80ed80ff80ff80ff80c046bc
:020000040000fa
:1016d400ffc0ffc0ffc0e0c0df40b280ac80ad807f
:0c16e400ad40b0c0df00e0c0ffc0c04659
:020000040000fa
:1016f000ff80ff80ff80be809c809c80aa80aa80a3
:0c170000aa80b680ff80ff80ff80c046fa
:020000040000fa
:10170c00ff80ff80ff8077006b00aa80aa80aa80f0
:0c171c00aa80dd80ff80ff80ff80c046b7
:020000040000fa
:10172800ff80ff80ff80ff80ff808180b680b680c9
:0c173800b680b680ff80ff80ff80c046b6
:020000040000fa
:10174400044a138802210b431380d37b5bb2002b22
:08175400fbdb7047002c004292
:020000040000fa
:10175c00044a138802218b431380d37b5bb2002b8a
:08176c00fbdb7047002c00427a
:020000040000fa
:1017740010b5040001f02df8fff76eff01f029f811
:06178400200001f01df839
:020000040000fa
:02178a00fee778
:020000040000fa
:10178c00a11700007d160000cb270000cb2700001e
:04179c00cb27000057
:020000040000fa
:1017a0008a18914201d10020704700230b7001314b
:0217b000f7e759
:020000040000fa
:0217b20070477e
:020000040000fa
:1017b400e0e0e0e0e0e0e0e0e0e0e0e0e000c046bf
:020000040000fa
:1017c400f0f0f0f0f0f0f0f0f0f0f0f0f0f0f0f015
:020000040000fa
:1017d400e0e0e0a0a0a0a0a0e0a0e0e0e000c0461f
:020000040000fa
:1017e400f8f8f8d8d8d8d8d8d8d8d8f8d8f8f8f895
:020000040000fa
:1017f400f0f0f0505050f0f0f0f0f0f0f000c0468f
:020000040000fa
:10180400f8f8f8a8a8a8a8f8f8f8f8f8f8f8f8f894
:020000040000fa
:10181400fcfcfcd4d404ac045c5cfcfcfc00c046c2
:020000040000fa
:10182400ffffffededeb00dbdb00b7b7b7ffffff1a
:020000040000fa
:10183400fcfcfc8c541cc4d4548cdcfcfc00c04662
:020000040000fa
:10184400ffffefc3ad6f6f8fe3eded6b87efffff2e
:020000040000fa
:10185400fefefec6b6ce9e687288fefefe00c04640
:020000040000fa
:10186400c0c0c0404040c0c0c0c0c0c0c000c0462e
:020000040000fa
:10187400e0e0e0a0a0a0a0e0e0e0e0e0e0e0e0e064
:020000040000fa
:10188400e0e0e0c0a06060606060a0c0e000c0462e
:020000040000fa
:10189400f8f8f8e8d8d8b8b8b8b8b8b8b8d8d8e824
:020000040000fa
:1018a400e0e0e060a0c0c0c0c0c0a060e000c046ee
:020000040000fa
:1018b400f8f8f8b8d8d8e8e8e8e8e8e8e8d8d8b814
:020000040000fa
:1018c400f0f0f010b050f0f0f0f0f0f0f000c0469e
:020000040000fa
:1018d400f8f8f8d800d8a8f8f8f8f8f8f8f8f8f80c
:020000040000fa
:1018e400fcfcfcfcdcdc04dcdcfcfcfcfc00c0469a
:020000040000fa
:1018f400fffffffffff7f7f780f7f7f7ffffffffa3
:020000040000fa
:10190400e0e0e0e0e0e0e0e0e0a0a0e0e000c046ed
:020000040000fa
:10191400f0f0f0f0f0f0f0f0f0f0f0f0d0d0d0f023
:020000040000fa
:10192400e0e0e0e0e0e0e020e0e0e0e0e000c0460d
:020000040000fa
:10193400f8f8f8f8f8f8f8f8f808f8f8f8f8f8f813
:020000040000fa
:10194400e0e0e0e0e0e0e0e0e0a0e0e0e000c0466d
:020000040000fa
:10195400f0f0f0f0f0f0f0f0f0f0f0f0d0f0f0f0a3
:020000040000fa
:10196400e0e0e0c0c0a0a0a06060e0e0e000c0460d
:020000040000fa
:10197400f0f0f0e0e0d0d0d0b0b0b07070f0f0f0a3
:020000040000fa
:10198400fcfcfc8c74747474748cfcfcfc00c04609
:020000040000fa
:10199400ffffffc3bdbdbdbdbdbdbdbdc3ffffffdb
:020000040000fa
:1019a400fcfcfcecccacececececfcfcfc00c04631
:020000040000fa
:1019b400fffffff7e7d7f7f7f7f7f7f7f7ffffffb3
:020000040000fa
:1019c400fcfcfc8c74f4ecdcbc04fcfcfc00c046a9
:020000040000fa
:1019d400ffffffc3bdbdfdfdfbf7efdf81ffffff91
:020000040000fa
:1019e400fcfcfc8c74f4ccf4748cfcfcfc00c04651
:020000040000fa
:1019f400ffffffc3bdbdfde3fdfdbdbdc3ffffff95
:020000040000fa
:101a0400fcfcfce4d4b47400f4f4fcfcfc00c0461c
:020000040000fa
:101a1400fffffffbf3ebdbdbbb7b01fbfbffffff0c
:020000040000fa
:101a2400fcfcfc84bc0c74f4748cfcfcfc00c04610
:020000040000fa
:101a3400ffffffc1dfbf83bdfdfdbdbbc3ffffffd4
:020000040000fa
:101a4400fcfcfc8c740c7474748cfcfcfc00c046b0
:020000040000fa
:101a5400ffffffe3ddbfbfa39dbdbdbdc3ffffff10
:020000040000fa
:101a6400fcfcfc04ececdcdcbcbcfcfcfc00c04678
:020000040000fa
:101a7400ffffff81fdfbfbf7f7f7efefefffffff42
:020000040000fa
:101a8400fcfcfc8c74748c74748cfcfcfc00c046f0
:020000040000fa
:101a9400ffffffc3bdbdbdc3bdbdbdbdc3ffffffd4
:020000040000fa
:101aa400fcfcfc8c74747484748cfcfcfc00c046d8
:020000040000fa
:101ab400ffffffc3bdbdbdb9c5fdfdbbc7ffffff34
:020000040000fa
:101ac400e0e0e0e0e0a0e0e0e0a0e0e0e000c0462c
:020000040000fa
:101ad400f0f0f0f0f0b0f0f0f0f0f0f0b0f0f0f082
:020000040000fa
:101ae400e0e0e0e0e0a0e0e0e0a0a0e0e000c0464c
:020000040000fa
:101af400f0f0f0f0f0b0f0f0f0f0f0f0b0b0b0f0e2
:020000040000fa
:101b0400fcfcfcfcf4ccbcccf4fcfcfcfc00c046af
:020000040000fa
:101b1400fffffffffffdf3cfbfcff3fdffffffff8d
:020000040000fa
:101b2400fcfcfcfcfc04fc04fcfcfcfcfc00c046cf
:020000040000fa
:101b3400ffffffffffff81ffff81ffffffffffffad
:020000040000fa
:101b4400fcfcfcfcbcccf4ccbcfcfcfcfc00c046a7
:020000040000fa
:101b5400ffffffffffbfcff3fdf3cfbfffffffff8b
:020000040000fa
:101b6400fcfcfc8478f8e4ecfcecfcfcfc00c046d7
:020000040000fa
:101b7400ffffffc3bdbdfdfbf7efefffefffffff6f
:020000040000fa
:101b8400fefefeeed6d6ba82ba7cfefefe00c0464b
:020000040000fa
:101b9400fefefe86baba82baba86fefefe00c046d1
:020000040000fa
:101ba400fefefec6babebebebac6fefefe00c046fd
:020000040000fa
:101bb400fefefe8eb6bababab68efefefe00c04671
:020000040000fa
:101bc400fefefe82bebe82bebe82fefefe00c04699
:020000040000fa
:101bd400fcfcfc84bcbc8cbcbcbcfcfcfc00c04657
:020000040000fa
:101be400ffffffe7dbbfb1bddbe7ffffff00c04640
:020000040000fa
:101bf400fefefebababa82bababafefefe00c04609
:020000040000fa
:101c0400e0e0e0a0a0a0a0a0a0a0e0e0e000c0462a
:020000040000fa
:101c1400e0e0e0a0a0a0a0a0a0a0a0a0a0e0e0e040
:020000040000fa
:101c2400f8f8f8e8e8e8e8e86818f8f8f800c046d2
:020000040000fa
:101c3400fcfcfcf4f4f4f4f4f4f474748cfcfcfc98
:020000040000fa
:101c4400fefefebab6aeae96babcfefefe00c046be
:020000040000fa
:101c5400fcfcfcbcbcbcbcbcbc80fcfcfc00c046aa
:020000040000fa
:101c6400ffffffbfbfbfbfbfbfbfbfbf80ffffff3f
:020000040000fa
:101c7400fefefeba9a9aaab2b2bafefefe00c046b0
:020000040000fa
:101c8400ffffffc3bdbdbdbdbdc3ffffff00c04619
:020000040000fa
:101c9400fefefe86baba86bebebefefefe00c0468c
:020000040000fa
:101ca400ffffffc3bdbdbdbdb3c1ffffff00c04605
:020000040000fa
:101cb400fefefe86baba86b6babafefefe00c0467c
:020000040000fa
:101cc400fefefec6babec6fabac6fefefe00c04698
:020000040000fa
:101cd400fefefe82eeeeeeeeeeeefefefe00c046f0
:020000040000fa
:101ce400fefefebabababababac6fefefe00c046d4
:020000040000fa
:101cf400fefefe7cbababad6d6eefefefe00c046a2
:020000040000fa
:101d0400fefefebad6eeeed6ba7cfefefe00c0465d
:020000040000fa
:101d1400ffffff7ebdbddbe7e7dbbdbd7effffff51
:020000040000fa
:101d2400fefefe7cbad6eeeeeeeefefefe00c046f1
:020000040000fa
:101d3400fcfcfc00f0e4cc9c7c00fcfcfc00c046f9
:020000040000fa
:101d4400ffffff80fdfbfbf7efdfdfbf00ffffffbf
:020000040000fa
:101d5400e0e0e080a0a0a0a0a0a0a080e000c04699
:020000040000fa
:101d6400f0f0f090b0b0b0b0b0b0b0b0b0b0b090ef
:020000040000fa
:101d7400e0e0e06060a0a0a0c0c0e0e0e000c046f9
:020000040000fa
:101d8400f0f0f07070b0b0b0d0d0d0e0e0f0f0f08f
:020000040000fa
:101d9400e0e0e020a0a0a0a0a0a0a020e000c04619
:020000040000fa
:101da400f0f0f090d0d0d0d0d0d0d0d0d0d0d0904f
:020000040000fa
:101db400f8f8f8d8a8a870f8f8f8f8f8f800c046c9
:020000040000fa
:101dc400f8f8f8d8a8a8a870f8f8f8f8f8f8f8f827
:020000040000fa
:101dd400fcfcfcfcfcfcfcfcfcfcfc00fc00c04629
:020000040000fa
:101de400ffffffffffffffffffffffffffffff00fe
:020000040000fa
:101df400e0e0e060a0e0e0e0e0e0e0e0e000c04639
:020000040000fa
:101e0400f8f8f8b8d8f8f8f8f8f8f8f8f8f8f8f8ae
:020000040000fa
:101e1400fcfcfcfcfcc4f4c4b484fcfcfc00c04624
:020000040000fa
:101e2400ffffffffffc3bdfde1ddbdb9c5ffffff40
:020000040000fa
:101e3400fcfcfcbcbc8cb4b4b48cfcfcfc00c04604
:020000040000fa
:101e4400ffffffbfbfa39dbdbdbdbd9da3ffffffa2
:020000040000fa
:101e5400f8f8f8f8f8c8b0b8b0c8f8f8f800c04610
:020000040000fa
:101e6400fefefefefec6babebebebebac6fefefe86
:020000040000fa
:101e7400fcfcfcf4f4c4b4b4b4c4fcfcfc00c046e4
:020000040000fa
:101e8400fffffffdfdc5b9bdbdbdbdb9c5ffffff6a
:020000040000fa
:101e9400fcfcfcfcfcccb484bcc4fcfcfc00c046d4
:020000040000fa
:101ea400ffffffffffc3bdbd81bfbfbdc3ffffff7a
:020000040000fa
:101eb400e0e0e0c0a000a0a0a0a0e0e0e000c046f8
:020000040000fa
:101ec400f0f0f0c0b000b0b0b0b0b0b0b0f0f0f02e
:020000040000fa
:101ed400fcfcfcfcfcc4b4b4b4c4b4ccfc00c046ec
:020000040000fa
:101ee400ffffffffffc5b9bdbdbdbdb9c5fdbdc386
:020000040000fa
:101ef400fcfcfcbcbc8cb4b4b4b4fcfcfc00c0461c
:020000040000fa
:101f0400ffffffbfbfa39dbdbdbdbdbdbdffffffa7
:020000040000fa
:101f1400e0e0e0a0e0a0a0a0a0a0e0e0e000c046d7
:020000040000fa
:101f2400e0e0e0a0e0a0a0a0a0a0a0a0a0e0e0e0ed
:020000040000fa
:101f3400e0e0e0a0e0a0a0a0a0a0a060e000c04677
:020000040000fa
:101f4400e0e0e0a0e0a0a0a0a0a0a0a0a0a0a060cd
:020000040000fa
:101f5400f0f0f070706050105060f0f0f000c04687
:020000040000fa
:101f6400fefefebebebcbab6ae96bababcfefefe5d
:020000040000fa
:101f7400e0e0e0a0a0a0a0a0a0a0e0e0e000c046b7
:020000040000fa
:101f8400e0e0e0a0a0a0a0a0a0a0a0a0a0e0e0e0cd
:020000040000fa
:101f9400fcfcfcfcfc8cb4b4b4b4fcfcfc00c046fb
:020000040000fa
:101fa400ffffffffffa39dbdbdbdbdbdbdffffff87
:020000040000fa
:101fb400fcfcfcfcfcccb4b4b4ccfcfcfc00c04683
:020000040000fa
:101fc400ffffffffffc3bdbdbdbdbdbdc3ffffff21
:020000040000fa
:101fd400fcfcfcfcfc8cb4b4b48cbcbcfc00c04663
:020000040000fa
:101fe400ffffffffffa39dbdbdbdbd9da3bfbfbf41
:020000040000fa
:101ff400fcfcfcfcfcc4b4b4b4c4f4f4fc00c04663
:020000040000fa
:10200400ffffffffffc5b9bdbdbdbdb9c5fdfdfdea
:020000040000fa
:10201400e0e0e0e0e080a0a0a0a0e0e0e000c046b6
:020000040000fa
:10202400f8f8f8f8f8a098b8b8b8b8b8b8f8f8f864
:020000040000fa
:10203400f0f0f0f0f0807090e010f0f0f000c046a6
:020000040000fa
:10204400fefefefefec6babec6fafabac6fefefe24
:020000040000fa
:10205400e0e0e0a0a000a0a0a080e0e0e000c04696
:020000040000fa
:10206400f0f0f0b0b000b0b0b0b0b0b080f0f0f0cc
:020000040000fa
:10207400fcfcfcfcfcb4b4b4b4c4fcfcfc00c046e2
:020000040000fa
:10208400ffffffffffbdbdbdbdbdbdb9c5ffffff68
:020000040000fa
:10209400f8f8f8f8f870a8a8a8d8f8f8f800c04636
:020000040000fa
:1020a400fefefefefe7c7cbabad6d6eeeefefefe48
:020000040000fa
:1020b400fefefefefe6c545454bafefefe00c04604
:020000040000fa
:1020c400f8f8f8f8f870a8d8a870f8f8f800c0463e
:020000040000fa
:1020d400fcfcfcfcfc78b4b4ccccb4b478fcfcfcc4
:020000040000fa
:1020e400f8f8f8f8f870a8a8a8d8d8b8f800c04646
:020000040000fa
:1020f400fefefefefe7c7cbabad6d6d6eeeeee9e90
:020000040000fa
:10210400f8f8f8f8f800e8d8b800f8f8f800c0468d
:020000040000fa
:10211400fcfcfcfcfc00f4ececdcdcbc00fcfcfc9b
:020000040000fa
:10212400e0e0e080a0a0a060a0a0a080e000c04605
:020000040000fa
:10213400f8f8f8e8d8d8d8d8d8b8d8d8d8d8d8e8bb
:020000040000fa
:10214400e0e0e0a0a0a0a0a0a0a0a0a0e000c04665
:020000040000fa
:10215400e0e0e0a0a0a0a0a0a0a0a0a0a0a0a0a0bb
:020000040000fa
:10216400e0e0e020a0a0a0c0a0a0a020e000c04625
:020000040000fa
:10217400f8f8f8b8d8d8d8d8d8e8d8d8d8d8d8b8ab
:020000040000fa
:10218400fcfcfcfcfcfc1444fcfcfcfcfc00c04619
:020000040000fa
:10219400ffffffffffffff8d61ffffffffffffff5b
:020000040000fa
:0c21a400014b82225a607047004000414d
:020000040000fa
:0c21b000014b1860596070479800002037
:020000040000fa
:0c21bc0048656c6c6f20576f726c6400fb
:020000040000fa
:0c21c800014b01221a707047b10000208a
:020000040000fa
:0821d400b4170000030d000028
:020000040000fa
:0821dc00c4170000041000000c
:020000040000fa
:0821e400d4170000030d0000f8
:020000040000fa
:0821ec00e417000005100000db
:020000040000fa
:0821f400f4170000040d0000c7
:020000040000fa
:0821fc000418000005100000aa
:020000040000fa
:0822040014180000060d000093
:020000040000fa
:08220c00241800000810000076
:020000040000fa
:0822140034180000060d000063
:020000040000fa
:08221c00441800000810000046
:020000040000fa
:08222400b8160000090d0000ce
:020000040000fa
:08222c001c1300000c1000005f
:020000040000fa
:0822340054180000070d000022
:020000040000fa
:08223c003c1300000910000032
:020000040000fa
:0822440064180000020d000007
:020000040000fa
:08224c007418000003100000eb
:020000040000fa
:0822540084180000030d0000d6
:020000040000fa
:08225c009418000005100000b9
:020000040000fa
:08226400a4180000030d0000a6
:020000040000fa
:08226c00b41800000510000089
:020000040000fa
:08227400c4180000040d000075
:020000040000fa
:08227c00d41800000510000059
:020000040000fa
:08228400e4180000060d000043
:020000040000fa
:08228c00f41800000810000026
:020000040000fa
:0822940004190000030d000015
:020000040000fa
:08229c001419000004100000f9
:020000040000fa
:0822a40024190000030d0000e5
:020000040000fa
:0822ac003419000005100000c8
:020000040000fa
:0822b40044190000030d0000b5
:020000040000fa
:0822bc00541900000410000099
:020000040000fa
:0822c40064190000030d000085
:020000040000fa
:0822cc00741900000410000069
:020000040000fa
:0822d40084190000060d000052
:020000040000fa
:0822dc00941900000810000035
:020000040000fa
:0822e400a4190000060d000022
:020000040000fa
:0822ec00b41900000810000005
:020000040000fa
:0822f400c4190000060d0000f2
:020000040000fa
:0822fc00d419000008100000d5
:020000040000fa
:08230400e4190000060d0000c1
:020000040000fa
:08230c00f419000008100000a4
:020000040000fa
:08231400041a0000060d000090
:020000040000fa
:08231c00141a00000810000073
:020000040000fa
:08232400241a0000060d000060
:020000040000fa
:08232c00341a00000810000043
:020000040000fa
:08233400441a0000060d000030
:020000040000fa
:08233c00541a00000810000013
:020000040000fa
:08234400641a0000060d000000
:020000040000fa
:08234c00741a000008100000e3
:020000040000fa
:08235400841a0000060d0000d0
:020000040000fa
:08235c00941a000008100000b3
:020000040000fa
:08236400a41a0000060d0000a0
:020000040000fa
:08236c00b41a00000810000083
:020000040000fa
:08237400c41a0000030d000073
:020000040000fa
:08237c00d41a00000410000057
:020000040000fa
:08238400e41a0000030d000043
:020000040000fa
:08238c00f41a00000410000027
:020000040000fa
:08239400041b0000060d00000f
:020000040000fa
:08239c00141b000008100000f2
:020000040000fa
:0823a400241b0000060d0000df
:020000040000fa
:0823ac00341b000008100000c2
:020000040000fa
:0823b400441b0000060d0000af
:020000040000fa
:0823bc00541b00000810000092
:020000040000fa
:0823c400641b0000060d00007f
:020000040000fa
:0823cc00741b00000810000062
:020000040000fa
:0823d400d41600000a0d000000
:020000040000fa
:0823dc005c1300000e1000006c
:020000040000fa
:0823e400841b0000070d00003e
:020000040000fa
:0823ec007c1300000910000041
:020000040000fa
:0823f400941b0000070d00001e
:020000040000fa
:0823fc009c1300000910000011
:020000040000fa
:08240400a41b0000070d0000fd
:020000040000fa
:08240c00bc1300000a100000df
:020000040000fa
:08241400b41b0000070d0000dd
:020000040000fa
:08241c00dc1300000a100000af
:020000040000fa
:08242400c41b0000070d0000bd
:020000040000fa
:08242c00fc1300000910000080
:020000040000fa
:08243400d41b0000060d00009e
:020000040000fa
:08243c001c140000091000004f
:020000040000fa
:08244400e41b0000080d00007c
:020000040000fa
:08244c003c1400000b1000001d
:020000040000fa
:08245400f41b0000070d00005d
:020000040000fa
:08245c005c14000009100000ef
:020000040000fa
:08246400041c0000030d000040
:020000040000fa
:08246c00141c00000310000025
:020000040000fa
:08247400241c0000050d00000e
:020000040000fa
:08247c00341c000006100000f2
:020000040000fa
:08248400441c0000070d0000dc
:020000040000fa
:08248c007c140000091000009f
:020000040000fa
:08249400541c0000060d0000bd
:020000040000fa
:08249c00641c000008100000a0
:020000040000fa
:0824a400f0160000090d000014
:020000040000fa
:0824ac009c1400000b1000005d
:020000040000fa
:0824b400741c0000070d00007c
:020000040000fa
:0824bc00bc140000091000002f
:020000040000fa
:0824c400841c0000080d00005b
:020000040000fa
:0824cc00dc1400000b100000fd
:020000040000fa
:0824d400941c0000070d00003c
:020000040000fa
:0824dc00fc14000009100000cf
:020000040000fa
:0824e400a41c0000080d00001b
:020000040000fa
:0824ec001c1500000b1000009c
:020000040000fa
:0824f400b41c0000070d0000fc
:020000040000fa
:0824fc003c1500000a1000006d
:020000040000fa
:08250400c41c0000070d0000db
:020000040000fa
:08250c005c150000091000003d
:020000040000fa
:08251400d41c0000070d0000bb
:020000040000fa
:08251c007c150000091000000d
:020000040000fa
:08252400e41c0000070d00009b
:020000040000fa
:08252c009c15000009100000dd
:020000040000fa
:08253400f41c0000070d00007b
:020000040000fa
:08253c00bc15000009100000ad
:020000040000fa
:082544000c170000090d000056
:020000040000fa
:08254c00dc1500000d10000079
:020000040000fa
:08255400041d0000070d00004a
:020000040000fa
:08255c00141d0000081000002e
:020000040000fa
:08256400241d0000070d00001a
:020000040000fa
:08256c00fc150000091000003d
:020000040000fa
:08257400341d0000060d0000fb
:020000040000fa
:08257c00441d000008100000de
:020000040000fa
:08258400541d0000030d0000ce
:020000040000fa
:08258c00641d000004100000b2
:020000040000fa
:08259400741d0000030d00009e
:020000040000fa
:08259c00841d00000410000082
:020000040000fa
:0825a400941d0000030d00006e
:020000040000fa
:0825ac00a41d00000410000052
:020000040000fa
:0825b400b41d0000050d00003c
:020000040000fa
:0825bc00c41d00000510000021
:020000040000fa
:0825c400d41d0000060d00000b
:020000040000fa
:0825cc00e41d000008100000ee
:020000040000fa
:0825d400f41d0000030d0000de
:020000040000fa
:0825dc00041e000005100000c0
:020000040000fa
:0825e400141e0000060d0000aa
:020000040000fa
:0825ec00241e0000081000008d
:020000040000fa
:0825f400341e0000060d00007a
:020000040000fa
:0825fc00441e0000081000005d
:020000040000fa
:08260400541e0000050d00004a
:020000040000fa
:08260c00641e0000071000002d
:020000040000fa
:08261400741e0000060d000019
:020000040000fa
:08261c00841e000008100000fc
:020000040000fa
:08262400941e0000060d0000e9
:020000040000fa
:08262c00a41e000008100000cc
:020000040000fa
:08263400b41e0000030d0000bc
:020000040000fa
:08263c00c41e000004100000a0
:020000040000fa
:08264400d41e0000060d000089
:020000040000fa
:08264c00e41e0000081000006c
:020000040000fa
:08265400f41e0000060d000059
:020000040000fa
:08265c00041f0000081000003b
:020000040000fa
:08266400141f0000030d00002b
:020000040000fa
:08266c00241f00000310000010
:020000040000fa
:08267400341f0000030d0000fb
:020000040000fa
:08267c00441f000003100000e0
:020000040000fa
:08268400541f0000040d0000ca
:020000040000fa
:08268c00641f000007100000ac
:020000040000fa
:08269400741f0000030d00009b
:020000040000fa
:08269c00841f00000310000080
:020000040000fa
:0826a40028170000090d0000d9
:020000040000fa
:0826ac001c1600000b100000d9
:020000040000fa
:0826b400941f0000060d000058
:020000040000fa
:0826bc00a41f0000081000003b
:020000040000fa
:0826c400b41f0000060d000028
:020000040000fa
:0826cc00c41f0000081000000b
:020000040000fa
:0826d400d41f0000060d0000f8
:020000040000fa
:0826dc00e41f000008100000db
:020000040000fa
:0826e400f41f0000060d0000c8
:020000040000fa
:0826ec000420000008100000aa
:020000040000fa
:0826f40014200000030d00009a
:020000040000fa
:0826fc0024200000051000007d
:020000040000fa
:0827040034200000040d000068
:020000040000fa
:08270c0044200000071000004a
:020000040000fa
:0827140054200000030d000039
:020000040000fa
:08271c0064200000041000001d
:020000040000fa
:0827240074200000060d000006
:020000040000fa
:08272c008420000008100000e9
:020000040000fa
:0827340094200000050d0000d7
:020000040000fa
:08273c00a420000007100000ba
:020000040000fa
:08274400b4200000070d0000a5
:020000040000fa
:08274c003c160000091000001a
:020000040000fa
:08275400c4200000050d000087
:020000040000fa
:08275c00d4200000061000006b
:020000040000fa
:08276400e4200000050d000057
:020000040000fa
:08276c00f4200000071000003a
:020000040000fa
:0827740004210000050d000026
:020000040000fa
:08277c0014210000061000000a
:020000040000fa
:0827840024210000030d0000f8
:020000040000fa
:08278c003421000005100000db
:020000040000fa
:0827940044210000030d0000c8
:020000040000fa
:08279c005421000003100000ad
:020000040000fa
:0827a40064210000030d000098
:020000040000fa
:0827ac0074210000051000007b
:020000040000fa
:0827b40084210000060d000065
:020000040000fa
:0827bc00942100000810000048
:020000040000fa
:0627c40010b500f003f85f
:020000040000fa
:0427ca000020704734
:020000040000fa
:0227ce00fee724
:020000040000fa
:0227d000fee722
:020000040000fa
:0227d20070474e
:020000040000fa
:0227d40070474c
:020000040000fa
:0227d60070474a
:020000040000fa
:0200000400807a
:0440000077c700d8a6
:020000040000fa
:0200000400807a
:044004005c00ffff5e
:00000001FF
