:020000040000fa
:10000000f07f002045080000370a0000ab0a00001e
:1000100000000000000000000000000000000000e0
:10002000000000000000000000000000d70a0000ef
:100030000000000000000000d70a0000d70a0000fe
:10004000d70a0000d70a0000d70a0000d70a00002c
:10005000d70a0000d70a0000d70a0000d70a00001c
:10006000d70a000049020000d70a0000d70a0000a2
:10007000d70a0000d70a0000d70a0000ad09000027
:10008000d70a0000d70a000085090000d70a00003f
:10009000d70a0000d70a0000d70a0000d70a0000dc
:1000a000d70a0000d70a0000d70a0000d70a0000cc
:020000040000fa
:1000b000f8b5c046f8bc08bc9e467047dd07000096
:1000c000f8b5c046f8bc08bc9e467047b5070000ae
:020000040000fa
:1000d00030b55b4a94232021d150c900d150594bef
:1000e0002a229a621a000223117e1942fcd0544b34
:1000f0009821802252005a5020245c5004395a50d2
:10010000504b00229a621a000223117e1942fcd041
:100110004c4b02229a621a000223117e1942fcd033
:10012000474b9821802252005a5020245c500439b9
:100130005a50444b00229a621a000223117e19423f
:10014000fcd0404b81229a621a000223117e194290
:10015000fcd03b4b8021490098229950043a20243e
:100160009c509950374b693a9a621a000223117ecb
:100170001942fcd0324b9821802252005a50202440
:100180005c5004395a502f4b00229a621a00022305
:10019000117e1942fcd02b4b01229a621a000223d5
:1001a000117e1942fcd0264b9821802252005a50d1
:1001b00020245c5004395a50224b00229a621a00c3
:1001c0000223117e1942fcd01e4b80229a621a0033
:1001d0000223117e1942fcd0194b8021490098223c
:1001e0009950043a20249c509950164b683a9a62d0
:1001f0001a000223117e1942fcd0114b9821802253
:1002000052005a5020245c5004395a50050a802369
:10021000db010c4a1e3c6b3101409562107e20428e
:10022000fcd09162107e2042fcd0013b9bb2002b9f
:10023000f3d1034a983380214900d15030bdc046e4
:080240000044004100080042e7
:020000040000fa
:1002480070b5504b586a504b9b7d002b54d04e498b
:100258004c68072214404b4b5a699d699e680b7e77
:100268005b0757d5896a474bdb68934252d9002c04
:1002780043d1444b5b6899540132434b1b7edb07e7
:1002880016d5414b012119753e4b9b68ab4256d997
:100298003c4b1b68595d3c4b99620135394b1b69d6
:1002a800002b01d1b54262d0364bdb68934262d055
:1002b800344b5a619d61344b1b7e9b0715d5334bdc
:1002c8001b78002b18d02f4bdb68934211d12d4b94
:1002d80000221a772c4907240c752c490a701b6ace
:1002e800002b09d0274b1b6a9847284b1b78002bfb
:1002f80002d0254b02229a7570bd224b5b685400d0
:10030800e1520132204b1b7edb07d1d51e4b012168
:10031800197508e01c4b1b7edb07c9d51a4b012158
:100328001975002cb0d0174b9b68ab4213d9154bed
:100338001b686900c95a144b99620135aee7114b25
:100348001b69002baad0104bff2199620d490b693c
:10035800013b0b61a2e70b4b1b69002b9ed00a4b9c
:100368000b49996207490b69013b0b6196e7074bfb
:10037800012119709ce7044b012199750331197506
:1003880096e7c0465000002000080042b000002058
:04039800ffff000063
:020000040000fa
:10039c0070b500f04bfb4d4c982380229200e2503c
:1003ac0000f024fb94232022e250d200e250484b70
:1003bc00ff3a9a62190001320b7e1342fcd0434c77
:1003cc0080256d009823e550782000f0bffa942327
:1003dc002022e250e5503e4b0f3a9a6219000f3a38
:1003ec000b7e1342fcd0394c80256d009823e550d0
:1003fc00782000f0abfa94232022e250e550344be5
:10040c001a329a621900383a0b7e1342fcd02f4be9
:10041c009821802252005a502020585004395a50aa
:10042c002b4bfb3a9a621900033a0b7e1342fcd019
:10043c00264b8021490098229950043a202098504c
:10044c009950234b5e3a9a621900343a0b7e134250
:10045c00fcd01e4b9821802252005a50202058501c
:10046c0004395a501a4b00229a62190002320b7e40
:10047c001342fcd0154b8021490098229950043a24
:10048c00202098509950124b813a9a621900113ad7
:10049c000b7e1342fcd00d4b8021490098229950c1
:1004ac00043a202098509950094b6b3a9a621900e3
:1004bc00273a0b7e1342fcd0044a98238021490032
:1004cc00d1500a2000f042fa70bdc04600440041f1
:0404dc0000080042d2
:020000040000fa
:1004e00010b5284b284a1a60284a1a610022422176
:1004f0005a544139442019540230195401301954c6
:1005000005310530195401301954013019540130a6
:100510001a54033019540130195401301954233836
:100520001a54013004241c540130185403301a5456
:1005300001301a5402301a5401301a544630144c07
:100540001c501030134c1c5030301a5401301a54c7
:1005500003301a5401301a5403301a5401301a541b
:10056000063019540130195401301954aa315a5423
:1005700002315a5402315a5403315a5401315a54f7
:1005800010bdc046004400410480000004701c00ff
:08059000330300001081030099
:020000040000fa
:100598001d4b00229a619a8c80218a439a841a0002
:1005a8001023d1680b42fcd0184b1b689b0e3f2bc5
:1005b80027d09b02802292001343134a9362102390
:1005c800d1680b42fcd0104b02229a841a001023e7
:1005d800d1680b42fcd00e4b0e4a5a601a00537871
:1005e8005bb2002bfbdb0a4b0b4a5a800b4a5a8042
:1005f8000b4a5a800b4b0c4a1a62034b00221a62b0
:100608007047203bd5e7c0460008004024608000c2
:10061800000c004000070100144000001a400000d0
:0c0628001b400000000400400409010019
:020000040000fa
:100634007c0000201c00000000000000b00000202e
:100644000100000000000000500000202c00000009
:1006540000000000980000201000000000000000ce
:10066400b10000200100000000000000a8000020ec
:100674000400000000000000000000205000000002
:1006840000000000ac000020040000000000000096
:100694000000000000000000666666666666666626
:020000040000fa
:1006a400bff35f8f62b6124bc22080001a58114903
:1006b4001140c02212020a431a50802292001a608a
:1006c40004301a581202120ac02109060a431a50a9
:1006d400802212021a6004301a5807491140c022bd
:1006e40012040a431a508022d2021a607047c0468c
:0c06f40000e100e0ff00ffffffff00ff3f
:020000040000fa
:1007000000230e4a10b513600d4a13600d4a1360a2
:100710000d4a13600d4a13600d4a53621361013391
:10072000936000f0daf900f0d8f90a4c0a4b9c42c9
:1007300000d310bd08cc9847f8e7c046ac000020b5
:100740000c00002008000020000000200400002011
:0c07500010000020bc000000c0000000f1
:020000040000fa
:10075c00124b01221a6019008b681a42fcd10f4b04
:10076c00b82252011a600122da6301325a616932ed
:10077c001a64363a5a641d3a9a64da641a65084a5d
:10078c00da62084a00211160802252029a62120237
:10079c001a621a009368002bfcd1704700200042ab
:0807ac000ff80f00a00000206f
:020000040000fa
:1007b40010b5064c2378002b07d1054b002b02d033
:1007c400044800e000bf0123237010bd7c0000201a
:1007d4000000000000000000044b10b5002b03d003
:1007e4000349044800e000bf10bdc04600000000fb
:0807f40080000020000000005d
:020000040000fa
:1007fc000e4b01221a801a00d37b5bb2002bfbdb61
:10080c000a4bac22d2001a80094a1a833b229a73f3
:10081c00084a0021116001225a7312025a811a00ef
:10082c00d37b5bb2002bfbdb7047c046002c004235
:08083c00ed020000980000200d
:020000040000fa
:1008440010b50a4b98470a4b984700f039f8094b02
:10085400ff229343084a9360084b9847084b9847f4
:10086400084b984700f048f8fee7c046d50a000058
:10087400d50a00000000000000ed00e001070000c0
:08088400d50a0000d50a0000ae
:020000040000fa
:10088c000a4a0023136213779360d360084a5360bb
:10089c00d369002bfcd1064b01221a73054a1a604e
:1008ac001a00d369002bfcd17047c04650000020c1
:0808bc00000800420e000100db
:020000040000fa
:1008c40010b50b480168002905d14368002b02d1fb
:1008d40000f000f910bd04008368064a9bb20c3492
:1008e4009b009b5842682000984780002018e9e745
:0808f40034060000840a000034
:020000040000fa
:1008fc0010b5002000f014f80021074800f0d6f8dd
:10090c00fff746fd0548fff7ddfbfa20800000f0fd
:10091c001df800f059f8fee7c50a0000ffff0000c3
:020000040000fa
:10092c0010b5094b06225a60fff7d4fdfff72efed7
:10093c0000f0b6f8fff70cfffff7a2fffff758ff28
:0c094c00fff7aafe10bdc04600400041ad
:020000040000fa
:1009580010b5040000f07af8002c0ad006480021ef
:10096800020001701378002bfcd0013ca4b2002ccb
:0c097800f7d100f077f810bdb1000020ae
:020000040000fa
:1009840010b5074b987bc0b23b229a73054b1b688a
:10099400002b03d0034b59681b68984710bdc04611
:0809a400002c00429800002025
:020000040000fa
:1009ac0010b5064a5168064bd86a064cdc62db6a05
:1009bc001368002b01d01368984710bda0000020cd
:0809cc00002000420ff80f00ab
:020000040000fa
:1009d40070b5074d942410232b519620fff7baffce
:1009e40001232b5101332b511b022b5170bdc046e7
:0409f400004400417a
:020000040000fa
:1009f80070b5064c10259423e5503220fff7a8ff68
:100a08009823e5503220fff7a3ff70bd0044004152
:020000040000fa
:100a1800002310b5934206d103201840421e90418e
:0e0a28009b08c01810bdc45ccc540133f2e72b
:020000040000fa
:020a3600fee7d9
:020000040000fa
:100a380010b5054a98230121d1500131d150962093
:0c0a4800fff786ff10bdc04600440041cf
:020000040000fa
:100a5400044a138802210b431380d37b5bb2002b1f
:080a6400fbdb7047002c00428f
:020000040000fa
:100a6c00044a138802218b431380d37b5bb2002b87
:080a7c00fbdb7047002c004277
:020000040000fa
:100a8400990a0000190a0000d10a0000d10a0000e6
:040a9400d10a000083
:020000040000fa
:100a98008a18914201d10020704700230b70013160
:020aa800f7e76e
:020000040000fa
:020aaa00fee765
:020000040000fa
:0c0aac00014b82225a607047004000415c
:020000040000fa
:0c0ab800014b1860596070479800002046
:020000040000fa
:0c0ac400014b01221a707047b1000020a5
:020000040000fa
:040ad000002070474b
:020000040000fa
:020ad400704769
:020000040000fa
:020ad600fee739
:020000040000fa
:020ad800704765
:020000040000fa
:020ada00704763
:020000040000fa
:0200000400807a
:0440000077c700d8a6
:020000040000fa
:0200000400807a
:044004005c00ffff5e
:00000001FF
