:020000040000fa
:10000000f07f0020d1070000c3090000370a00007c
:1000100000000000000000000000000000000000e0
:10002000000000000000000000000000630a000063
:100030000000000000000000630a0000630a0000e6
:10004000630a0000630a0000630a0000630a0000fc
:10005000630a0000630a0000630a0000630a0000ec
:10006000630a000039020000630a0000630a00000e
:10007000630a0000630a0000630a000039090000f7
:10008000630a0000630a000011090000630a00000f
:10009000630a0000630a0000630a0000630a0000ac
:1000a000630a0000630a0000630a0000630a00009c
:020000040000fa
:1000b000f8b5c046f8bc08bc9e467047690700000a
:1000c000f8b5c046f8bc08bc9e4670474107000022
:020000040000fa
:1000d00030b5574a94230821d1501831d150554b8f
:1000e0002a229a621a000223117e1942fcd0504b38
:1000f000982120225a5008245c5004395a504d4b04
:1001000000229a621a000223117e1942fcd0494b48
:1001100002229a621a000223117e1942fcd0444b3b
:10012000982120225a5008245c5004395a50414bdf
:1001300000229a621a000223117e1942fcd03d4b24
:1001400081229a621a000223117e1942fcd0384b98
:10015000202198229950043a08249c509950354bfc
:10016000693a9a621a000223117e1942fcd0304b80
:10017000982120225a5008245c5004395a502d4ba3
:1001800000229a621a000223117e1942fcd0294be8
:1001900001229a621a000223117e1942fcd0244bdc
:1001a000982120225a5008245c5004395a50214b7f
:1001b00000229a621a000223117e1942fcd01d4bc4
:1001c00080229a621a000223117e1942fcd0184b39
:1001d000202198229950043a08249c509950154b9c
:1001e000683a9a621a000223117e1942fcd0104b21
:1001f000982120225a5008245c5004395a50050a8c
:100200008023db010b4a063c6b3101409562107e76
:100210002042fcd09162107e2042fcd0013b9bb278
:10022000002bf3d1024a98332021d15030bdc04673
:080230000044004100080042f7
:020000040000fa
:1002380070b5504b586a504b9b7d002b54d04e499b
:100248004c68072214404b4b5a699d699e680b7e87
:100258005b0757d5896a474bdb68934252d9002c14
:1002680043d1444b5b6899540132434b1b7edb07f7
:1002780016d5414b012119753e4b9b68ab4256d9a7
:100288003c4b1b68595d3c4b99620135394b1b69e6
:10029800002b01d1b54262d0364bdb68934262d065
:1002a800344b5a619d61344b1b7e9b0715d5334bec
:1002b8001b78002b18d02f4bdb68934211d12d4ba4
:1002c80000221a772c4907240c752c490a701b6ade
:1002d800002b09d0274b1b6a9847284b1b78002b0b
:1002e80002d0254b02229a7570bd224b5b685400e0
:1002f800e1520132204b1b7edb07d1d51e4b012179
:10030800197508e01c4b1b7edb07c9d51a4b012168
:100318001975002cb0d0174b9b68ab4213d9154bfd
:100328001b686900c95a144b99620135aee7114b35
:100338001b69002baad0104bff2199620d490b694c
:10034800013b0b61a2e70b4b1b69002b9ed00a4bac
:100358000b49996207490b69013b0b6196e7074b0b
:10036800012119709ce7044b012199750331197516
:1003780096e7c0465000002000080042b000002068
:04038800ffff000073
:020000040000fa
:10038c0070b500f019fb484c98230422e25000f0a1
:10039c00f3fa94230822e2501832e250434b1f3aee
:1003ac009a62190001320b7e1342fcd03e4c202580
:1003bc009823e550782000f08ffa94230822e2501d
:1003cc00e5503a4b09329a6219000f3a0b7e1342f0
:1003dc00fcd0354c20259823e550782000f07cfa91
:1003ec0094230822e250e550304b32329a621900c5
:1003fc00383a0b7e1342fcd02b4b982120225a50ba
:10040c000820585004395a50284b1b3a9a6219004c
:10041c00033a0b7e1342fcd0234b20219822995097
:10042c00043a082098509950204b5e3a9a62190071
:10043c00343a0b7e1342fcd01b4b982120225a508d
:10044c000820585004395a50184b00229a6219004f
:10045c0002320b7e1342fcd0134b20219822995070
:10046c00043a082098509950104b813a9a6219001e
:10047c00113a0b7e1342fcd00b4b20219822995041
:10048c00043a082098509950084b6b3a9a6219001c
:10049c00273a0b7e1342fcd0034a98232021d150db
:1004ac000a2000f019fa70bd004400410008004217
:020000040000fa
:1004bc001d4b00229a619a8c80218a439a841a00df
:1004cc001023d1680b42fcd0184b1b689b0e3f2ba2
:1004dc0027d09b02802292001343134a936210236d
:1004ec00d1680b42fcd0104b02229a841a001023c4
:1004fc00d1680b42fcd00e4b0e4a5a601a0053784e
:10050c005bb2002bfbdb0a4b0b4a5a800b4a5a801e
:10051c000b4a5a800b4b0c4a1a62034b00221a628c
:10052c007047203bd5e7c04600080040246080009f
:10053c00000c004000070100144000001a400000ad
:0c054c001b4000000004004004090100f6
:020000040000fa
:100558007c0000201c00000000000000b00000200b
:100568000100000000000000500000202c000000e6
:1005780000000000980000200800000000000000b3
:10058800b10000200100000000000000a0000020d1
:100598000c000000000000000000002050000000d7
:1005a80000000000ac000020040000000000000073
:1005b8000000000000000000666666666666666603
:020000040000fa
:1005c800174b012244215a5402315a5401315a54ca
:1005d80031324339995401329a544d321149995064
:1005e8001032e02199508e3a20395a5401315a5428
:1005f80001315a5401315a5402315a5401315a5472
:1006080001315a5417315a5400222e395a540131a3
:100618005a5401315a5401315a540c315a547047c2
:0806280000440041ef00004016
:020000040000fa
:10063000bff35f8f62b6124bc22080001a58114977
:100640001140c02212020a431a50802292001a60fe
:1006500004301a581202120ac02109060a431a501d
:10066000802212021a6004301a5807491140c02231
:1006700012040a431a508022d2021a607047c04600
:0c06800000e100e0ff00ffffffff00ffb3
:020000040000fa
:10068c0000230e4a10b513600d4a13600d4a136017
:10069c000d4a13600d4a13600d4a53621361013306
:1006ac00936000f0daf900f0d8f90a4c0a4b9c423e
:1006bc0000d310bd08cc9847f8e7c046ac0000202a
:1006cc000c00002008000020000000200400002086
:0c06dc0010000020bc000000c000000066
:020000040000fa
:1006e800124b01221a6019008b681a42fcd10f4b79
:1006f800b82252011a600122da6301325a61693262
:100708001a64363a5a641d3a9a64da641a65084ad1
:10071800da62084a00211160802252029a621202ab
:100728001a621a009368002bfcd17047002000421f
:080738000ff80f00a0000020e3
:020000040000fa
:1007400010b5064c2378002b07d1054b002b02d0a7
:10075000044800e000bf0123237010bd7c0000208e
:100760000000000000000000044b10b5002b03d077
:100770000349044800e000bf10bdc046000000006f
:080780008000002000000000d1
:020000040000fa
:100788000e4b01221a801a00d37b5bb2002bfbdbd5
:100798000a4bac22d2001a80094a1a833b229a7368
:1007a800084a0021116001225a7312025a811a0064
:1007b800d37b5bb2002bfbdb7047c046002c0042aa
:0807c800ed0200009800002082
:020000040000fa
:1007d00010b50a4b98470a4b984700f039f8094b77
:1007e000ff229343084a9360084b9847084b984769
:1007f000084b984700f048f8fee7c046610a000041
:10080000610a00000000000000ed00e08d0600001d
:08081000610a0000610a00000a
:020000040000fa
:100818000a4a0023136213779360d360084a53602f
:10082800d369002bfcd1064b01221a73054a1a60c2
:100838001a00d369002bfcd17047c0465000002035
:08084800000800420e0001004f
:020000040000fa
:1008500010b50b480168002905d14368002b02d16f
:1008600000f000f910bd04008368064a9bb20c3406
:100870009b009b5842682000984780002018e9e7b9
:0808800058050000100a0000f9
:020000040000fa
:1008880010b5002000f014f80021074800f0d6f851
:10089800fff778fd0548fff717fcfa20800000f005
:1008a8001df800f059f8fee7510a0000ffff0000ac
:020000040000fa
:1008b80010b5094b06225a60fff782fefff7fafdd2
:1008c80000f0b6f8fff7a4fffff70afffff758ff9d
:0c08d800fff7aafe10bdc0460040004122
:020000040000fa
:1008e40010b5040000f07af8002c0ad00648002164
:1008f400020001701378002bfcd0013ca4b2002c40
:0c090400f7d100f077f810bdb100002022
:020000040000fa
:1009100010b5074b987bc0b23b229a73054b1b68fe
:10092000002b03d0034b59681b68984710bdc04685
:08093000002c00429800002099
:020000040000fa
:1009380010b5064a5168064bd86a064cdc62db6a79
:100948001368002b01d01368984710bda000002041
:08095800002000420ff80f001f
:020000040000fa
:1009600070b5074d942480232b519620fff7baffd2
:1009700001232b5101332b5102332b5170bdc04643
:0409800000440041ee
:020000040000fa
:1009840070b5064c80259423e5503220fff7a8ff6c
:100994009823e5503220fff7a3ff70bd00440041c7
:020000040000fa
:1009a400002310b5934206d103201840421e904103
:0e09b4009b08c01810bdc45ccc540133f2e7a0
:020000040000fa
:0209c200fee74e
:020000040000fa
:1009c40010b5054a98230121d1500131d150962008
:0c09d400fff786ff10bdc0460044004144
:020000040000fa
:1009e000044a138802210b431380d37b5bb2002b94
:0809f000fbdb7047002c004204
:020000040000fa
:1009f800044a138802218b431380d37b5bb2002bfc
:080a0800fbdb7047002c0042eb
:020000040000fa
:100a1000250a0000a50900005d0a00005d0a00002b
:040a20005d0a00006b
:020000040000fa
:100a24008a18914201d10020704700230b700131d4
:020a3400f7e7e2
:020000040000fa
:020a3600fee7d9
:020000040000fa
:0c0a3800014b82225a60704700400041d0
:020000040000fa
:0c0a4400014b18605960704798000020ba
:020000040000fa
:0c0a5000014b01221a707047b100002019
:020000040000fa
:040a5c0000207047bf
:020000040000fa
:020a60007047dd
:020000040000fa
:020a6200fee7ad
:020000040000fa
:020a64007047d9
:020000040000fa
:020a66007047d7
:020000040000fa
:0200000400807a
:0440000077c700d8a6
:020000040000fa
:0200000400807a
:044004005c00ffff5e
:00000001FF
