:020000040000fa
:10000000f07f00208d1600007f180000e31800002c
:1000100000000000000000000000000000000000e0
:100020000000000000000000000000004719000070
:100030000000000000000000471900004719000000
:100040004719000047190000471900004719000030
:100050004719000047190000471900004719000020
:1000600047190000951000004719000047190000cb
:10007000471900004719000047190000f917000050
:100080004719000047190000d11700004719000068
:1000900047190000471900004719000047190000e0
:1000a00047190000471900004719000047190000d0
:020000040000fa
:1000b000f8b5c046f8bc08bc9e467047251600003f
:1000c000f8b5c046f8bc08bc9e467047fd15000058
:020000040000fa
:1000d000ffffffffdfffffffffffffffffffffff50
:1000e000ffffffffffffffffffffdfffffffffff40
:1000f000dffffffffffffff7ffffffffdfffffff58
:10010000ffffdfffdfffffffffffdfffffffffff5f
:10011000ffffffffdfffffffffffffffffffdfff2f
:10012000ffffffffffffffffffffffffffffffffdf
:10013000ffffdfffffffffffffffdfffdfffffff2f
:10014000dfffffffffffffffffffffffbfffdfff3f
:10015000ffffdfffdfffffffffffffffdfffffff0f
:10016000fff7ffffdfffffffffffffffffffffffc7
:10017000ffffffffffffdfffdfffdfffffffffffef
:10018000fffffffffffffff7ffffbfffbfffdfff27
:10019000dfffffffffffffffffffffffbfffdfffef
:1001a000dfff7fffdffffffffff7ffffffffffff27
:1001b000ffffffffdfffdfffdfffffffffffffffaf
:1001c000ffffffffffff7cfedafdbdfeffffffff2d
:1001d000ffffffffffffffffffff3cfefbfdbbfd3f
:1001e0005cfeffffffffffffffffbffffbfdfbfd0f
:1001f000dbfddbfd5cfeffffffffffffffffffffff
:10020000ffffffffddfebafd7cfeffffffffffffec
:10021000dfffffffffff50da6bd8b4e3ffffbfff44
:10022000ffffffffffffffffdfffefd98bd08bd872
:100230000fdafff7ffffdfffffff1dff0cd98bd0a9
:10024000acd86bd82fd2ffffdfffffffffffffff10
:10025000bfffffffb3e38bd82fdaffffffffdfff06
:10026000ffffffffffffaff10bf854fb5fff3fff06
:10027000dfffffffbfff5fff7fff8ff90cf80cf878
:100280008ff9ffffdfffffffffff1dff4cf00cf8b2
:100290002cf80cf8aff97fff3fffdfffffffdfff18
:1002a0005fff5fff54fb0bf8aff1ffffffffffffa6
:1002b000dfffffffffffaff90bf84ff9b1f2b2f22a
:1002c0003efffffffafd71ea92f28df00cf80cf898
:1002d0008ff9ffffdfffbefffffffdfe4cf80cf8bc
:1002e0002df80cf8adf091f250f2faf5ffff5eff39
:1002f000b2eab1f22ef90cf8aff1fffffffffffffa
:10030000ffffffffffff8ff90bf82be86ce08ce895
:100310009dfe9fff39fd2be06ce82cf82cf80cf8c3
:1003200070f99fff9fff9fff9fffbefe4df80cf8e7
:100330000cf80cf82cf04ce82be85afd7fff9dfee2
:100340008ce06ce82cf00bf88ff9ffffffffffff4c
:10035000ffffffffffff90f90bf82cf82df84cf88a
:10036000fafcdcfdd7fb2cf04cf00cf80cf80cf888
:100370000ff9bdfd7bfd7afdbcfdd9fc2df80cf815
:100380000df80cf82cf82df80cf8d7fbfcfdf9fc57
:100390004df04cf80df80cf890f9ffffffffffff50
:1003a000ffffffffffff90f90bf80cf80ef80cf8b9
:1003b000cbc8cbc8acd80cf80cf80cf82df80cf85e
:1003c0002cf0acc8ccc8ecd0ccc8abd00df80cf835
:1003d0000df80cf80cf80df80df8ade0cbc08bd093
:1003e0000df80cf80df80cf890f9ffffffffffff78
:1003f000ffffffffffff90f90bf80df80df80cf869
:100400004cf06df02cf00df80df80df80cf80df81f
:100410002cf84ce84ce82bf06de82cf00df80bf8bc
:100420002df80cf80cf80cf80cf82df06ce84cf0ea
:100430000cf80cf80df80cf890f9ffffffffffff28
:10044000ffffffffffff90f90bf80df80df80cf818
:100450000cf80cf80cf80df80df80cf80cf80df879
:100460000cf80cf80df80cf80df80cf80df80cf869
:100470000df80cf80cf80cf80cf80cf80cf80cf85b
:100480000df80cf80df80cf890f9ffffffffffffd7
:10049000ffffffffffff90f90bf80df80cf80cf8c9
:1004a0002df80cf80cf80cf80df80cf02cf80df8f1
:1004b0000cf80cf80df80bf80cf80cf80df80df81a
:1004c0000df80df80cf80cf82cf80cf80cf82df8c9
:1004d0000df80cf80df82bf890f9ffffffffffff68
:1004e000ffffffffffffb0f90cf80df80cf80cf858
:1004f0000cf80cf80cf80cf80df82cf80bf80cf8bc
:100500000cf80cf80df80bf80cf80df80df80cf8c9
:100510000df80df80df80cf80cf00cf80df80cf8bf
:100520000df80cf80df82bf890f9ffffffffffff17
:10053000ffffffffffffb0f90cf80df80cf80cf807
:100540000df80cf80cf80cf80cf80cf80cf82df869
:100550000cf80cf80df82cf00cf80cf80cf80cf862
:100560000cf80df80cf80df82cf82cf80cf80cf829
:100570000df80cf80df80bf890f9ffffffffffffe7
:10058000ffffffffffffb0f90bf80df80cf80cf8b8
:100590000cf06cf06cf02cf06df00cf80cf80cf822
:1005a0000cf80cf80df82cf00cf80cf84cf84cf09a
:1005b0004cf04cf84df80df80cf80cf80df80cf860
:1005c0000df80cf80df80bf890f9ffffffffffff97
:1005d000ffffffffdfffb0f10bf80df80cf82cf870
:1005e0006ce08bd88bd08cd8abd00cf80df80df814
:1005f0002cf80cf80cf80cf80cf82cf88bd88cd8dc
:100600008be08bd88cd80df80cf80cf80df80cf8a2
:100610000df80cf80df80bf8b0f9ffffffffffff26
:10062000ffffffffffffb0f10bf80cf80ef82df005
:1006300074fb36fc16fcd6fb16fcaef80df80df874
:100640000df80df82cf80cf80df8aef8d5fbd6fb2c
:10065000d5fbf5fb54fb0df80cf80cf80df80cf875
:100660000df80cf80cf80bf88ff9fffffffffffff8
:10067000ffffdfffffff90f90af80cf82ef02df0d6
:100680007dfe9fff9fff7fff7fff70f90cf82cf826
:100690000df80df80bf80cf80df84ff99fff5fff00
:1006a0007fff9fff3cfe2cf82cf80cf80cf80cf8a0
:1006b0000cf80cf80df80bf890f9ffffdfffffffc7
:1006c000ffffffffffff70f90af84ee8d1b0f0b866
:1006d000bfdedfe7bfe7ffffdeff70daedd8ede852
:1006e0000cf80df80bf8afd870b8f3c19fdf9fdf9f
:1006f000dfeffefffdfe0dd90cd16df00cf80cf80c
:100700000cf80cf82df80bf8b0f9ffffdfffffff36
:10071000ffffffffffff8ff90af8cfb0173af6414e
:10072000f82a961afa7cffffffff3fff5fff99fc54
:100730000bf80df80cf83281f639f64117239612b2
:100740001ca6ffffdfffbffe7fffb3fa2bf80cf8fc
:100750000cf80cf80cf80bf890f9ffffffffffff07
:10076000ffffdffffef7efe1aad87189ba029a0a0c
:10077000ba025902db6cdffffef7ffffffff18fd37
:100780000af82df80cf8b561fb027a12b902590289
:100790001d9effffdff7dffffffff3fa2bf82cf8ba
:1007a0000cf80cf86ce8abd8efe1dfffffffffffc0
:1007b000ffffffffffff19f575f4d8a39b0aba02ec
:1007c000da0a3a02bc64ffffffffffffffff39fdbb
:1007d0000af82df80bf8b559db027902fb0a5a0228
:1007e000fd9dfffffffffffffffff4fa0bf80df881
:1007f0000cf80cf813f396f418f5ffffffffffff5a
:10080000ffffffffffff9fff9ffffec53702b80af4
:10081000b8123802ba6cffffdfffffffffff18fdc1
:100820000af80cf80cf8b461d902b80a980a370a29
:10083000fda5ffffffffdef7ffff14fb0bf82df810
:100840000cf80cf83afdbfff9fffdfffffffffff33
:10085000ffffffffffffbfffdfff3dbe9322162b11
:100860001733931af984dfffdeffffffffff39fd27
:100870000bf80cf80df8d179141bf52af52a741a27
:100880001aaeffffdffffffffffff3fa0cf80df8d2
:100890002df80cf859fddfffbfffffffffffffff43
:1008a000ffffffffffffffffffffdff7bfe77fdf78
:1008b0009fe7ffd7ffefffffffffbeffdffff8fc63
:1008c0000bf82cf80df8bbecffe77fdfbfdfbfd7dd
:1008d000fff7ffffffff9fffdfffd2fa0cf80cf8d6
:1008e0002df80cf859fdffffdeffffffffffffffb4
:1008f000ffffdfffffffffffffffdfff7fff9fff28
:10090000dfffffefffffffffffff7fff7ffff9fc30
:100910000bf82cf80cf8dafc7fff9ffffffffff7c6
:10092000fff7ffffffff3fff9ffff4fa0bf82df8e3
:100930000cf80cf899fdffffffffffffffffffff23
:10094000ffffffffffffffffffffbcfe35f476f464
:100950005effffffdffffffffffff7f456fcd2f261
:100960000cf84df80bf892fa37f497f4dfffffff1d
:10097000ffffbfff7eff35fc56f48ff10cf82df81a
:100980004df80bf879f5dfffffffffffffffffffdb
:10099000feffffffffffdfffffff99f58ad0cbd8f7
:1009a000fcfeffffffffdfffdfffcfd98be06be82f
:1009b0000cf80cf82cf84ce88ce08ee1dfffdfff40
:1009c000dfffffffbcfe8bd86ad04cf00cf80cf0b8
:1009d0002cf00bf079fddfffffffffffffffffffb4
:1009e000ffffffffffffbfffffffb9f50cd16de178
:1009f0005cfe1ffffffe1fff1fff4ff90bf82cf8d7
:100a00000cf80cf84df80cf80cf84ff9fffefefe50
:100a1000defe1fffdbfd2bf82cf82cf80cf86df038
:100a20004dd92dd9b9f5dfffdeffffffffffdfff57
:100a3000ffffffffffffffffffffdfff3fff3fff66
:100a400071ea2dd94de14dd90dd92cf00cf82df8c6
:100a50000cf80cf82cf80cf00df86df0edd80dd961
:100a60000dd90dd90dd92cf80cf80cf80cf86ff93c
:100a70001ffffffebfffdfffffffffffdfffffffe7
:100a8000ffffffffffffffffffffffffdfffffff96
:100a900010e28bd06ce02cf00cf80cf80cf80cf891
:100aa0000df80cf80cf82cf00cf80cf00df82cf8f4
:100ab0002df80cf82cf00cf80cf86ce86be0efe17a
:100ac000dffffffffffffffffff7ffffffffffff5e
:100ad000ffffffffffffffffffffffffffffffff26
:100ae000f8fc97f433f30bf82cf80cf80cf80cf82e
:100af0000df80cf80cf82cf80cf80cf80cf82cf895
:100b00000df80df80df80df82cf8f3fa76fc18f541
:100b1000ffffffffffffffffffffffffffffffffe5
:100b2000ffffffffffffffffffffffffffffffffd5
:100b30007fff7fff39fd4ce86ce86ce04cf00cf86f
:100b40000df80cf80cf80cf80cf80cf80cf80cf884
:100b50004cf06ce06ce86ce84be039fd9fff9fffc8
:100b6000ffffffffffffffffffffffffffffffff95
:100b7000ffffffffffffffffffffffffffffffff85
:100b8000dfffbfffb9ed2cc98ec9cec1ade80cf8af
:100b90000df80cf80cf80cf80cf80df80cf80cf833
:100ba000ecd8aed18dc9aed16cc1b9f5dfffbfffb6
:100bb000ffffffffffffffffffffffffffffffff45
:100bc000ffffffffffffffffffffffffffffffff35
:100bd000ffffdfffbfffbffe9efe1fff14fb2bf0da
:100be0004df04cf04cf04cf04df04df04cf04ce82a
:100bf000b8fcfffebffebffedffe9fffffffffff53
:100c0000fffffffffffffffffffffffffffffffff4
:100c1000fff7ffffffffffffffffffffffffffffec
:100c2000ffffffffdfff9fff9fffbfff73ebace006
:100c3000acd88cd88cd8acd88bd86ce08bd88bd077
:100c400079fd9fff9fffbfffbfffbfffffffffffbc
:100c5000ffffffffffffffffffffffffffffffffa4
:100c6000fff7ffffffffffffffffffffffffffff9c
:100c7000ffffffffdfffffffdfffffffbafdb5fb59
:100c800017fc16fc16fc16fc16fcf6fb16fc15fcf5
:100c9000bcfeffffffffffffffffffffffffffffa8
:100ca000ffffffffffffffffffffffffffffffff54
:100cb000ffffffffffffffffffffffffffffffff44
:100cc000ffffffffffffffffffffffffbfff7ffff4
:100cd0009fff7fff9fff9fff7fff7fff9fff7fffa4
:100ce000bfffffffffffffffffffffffffffffff54
:100cf000ffffffffffffffffffffffffffffffff04
:100d0000ffffdfffffffffffffffffffffffffff13
:100d1000ffffffffffffffffffffffffdfffffff03
:100d2000ffffbeffffffffffdfffffffffffdfff54
:100d3000ffffffffffffffffffffffffffffffffc3
:100d4000ffffffffffffffffffffffffffffffffb3
:020000040000fa
:100d5000f0b5c64600b5938801305f08c71bffb2e7
:100d6000013bfb18d8b2d48865084d1bedb22c1995
:100d7000e4b2874200d9c9e0812800d9c6e0a54283
:100d800000d9c3e0802c00d9c0e06249942320261a
:100d9000ce50f600ce50604b2a2199621e002839b1
:100da000337e0b42fcd05b4b98268021490088465d
:100db0009951e0399951043e41469951564b0021d1
:100dc00099621e000231337e0b42fcd0524b9f626f
:100dd0001e000221337e0b42fcd04e4b9826802110
:100de0004900995120279f51043e99514a4b0021b7
:100df00099621e000231337e0b42fcd0464b986252
:100e000018000221037e0b42fcd0424b80204000a0
:100e100098215850043920265e5058503e4b69396d
:100e2000996218002939037e0b42fcd0394b982077
:100e300080214900195020261e5004381950364b85
:100e40000021996218000231037e0b42fcd0324b24
:100e50009d6218000221037e0b42fcd02d4b98208e
:100e600080214900195020251d50043819502a4b63
:100e70000021996218000231037e0b42fcd0264b00
:100e80009c6218000221037e0b42fcd0214b802083
:100e9000400098215850043920245c5058501e4b73
:100ea0006839996218002a39037e0b42fcd0194b2d
:100eb000982080214900195020241c5004381950d2
:100ec0009188d3884b43002b18dd0024124b02215c
:100ed000ff2566001068805b000a9862187e084251
:100ee000fcd01068805b28409862187e0842fcd0d5
:100ef00001349688d0887043a042eadc054a9823e2
:100f000080214900d15004bc9046f0bd012000f082
:0c0f1000ddfcc046004400410008004227
:020000040000fa
:100f1c0030b55b4a94232021d150c900d150594b94
:100f2c002a229a621a000223117e1942fcd0544bd9
:100f3c009821802252005a5020245c5004395a5077
:100f4c00504b00229a621a000223117e1942fcd0e7
:100f5c004c4b02229a621a000223117e1942fcd0d9
:100f6c00474b9821802252005a5020245c5004395f
:100f7c005a50444b00229a621a000223117e1942e5
:100f8c00fcd0404b81229a621a000223117e194236
:100f9c00fcd03b4b8021490098229950043a2024e4
:100fac009c509950374b693a9a621a000223117e71
:100fbc001942fcd0324b9821802252005a502024e6
:100fcc005c5004395a502f4b00229a621a000223ab
:100fdc00117e1942fcd02b4b01229a621a0002237b
:100fec00117e1942fcd0264b9821802252005a5077
:100ffc0020245c5004395a50224b00229a621a0069
:10100c000223117e1942fcd01e4b80229a621a00d8
:10101c000223117e1942fcd0194b802149009822e1
:10102c009950043a20249c509950164b683a9a6275
:10103c001a000223117e1942fcd0114b98218022f8
:10104c0052005a5020245c5004395a50050a80230f
:10105c00db010c4a1e3c6b3101409562107e204234
:10106c00fcd09162107e2042fcd0013b9bb2002b45
:10107c00f3d1034a983380214900d15030bdc0468a
:08108c0000440041000800428d
:020000040000fa
:1010940070b5504b586a504b9b7d002b54d04e4931
:1010a4004c68072214404b4b5a699d699e680b7e1d
:1010b4005b0757d5896a474bdb68934252d9002caa
:1010c40043d1444b5b6899540132434b1b7edb078d
:1010d40016d5414b012119753e4b9b68ab4256d93d
:1010e4003c4b1b68595d3c4b99620135394b1b697c
:1010f400002b01d1b54262d0364bdb68934262d0fb
:10110400344b5a619d61344b1b7e9b0715d5334b81
:101114001b78002b18d02f4bdb68934211d12d4b39
:1011240000221a772c4907240c752c490a701b6a73
:10113400002b09d0274b1b6a9847284b1b78002ba0
:1011440002d0254b02229a7570bd224b5b68540075
:10115400e1520132204b1b7edb07d1d51e4b01210e
:10116400197508e01c4b1b7edb07c9d51a4b0121fe
:101174001975002cb0d0174b9b68ab4213d9154b93
:101184001b686900c95a144b99620135aee7114bcb
:101194001b69002baad0104bff2199620d490b69e2
:1011a400013b0b61a2e70b4b1b69002b9ed00a4b42
:1011b4000b49996207490b69013b0b6196e7074ba1
:1011c400012119709ce7044b0121997503311975ac
:1011d40096e7c0465000002000080042b0000020fe
:0411e400ffff000009
:020000040000fa
:1011e80070b500f049fb4d4c982380229200e250e4
:1011f80000f012fb94232022e250d200e250484b28
:10120800ff3a9a62190001320b7e1342fcd0434c1c
:1012180080256d009823e550782000f0bffa9423cc
:101228002022e250e5503e4b0f3a9a6219000f3add
:101238000b7e1342fcd0394c80256d009823e55075
:10124800782000f0abfa94232022e250e550344b8a
:101258001a329a621900383a0b7e1342fcd02f4b8f
:101268009821802252005a502020585004395a5050
:101278002b4bfb3a9a621900033a0b7e1342fcd0bf
:10128800264b8021490098229950043a20209850f2
:101298009950234b5e3a9a621900343a0b7e1342f6
:1012a800fcd01e4b9821802252005a5020205850c2
:1012b80004395a501a4bf83a9a621900063a0b7eca
:1012c8001342fcd0154b8021490098229950043aca
:1012d800202098509950124b813a9a621900113a7d
:1012e8000b7e1342fcd00d4b802149009822995067
:1012f800043a202098509950094b6b3a9a62190089
:10130800273a0b7e1342fcd0044a982380214900d7
:10131800d1500a2000f042fa70bdc0460044004196
:041328000008004277
:020000040000fa
:10132c0010b5274b274a1a60274a1a61002242211e
:10133c005a5441394420195402301954013019546b
:10134c00053105301954013019540130195401304c
:10135c001a54033019540130195422381a540130dc
:10136c0004241c540130185403301a5401301a54fc
:10137c0002301a544730154c1c501030144c1c5071
:10138c0030301a5401301a5403301a5401301a54a4
:10139c0003301a5401301a540530195401301954c1
:1013ac000130195401301954aa315a5402315a548b
:1013bc0002315a5403315a5401315a5410bdc046ab
:1013cc00004400410480000004700c003303000052
:0413dc0010c1030039
:020000040000fa
:1013e0001d4b00229a619a8c80218a439a841a00ac
:1013f0001023d1680b42fcd0184b1b689b0e3f2b6f
:1014000027d09b02802292001343134a9362102339
:10141000d1680b42fcd0104b02229a841a00102390
:10142000d1680b42fcd00e4b0e4a5a601a0053781a
:101430005bb2002bfbdb0a4b0b4a5a800b4a5a80eb
:101440000b4a5a800b4b0c4a1a62034b00221a6259
:101450007047203bd5e7c04600080040246080006c
:10146000000c004000070100144000001a4000007a
:0c1470001b4000000004004004090100c3
:020000040000fa
:10147c007c0000201c00000000000000b0000020d8
:10148c000100000000000000500000202c000000b3
:10149c000000000098000020100000000000000078
:1014ac00b10000200100000000000000a800002096
:1014bc0004000000000000000000002050000000ac
:1014cc0000000000ac000020040000000000000040
:1014dc0000000000000000006666666666666666d0
:020000040000fa
:1014ec00bff35f8f62b6124bc22080001a581149ad
:1014fc001140c02212020a431a50802292001a6034
:10150c0004301a581202120ac02109060a431a5052
:10151c00802212021a6004301a5807491140c02266
:10152c0012040a431a508022d2021a607047c04635
:0c153c0000e100e0ff00ffffffff00ffe8
:020000040000fa
:1015480000230e4a10b513600d4a13600d4a13604c
:101558000d4a13600d4a13600d4a5362136101333b
:10156800936000f0eff900f0edf90a4c0a4b9c4249
:1015780000d310bd08cc9847f8e7c046ac0000205f
:101588000c000020080000200000002004000020bb
:0c15980010000020bc000000c00000009b
:020000040000fa
:1015a400124b01221a6019008b681a42fcd10f4bae
:1015b400b82252011a600122da6301325a61693297
:1015c4001a64363a5a641d3a9a64da641a65084a07
:1015d400da62084a00211160802252029a621202e1
:1015e4001a621a009368002bfcd170470020004255
:0815f4000ff80f00a000002019
:020000040000fa
:1015fc0010b5064c2378002b07d1054b002b02d0dd
:10160c00044800e000bf0123237010bd7c000020c3
:10161c000000000000000000044b10b5002b03d0ac
:10162c000349044800e000bf10bdc04600000000a4
:08163c00800000200000000006
:020000040000fa
:101644000e4b01221a801a00d37b5bb2002bfbdb0a
:101654000a4bac22d2001a80094a1a833b229a739d
:10166400084a0021116001225a7312025a811a0099
:10167400d37b5bb2002bfbdb7047c046002c0042df
:08168400ed02000098000020b7
:020000040000fa
:10168c0010b50a4b98470a4b984700f039f8094bac
:10169c00ff229343084a9360084b9847084b98479e
:1016ac00084b984700f048f8fee7c0460b190000bd
:1016bc000b1900000000000000ed00e049150000cf
:0816cc000b1900000b190000ce
:020000040000fa
:1016d4000a4a0023136213779360d360084a536065
:1016e400d369002bfcd1064b01221a73054a1a60f8
:1016f4001a00d369002bfcd17047c046500000206b
:08170400000800420e00010084
:020000040000fa
:10170c0010b50b480168002905d14368002b02d1a4
:10171c0000f015f910bd04008368064a9bb20c3426
:10172c009b009b5842682000984780002018e9e7ee
:08173c007c140000e418000019
:020000040000fa
:1017440010b5002000f016f80021074800f0e2f878
:10175400fff748fd0548fff7dffb054a402140201d
:10176400fff7f4fafee7c04625190000ffff00006a
:041774003019000028
:020000040000fa
:1017780010b5094b06225a60fff7d4fdfff72cfe7f
:1017880000f0c0f8fff70afffff7a0fffff756ffca
:0c179800fff7a8fe10bdc0460040004155
:020000040000fa
:1017a40010b5040000f078f8002c0ad00648002197
:1017b400020001701378002bfcd0013ca4b2002c71
:0c17c400f7d100f075f810bdb100002056
:020000040000fa
:1017d00010b5074b987bc0b23b229a73054b1b6830
:1017e000002b03d0034b59681b68984710bdc046b7
:0817f000002c004298000020cb
:020000040000fa
:1017f80010b5064a5168064bd86a064cdc62db6aab
:101808001368002b01d01368984710bda000002072
:08181800002000420ff80f0050
:020000040000fa
:1018200070b5064c10259423e5503220fff7baff1f
:101830009823e5503220fff7b5ff70bd004400410a
:020000040000fa
:1018400010b5054c054b9c4202d8fef739fc10bd83
:10185000043c23689847f5e7d0000000cc00000066
:020000040000fa
:10186000002310b5934206d103201840421e904138
:0e1870009b08c01810bdc45ccc540133f2e7d5
:020000040000fa
:02187e00fee783
:020000040000fa
:1018800010b5054a98230121d1500131d15096203d
:0c189000fff788ff10bdc0460044004177
:020000040000fa
:10189c00044a138802210b431380d37b5bb2002bc9
:0818ac00fbdb7047002c004239
:020000040000fa
:1018b400044a138802218b431380d37b5bb2002b31
:0818c400fbdb7047002c004221
:020000040000fa
:1018cc0010b5040000f03df8fff7b4ff00f039f854
:0618dc00200000f02df8d1
:020000040000fa
:0218e200fee71f
:020000040000fa
:1018e400f9180000611800004319000043190000b2
:0418f4004319000094
:020000040000fa
:1018f8008a18914201d10020704700230b700131f2
:02190800f7e7ff
:020000040000fa
:02190a00704724
:020000040000fa
:0c190c00014b82225a60704700400041ed
:020000040000fa
:0c191800014b18605960704798000020d7
:020000040000fa
:0c192400014b01221a707047b100002036
:020000040000fa
:0c193000d000000028002800100000007b
:020000040000fa
:06193c0010b500f003f8f5
:020000040000fa
:0419420000207047ca
:020000040000fa
:02194600fee7ba
:020000040000fa
:02194800fee7b8
:020000040000fa
:02194a007047e4
:020000040000fa
:02194c007047e2
:020000040000fa
:02194e007047e0
:020000040000fa
:0200000400807a
:0440000077c700d8a6
:020000040000fa
:0200000400807a
:044004005c00ffff5e
:00000001FF
