:020000040000fa
:10000000f87f0020590f00003b1100002b12000068
:1000100000000000000000000000000000000000e0
:10002000000000000000000000000000231b000092
:100030000000000000000000231b0000231b000044
:10004000231b0000231b0000231b0000231b0000b8
:10005000231b0000231b0000231b0000231b0000a8
:10006000231b000025090000231b0000231b0000a8
:10007000231b0000231b0000231b00009110000025
:10008000231b0000231b000069100000231b00003d
:10009000231b0000231b0000231b0000231b000068
:1000a000231b0000231b0000231b0000231b000058
:020000040000fa
:1000b000f8b5c046f8bc08bc9e467047f10e00007b
:1000c000f8b5c046f8bc08bc9e467047c90e000093
:020000040000fa
:1000d000f0b5de4657464e464546e0b587b005903a
:1000e00001911278203ad2b294469000984a8258f0
:1000f000107903905279002a00d11be1180a02906e
:1001000089464a44d2b204920027022203e1012028
:1001100001f080f840080131c9b2884500d1efe014
:10012000bd008b4ead592d686646ad5d0542f1d1df
:100130008029ecd8019d802de9d8864e9425202475
:100140007451e4007451844d2a26ae622e00444658
:10015000357e1542fcd0a0467e4d9824a2468026ce
:1001600076002e514c1ca1462024a34654465e46e0
:100170002e51043cf6002e51774d0026ae622e0023
:100180004446357e1542fcd0a046734d4c46ac62c9
:100190002e004446357e1542fcd0a0466d4d982475
:1001a000a246802676002e51783ca34654465e46f1
:1001b0002e51043cf6002e51674d0026ae622e00f3
:1001c0004446357e1542fcd0a046634d4c46ac6299
:1001d0002e004446357e1542fcd0a0465d4d80245d
:1001e0006400a1469826ac51043ee03cac514c461c
:1001f000ac51594d693eae622e004446357e1542e3
:10020000fcd0a046534d9824a246802676002e515d
:10021000019c0234a1462024a34654465e462e513a
:10022000043cf6002e514c4d0026ae622e00444692
:10023000357e1542fcd0a046474d4c46ac622e00a0
:100240004446357e1542fcd0a046424d9824a24635
:10025000802676002e51783ca34654465e462e51a9
:10026000043cf6002e513c4d0026ae622e00444662
:10027000357e1542fcd0a046374d4c46ac622e0070
:100280004446357e1542fcd0a046324d80246400a1
:10029000a1469826ac51043ee03cac514c46ac51d2
:1002a0002d4d683eae622e004446357e1542fcd090
:1002b000a046284d9824a1466834a3464c465e4685
:1002c0002e51783ca2464c4656462e51043c5e4682
:1002d0002e51214d029cac622e004446357e1542c3
:1002e000fcd0ff251d401c4eb56235002e7e164207
:1002f000fcd0a046174e982580246400745109e76d
:100300006146bc460f00019e0136f1b201910137f2
:10031000049881420ed003990029f4d003990c006f
:10032000059989464c44e4b28020a0463c006746cb
:10033000a446f5e6094a137803998c466344137082
:1003400007b03cbc90469946a246ab46f0bdc046bd
:10035000b40000200044004100080042b200002028
:020000040000fa
:10036000f0b5de4657464e464546e0b583b0814679
:1003700001930cac23889c461778203fffb2bc0049
:100380008a4aa258167953799a46421eb218d3b2b5
:1003900098464c1e5444e4b2834200d2bee0802b07
:1003a00000d9bbe08c4200d2b8e0802c00d9b5e087
:1003b0007f4d94222020a850c000a8507d4a2a25b5
:1003c00095621000283d037e2b42fcd0784a98238a
:1003d000009380256d00d550973b9b46d944202043
:1003e000009bd050743015504b46180a714a9062e9
:1003f0001000fe3d037e2b42fcd0ff204b461840f0
:100400006c4a9062150002202b7e0342fcd0684aa1
:10041000982580204000505101239946c8441f333d
:100420005351043d5051634a002090621500023040
:100430002b7e0342fcd05f4a4346936215000220a4
:100440002b7e0342fcd05a4a80256d00982015501f
:100450000438202313501550564a6938906215000d
:1004600029382b7e0342fcd0514a98258020400039
:100470005051023120235351043d5051080a4d4a36
:100480009062150002202b7e0342fcd0ff22114017
:10049000484a916210000221037e0b42fcd0444a7c
:1004a000982080214900115002342025155004382d
:1004b0001150404a0021916210000231037e0b422c
:1004c000fcd03c4a946210000221037e0b42fcd017
:1004d000374a80204000982150500439202454503d
:1004e0005050344a6839916210002a39037e0b4219
:1004f000fcd02f4a9820802149001150202414500c
:10050000043811505346002b40d063461b0a9946cd
:10051000019b1a0a00259346984631e0012000f01d
:1005200079fe244a4c4694621400227e1a42fcd082
:10053000ff22644622401f4ca262227e1a42fcd057
:1005400040080131c9b28e4216d0ba00174c125978
:100550001268525d0242e4d0164a5c46946214006e
:10056000227e1a42fcd0ff2244462240114ca26255
:10057000227e1a42fcd0e3e70135ebb29a4505d959
:10058000002180200223002edfd1f5e7084a9823be
:1005900080214900d150084b1a78b6181e7003b05c
:1005a0003cbc90469946a246ab46f0bdb400002044
:0c05b0000044004100080042b20000209e
:020000040000fa
:1005bc007c0000201c00000000000000b0000020a7
:1005cc000100000000000000500000202c00000082
:1005dc000000000098000020100000000000000047
:1005ec00b10000200300000000000000b400002057
:1005fc007c010000010000002018000028180000f9
:10060c00301800003818000040180000481800008e
:10061c0050180000581800006018000068180000fe
:10062c00701800007818000080180000881800006e
:10063c009018000098180000a0180000a8180000de
:10064c00b0180000b8180000c0180000c81800004e
:10065c00d0180000d8180000e0180000e8180000be
:10066c00f0180000f818000000190000081900002c
:10067c00101900001819000020190000281900009a
:10068c00301900003819000040190000481900000a
:10069c00501900005819000060190000681900007a
:1006ac0070190000781900008019000088190000ea
:1006bc009019000098190000a0190000a81900005a
:1006cc00b0190000b8190000c0190000c8190000ca
:1006dc00d0190000d8190000e0190000e81900003a
:1006ec00f0190000f8190000001a0000081a0000a8
:1006fc00101a0000181a0000201a0000281a000016
:10070c00301a0000381a0000401a0000481a000085
:10071c00501a0000581a0000601a0000681a0000f5
:10072c00701a0000781a0000801a0000881a000065
:10073c00901a0000981a0000a01a0000a81a0000d5
:10074c00b01a0000b81a0000c01a0000c81a000045
:10075c00d01a0000d81a0000e01a0000e81a0000b5
:10076c00f01a0000f81a0000001b0000081b000023
:10077c00101b0000a8000020040000000000000076
:10078c00000000205000000000000000ac00002021
:10079c000400000000000000000000000000000049
:020000040000fa
:1007ac0030b55b4a94232021d150c900d150594b0c
:1007bc002a229a621a000223117e1942fcd0544b51
:1007cc009821802252005a5020245c5004395a50ef
:1007dc00504b00229a621a000223117e1942fcd05f
:1007ec004c4b02229a621a000223117e1942fcd051
:1007fc00474b9821802252005a5020245c500439d7
:10080c005a50444b00229a621a000223117e19425c
:10081c00fcd0404b81229a621a000223117e1942ad
:10082c00fcd03b4b8021490098229950043a20245b
:10083c009c509950374b693a9a621a000223117ee8
:10084c001942fcd0324b9821802252005a5020245d
:10085c005c5004395a502f4b00229a621a00022322
:10086c00117e1942fcd02b4b03229a621a000223f0
:10087c00117e1942fcd0264b9821802252005a50ee
:10088c0020245c5004395a50224b00229a621a00e0
:10089c000223117e1942fcd01e4b82229a621a004e
:1008ac000223117e1942fcd0194b80214900982259
:1008bc009950043a20249c509950164b683a9a62ed
:1008cc001a000223117e1942fcd0114b9821802270
:1008dc0052005a5020245c5004395a50050a802387
:1008ec00db010c4a1e3c6b3101409562107e2042ac
:1008fc00fcd09162107e2042fcd0013b9bb2002bbd
:10090c00f3d1034a983380214900d15030bdc04601
:08091c00004400410008004204
:020000040000fa
:1009240070b5504b586a504b9b7d002b54d04e49a8
:100934004c68072214404b4b5a699d699e680b7e94
:100944005b0757d5896a474bdb68934252d9002c21
:1009540043d1444b5b6899540132434b1b7edb0704
:1009640016d5414b012119753e4b9b68ab4256d9b4
:100974003c4b1b68595d3c4b99620135394b1b69f3
:10098400002b01d1b54262d0364bdb68934262d072
:10099400344b5a619d61344b1b7e9b0715d5334bf9
:1009a4001b78002b18d02f4bdb68934211d12d4bb1
:1009b40000221a772c4907240c752c490a701b6aeb
:1009c400002b09d0274b1b6a9847284b1b78002b18
:1009d40002d0254b02229a7570bd224b5b685400ed
:1009e400e1520132204b1b7edb07d1d51e4b012186
:1009f400197508e01c4b1b7edb07c9d51a4b012176
:100a04001975002cb0d0174b9b68ab4213d9154b0a
:100a14001b686900c95a144b99620135aee7114b42
:100a24001b69002baad0104bff2199620d490b6959
:100a3400013b0b61a2e70b4b1b69002b9ed00a4bb9
:100a44000b49996207490b69013b0b6196e7074b18
:100a5400012119709ce7044b012199750331197523
:100a640096e7c0465000002000080042b000002075
:040a7400ffff000080
:020000040000fa
:100a780070b500f05ffb4d4c982380229200e25045
:100a880000f028fb94232022e250d200e250484b89
:100a9800ff3a9a62190001320b7e1342fcd0434c94
:100aa80080256d009823e550782000f0c3fa942340
:100ab8002022e250e5503e4b0f3a9a6219000f3a55
:100ac8000b7e1342fcd0394c80256d009823e550ed
:100ad800782000f0affa94232022e250e550344bfe
:100ae8001a329a621900383a0b7e1342fcd02f4b07
:100af8009821802252005a502020585004395a50c8
:100b08002b4bfb3a9a621900033a0b7e1342fcd036
:100b1800264b8021490098229950043a2020985069
:100b28009950234b5e3a9a621900343a0b7e13426d
:100b3800fcd01e4b9821802252005a502020585039
:100b480004395a501a4b383a9a621900c63a0b7e41
:100b58001342fcd0154b8021490098229950043a41
:100b6800202098509950124b813a9a621900113af4
:100b78000b7e1342fcd00d4b8021490098229950de
:100b8800043a202098509950094b6b3a9a62190000
:100b9800273a0b7e1342fcd0044a9823802149004f
:100ba800d1500a2000f046fa70bdc046004400410a
:040bb80000080042ef
:020000040000fa
:100bbc0010b5274b274a1a60274a1a610022422196
:100bcc005a544139442019540230195401301954e3
:100bdc0005310530195401301954013019540130c4
:100bec001a54033019540130195422381a54013054
:100bfc0004241c540130185403301a5401301a5474
:100c0c0002301a544730154c1c501030144c1c50e8
:100c1c0030301a5401301a5403301a5401301a541b
:100c2c0003301a5401301a54053019540130195438
:100c3c000130195401301954aa315a5402315a5402
:100c4c0002315a5403315a5401315a5410bdc04622
:100c5c00004400410480000004700c0033030000c9
:040c6c0010c10300b0
:020000040000fa
:100c70001d4b00229a619a8c80218a439a841a0023
:100c80001023d1680b42fcd0184b1b689b0e3f2be6
:100c900027d09b02802292001343134a93621023b1
:100ca000d1680b42fcd0104b02229a841a00102308
:100cb000d1680b42fcd00e4b0e4a5a601a00537892
:100cc0005bb2002bfbdb0a4b0b4a5a800b4a5a8063
:100cd0000b4a5a800b4b0c4a1a62034b00221a62d1
:100ce0007047203bd5e7c0460008004024608000e4
:100cf000000c004000070100144000001a400000f2
:0c0d00001b40000000040040040901003a
:020000040000fa
:100d0c00f0b583b014001e0008ab1f8809ab1d782a
:100d1c00114b1870114b19701378002b17d103b0ad
:100d2c00f0bd0e4b19780c4b18783b002200fff7e6
:100d3c00c9f908e0094b1978074b1878009733006c
:100d4c002200fff707fb01342378002be7d0012d9d
:100d5c00e7d0002df7d1ede7b2000020b300002062
:020000040000fa
:100d6c00bff35f8f62b6124bc22080001a58114934
:100d7c001140c02212020a431a50802292001a60bb
:100d8c0004301a581202120ac02109060a431a50da
:100d9c00802212021a6004301a5807491140c022ee
:100dac0012040a431a508022d2021a607047c046bd
:0c0dbc0000e100e0ff00ffffffff00ff70
:020000040000fa
:100dc80000230e4a10b513600d4a13600d4a1360d4
:100dd8000d4a13600d4a13600d4a536213610133c3
:100de800936000f09dfe00f09bfe0a4c0a4b9c426b
:100df80000d310bd08cc9847f8e7c046ac000020e7
:100e08000c00002008000020000000200400002042
:0c0e180010000020bc000000c000000022
:020000040000fa
:100e2400124b01221a6019008b681a42fcd10f4b35
:100e3400b82252011a600122da6301325a6169321e
:100e44001a64363a5a641d3a9a64da641a65084a8e
:100e5400da62084a00211160802252029a62120268
:100e64001a621a009368002bfcd1704700200042dc
:080e74000ff80f00a0000020a0
:020000040000fa
:100e7c0010b582b0002000f0c5f800210c4800f03d
:100e8c00b9fcfff7f3fd0b4c2000fff789fcfa20af
:100e9c00800000f0cdf80123019300230093230080
:100eac00054a3c213c20fff72bff00f0fff8fee742
:0c0ebc000d180000ffff000018180000d7
:020000040000fa
:100ec80010b5064c2378002b07d1054b002b02d018
:100ed800044800e000bf0123237010bd7c000020ff
:100ee8000000000000000000044b10b5002b03d0e8
:100ef8000349044800e000bf10bdc04600000000e0
:080f0800800000200000000041
:020000040000fa
:100f10000e4b01221a801a00d37b5bb2002bfbdb45
:100f20000a4bac22d2001a80094a1a833b229a73d8
:100f3000084a0021116001225a7312025a811a00d4
:100f4000d37b5bb2002bfbdb7047c046002c00421a
:080f5000ed02000098000020f2
:020000040000fa
:100f580010b50a4b98470a4b984700f039f8094be7
:100f6800ff229343084a9360084b9847084b9847d9
:100f7800084b9847fff77efffee7c0465312000074
:100f8800531200000000000000ed00e0c90d000051
:080f9800531200005312000087
:020000040000fa
:100fa0000a4a0023136213779360d360084a5360a0
:100fb000d369002bfcd1064b01221a73054a1a6033
:100fc0001a00d369002bfcd17047c04650000020a6
:080fd000000800420e000100c0
:020000040000fa
:100fd80010b50b480168002905d14368002b02d1e0
:100fe80000f09dfd10bd04008368064a9bb20c34d6
:100ff8009b009b5842682000984780002018e9e72a
:08100800bc0500002c120000e1
:020000040000fa
:1010100010b5094b06225a60fff7d0fdfff728fef6
:1010200000f0e8fbfff7fefefff7bafffff770ffe7
:0c103000fff79cfe10bdc04600400041d0
:020000040000fa
:10103c0010b5040000f0d0f8002c0ad006480021ae
:10104c00020001701378002bfcd0013ca4b2002ce0
:0c105c00f7d100f0cdf810bdb10000206d
:020000040000fa
:1010680010b5074b987bc0b23b229a73054b1b689f
:10107800002b03d0034b59681b68984710bdc04626
:08108800002c0042980000203a
:020000040000fa
:1010900010b5064a5168064bd86a064cdc62db6a1a
:1010a0001368002b01d01368984710bda0000020e2
:0810b000002000420ff80f00c0
:020000040000fa
:1010b80070b5074d942410232b519620fff7baffe3
:1010c80001232b5101332b511b022b5170bdc046fc
:0410d800004400418f
:020000040000fa
:1010dc0070b5064c10259423e5503220fff7a8ff7d
:1010ec009823e5503220fff7a3ff70bd0044004168
:020000040000fa
:1010fc0010b5054c054b9c4202d8fef7dbff10bd2a
:10110c00043c23689847f5e7d0000000cc000000b1
:020000040000fa
:10111c00002310b5934206d103201840421e904183
:0e112c009b08c01810bdc45ccc540133f2e720
:020000040000fa
:02113a00fee7ce
:020000040000fa
:10113c0010b5054a98230121d1500131d150962088
:0c114c00fff776ff10bdc04600440041d4
:020000040000fa
:10115800ff80ff80ff80dd80ab80ab80d580f28090
:0c116800ea80ed80ff80ff80ff80c04621
:020000040000fa
:10117400ffc0ffc0ffc0e0c0df40b280ac80ad80e4
:0c118400ad40b0c0df00e0c0ffc0c046be
:020000040000fa
:10119000ff80ff80ff80be809c809c80aa80aa8008
:0c11a000aa80b680ff80ff80ff80c04660
:020000040000fa
:1011ac00ff80ff80ff8077006b00aa80aa80aa8056
:0c11bc00aa80dd80ff80ff80ff80c0461d
:020000040000fa
:1011c800ff80ff80ff80ff80ff808180b680b6802f
:0c11d800b680b680ff80ff80ff80c0461c
:020000040000fa
:1011e400044a138802210b431380d37b5bb2002b88
:0811f400fbdb7047002c0042f8
:020000040000fa
:1011fc00044a138802218b431380d37b5bb2002bf0
:08120c00fbdb7047002c0042df
:020000040000fa
:1012140010b5040000f087fcfff76eff00f083fcbc
:06122400200000f077fc41
:020000040000fa
:02122a00fee7dd
:020000040000fa
:10122c00411200001d1100001f1b00001f1b0000bd
:04123c001f1b000074
:020000040000fa
:101240008a18914201d10020704700230b700131b0
:02125000f7e7be
:020000040000fa
:021252007047e3
:020000040000fa
:10125400e0e0e0e0e0e0e0e0e0e0e0e0e000c04624
:020000040000fa
:10126400e0e0e0a0a0a0a0a0e0a0e0e0e000c04694
:020000040000fa
:10127400f0f0f0505050f0f0f0f0f0f0f000c04614
:020000040000fa
:10128400fcfcfcd4d404ac045c5cfcfcfc00c04658
:020000040000fa
:10129400fcfcfc8c541cc4d4548cdcfcfc00c04608
:020000040000fa
:1012a400fefefec6b6ce9e687288fefefe00c046f6
:020000040000fa
:1012b400c0c0c0404040c0c0c0c0c0c0c000c046e4
:020000040000fa
:1012c400e0e0e0c0a06060606060a0c0e000c046f4
:020000040000fa
:1012d400e0e0e060a0c0c0c0c0c0a060e000c046c4
:020000040000fa
:1012e400f0f0f010b050f0f0f0f0f0f0f000c04684
:020000040000fa
:1012f400fcfcfcfcdcdc04dcdcfcfcfcfc00c04690
:020000040000fa
:10130400e0e0e0e0e0e0e0e0e0a0a0e0e000c046f3
:020000040000fa
:10131400e0e0e0e0e0e0e020e0e0e0e0e000c04623
:020000040000fa
:10132400e0e0e0e0e0e0e0e0e0a0e0e0e000c04693
:020000040000fa
:10133400e0e0e0c0c0a0a0a06060e0e0e000c04643
:020000040000fa
:10134400fcfcfc8c74747474748cfcfcfc00c0464f
:020000040000fa
:10135400fcfcfcecccacececececfcfcfc00c04687
:020000040000fa
:10136400fcfcfc8c74f4ecdcbc04fcfcfc00c0460f
:020000040000fa
:10137400fcfcfc8c74f4ccf4748cfcfcfc00c046c7
:020000040000fa
:10138400fcfcfce4d4b47400f4f4fcfcfc00c046a3
:020000040000fa
:10139400fcfcfc84bc0c74f4748cfcfcfc00c046a7
:020000040000fa
:1013a400fcfcfc8c740c7474748cfcfcfc00c04657
:020000040000fa
:1013b400fcfcfc04ececdcdcbcbcfcfcfc00c0462f
:020000040000fa
:1013c400fcfcfc8c74748c74748cfcfcfc00c046b7
:020000040000fa
:1013d400fcfcfc8c74747484748cfcfcfc00c046af
:020000040000fa
:1013e400e0e0e0e0e0a0e0e0e0a0e0e0e000c04613
:020000040000fa
:1013f400e0e0e0e0e0a0e0e0e0a0a0e0e000c04643
:020000040000fa
:10140400fcfcfcfcf4ccbcccf4fcfcfcfc00c046b6
:020000040000fa
:10141400fcfcfcfcfc04fc04fcfcfcfcfc00c046e6
:020000040000fa
:10142400fcfcfcfcbcccf4ccbcfcfcfcfc00c046ce
:020000040000fa
:10143400fcfcfc8478f8e4ecfcecfcfcfc00c0460e
:020000040000fa
:10144400fefefeeed6d6ba82ba7cfefefe00c04692
:020000040000fa
:10145400fefefe86baba82baba86fefefe00c04618
:020000040000fa
:10146400fefefec6babebebebac6fefefe00c04644
:020000040000fa
:10147400fefefe8eb6bababab68efefefe00c046b8
:020000040000fa
:10148400fefefe82bebe82bebe82fefefe00c046e0
:020000040000fa
:10149400fcfcfc84bcbc8cbcbcbcfcfcfc00c0469e
:020000040000fa
:1014a400ffffffe7dbbfb1bddbe7ffffff00c04687
:020000040000fa
:1014b400fefefebababa82bababafefefe00c04650
:020000040000fa
:1014c400e0e0e0a0a0a0a0a0a0a0e0e0e000c04672
:020000040000fa
:1014d400f8f8f8e8e8e8e8e86818f8f8f800c0462a
:020000040000fa
:1014e400fefefebab6aeae96babcfefefe00c04626
:020000040000fa
:1014f400fcfcfcbcbcbcbcbcbc80fcfcfc00c04612
:020000040000fa
:10150400fefefeba9a9aaab2b2bafefefe00c04627
:020000040000fa
:10151400ffffffc3bdbdbdbdbdc3ffffff00c04690
:020000040000fa
:10152400fefefe86baba86bebebefefefe00c04603
:020000040000fa
:10153400ffffffc3bdbdbdbdb3c1ffffff00c0467c
:020000040000fa
:10154400fefefe86baba86b6babafefefe00c046f3
:020000040000fa
:10155400fefefec6babec6fabac6fefefe00c0460f
:020000040000fa
:10156400fefefe82eeeeeeeeeeeefefefe00c04667
:020000040000fa
:10157400fefefebabababababac6fefefe00c0464b
:020000040000fa
:10158400fefefe7cbababad6d6eefefefe00c04619
:020000040000fa
:10159400fefefebad6eeeed6ba7cfefefe00c046d5
:020000040000fa
:1015a400fefefe7cbad6eeeeeeeefefefe00c04679
:020000040000fa
:1015b400fcfcfc00f0e4cc9c7c00fcfcfc00c04681
:020000040000fa
:1015c400e0e0e080a0a0a0a0a0a0a080e000c04631
:020000040000fa
:1015d400e0e0e06060a0a0a0c0c0e0e0e000c046a1
:020000040000fa
:1015e400e0e0e020a0a0a0a0a0a0a020e000c046d1
:020000040000fa
:1015f400f8f8f8d8a8a870f8f8f8f8f8f800c04691
:020000040000fa
:10160400fcfcfcfcfcfcfcfcfcfcfc00fc00c04600
:020000040000fa
:10161400e0e0e060a0e0e0e0e0e0e0e0e000c04620
:020000040000fa
:10162400fcfcfcfcfcc4f4c4b484fcfcfc00c0461c
:020000040000fa
:10163400fcfcfcbcbc8cb4b4b48cfcfcfc00c0460c
:020000040000fa
:10164400f8f8f8f8f8c8b0b8b0c8f8f8f800c04628
:020000040000fa
:10165400fcfcfcf4f4c4b4b4b4c4fcfcfc00c0460c
:020000040000fa
:10166400fcfcfcfcfcccb484bcc4fcfcfc00c0460c
:020000040000fa
:10167400e0e0e0c0a000a0a0a0a0e0e0e000c04640
:020000040000fa
:10168400fcfcfcfcfcc4b4b4b4c4b4ccfc00c04644
:020000040000fa
:10169400fcfcfcbcbc8cb4b4b4b4fcfcfc00c04684
:020000040000fa
:1016a400e0e0e0a0e0a0a0a0a0a0e0e0e000c04650
:020000040000fa
:1016b400e0e0e0a0e0a0a0a0a0a0a060e000c04600
:020000040000fa
:1016c400f0f0f070706050105060f0f0f000c04620
:020000040000fa
:1016d400e0e0e0a0a0a0a0a0a0a0e0e0e000c04660
:020000040000fa
:1016e400fcfcfcfcfc8cb4b4b4b4fcfcfc00c046b4
:020000040000fa
:1016f400fcfcfcfcfcccb4b4b4ccfcfcfc00c0464c
:020000040000fa
:10170400fcfcfcfcfc8cb4b4b48cbcbcfc00c0463b
:020000040000fa
:10171400fcfcfcfcfcc4b4b4b4c4f4f4fc00c0464b
:020000040000fa
:10172400e0e0e0e0e080a0a0a0a0e0e0e000c046af
:020000040000fa
:10173400f0f0f0f0f0807090e010f0f0f000c046af
:020000040000fa
:10174400e0e0e0a0a000a0a0a080e0e0e000c046af
:020000040000fa
:10175400fcfcfcfcfcb4b4b4b4c4fcfcfc00c0460b
:020000040000fa
:10176400f8f8f8f8f870a8a8a8d8f8f8f800c0466f
:020000040000fa
:10177400fefefefefe6c545454bafefefe00c0464d
:020000040000fa
:10178400f8f8f8f8f870a8d8a870f8f8f800c04687
:020000040000fa
:10179400f8f8f8f8f870a8a8a8d8d8b8f800c0469f
:020000040000fa
:1017a400f8f8f8f8f800e8d8b800f8f8f800c046f7
:020000040000fa
:1017b400e0e0e080a0a0a060a0a0a080e000c0467f
:020000040000fa
:1017c400e0e0e0a0a0a0a0a0a0a0a0a0e000c046ef
:020000040000fa
:1017d400e0e0e020a0a0a0c0a0a0a020e000c046bf
:020000040000fa
:1017e400fcfcfcfcfcfc1444fcfcfcfcfc00c046c3
:020000040000fa
:0c17f400014b82225a6070470040004107
:020000040000fa
:0c180000014b18605960704798000020f0
:020000040000fa
:0c180c00014b01221a707047b10000204f
:020000040000fa
:0818180048656c6c6f00c046ce
:020000040000fa
:0818200054120000030d00004a
:020000040000fa
:0818280064120000030d000032
:020000040000fa
:0818300074120000040d000019
:020000040000fa
:0818380084120000060d0000ff
:020000040000fa
:0818400094120000060d0000e7
:020000040000fa
:0818480058110000090d000019
:020000040000fa
:08185000a4120000070d0000c6
:020000040000fa
:08185800b4120000020d0000b3
:020000040000fa
:08186000c4120000030d00009a
:020000040000fa
:08186800d4120000030d000082
:020000040000fa
:08187000e4120000040d000069
:020000040000fa
:08187800f4120000060d00004f
:020000040000fa
:0818800004130000030d000039
:020000040000fa
:0818880014130000030d000021
:020000040000fa
:0818900024130000030d000009
:020000040000fa
:0818980034130000030d0000f1
:020000040000fa
:0818a00044130000060d0000d6
:020000040000fa
:0818a80054130000060d0000be
:020000040000fa
:0818b00064130000060d0000a6
:020000040000fa
:0818b80074130000060d00008e
:020000040000fa
:0818c00084130000060d000076
:020000040000fa
:0818c80094130000060d00005e
:020000040000fa
:0818d000a4130000060d000046
:020000040000fa
:0818d800b4130000060d00002e
:020000040000fa
:0818e000c4130000060d000016
:020000040000fa
:0818e800d4130000060d0000fe
:020000040000fa
:0818f000e4130000030d0000e9
:020000040000fa
:0818f800f4130000030d0000d1
:020000040000fa
:0819000004140000060d0000b4
:020000040000fa
:0819080014140000060d00009c
:020000040000fa
:0819100024140000060d000084
:020000040000fa
:0819180034140000060d00006c
:020000040000fa
:08192000741100000a0d000023
:020000040000fa
:0819280044140000070d00004b
:020000040000fa
:0819300054140000070d000033
:020000040000fa
:0819380064140000070d00001b
:020000040000fa
:0819400074140000070d000003
:020000040000fa
:0819480084140000070d0000eb
:020000040000fa
:0819500094140000060d0000d4
:020000040000fa
:08195800a4140000080d0000ba
:020000040000fa
:08196000b4140000070d0000a3
:020000040000fa
:08196800c4140000030d00008f
:020000040000fa
:08197000d4140000050d000075
:020000040000fa
:08197800e4140000070d00005b
:020000040000fa
:08198000f4140000060d000044
:020000040000fa
:0819880090110000090d0000a0
:020000040000fa
:0819900004150000070d000022
:020000040000fa
:0819980014150000080d000009
:020000040000fa
:0819a00024150000070d0000f2
:020000040000fa
:0819a80034150000080d0000d9
:020000040000fa
:0819b00044150000070d0000c2
:020000040000fa
:0819b80054150000070d0000aa
:020000040000fa
:0819c00064150000070d000092
:020000040000fa
:0819c80074150000070d00007a
:020000040000fa
:0819d00084150000070d000062
:020000040000fa
:0819d800ac110000090d000034
:020000040000fa
:0819e00094150000070d000042
:020000040000fa
:0819e800a4150000070d00002a
:020000040000fa
:0819f000b4150000060d000013
:020000040000fa
:0819f800c4150000030d0000fe
:020000040000fa
:081a0000d4150000030d0000e5
:020000040000fa
:081a0800e4150000030d0000cd
:020000040000fa
:081a1000f4150000050d0000b3
:020000040000fa
:081a180004160000060d000099
:020000040000fa
:081a200014160000030d000084
:020000040000fa
:081a280024160000060d000069
:020000040000fa
:081a300034160000060d000051
:020000040000fa
:081a380044160000050d00003a
:020000040000fa
:081a400054160000060d000021
:020000040000fa
:081a480064160000060d000009
:020000040000fa
:081a500074160000030d0000f4
:020000040000fa
:081a580084160000060d0000d9
:020000040000fa
:081a600094160000060d0000c1
:020000040000fa
:081a6800a4160000030d0000ac
:020000040000fa
:081a7000b4160000030d000094
:020000040000fa
:081a7800c4160000040d00007b
:020000040000fa
:081a8000d4160000030d000064
:020000040000fa
:081a8800c8110000090d000067
:020000040000fa
:081a9000e4160000060d000041
:020000040000fa
:081a9800f4160000060d000029
:020000040000fa
:081aa00004170000060d000010
:020000040000fa
:081aa80014170000060d0000f8
:020000040000fa
:081ab00024170000030d0000e3
:020000040000fa
:081ab80034170000040d0000ca
:020000040000fa
:081ac00044170000030d0000b3
:020000040000fa
:081ac80054170000060d000098
:020000040000fa
:081ad00064170000050d000081
:020000040000fa
:081ad80074170000070d000067
:020000040000fa
:081ae00084170000050d000051
:020000040000fa
:081ae80094170000050d000039
:020000040000fa
:081af000a4170000050d000021
:020000040000fa
:081af800b4170000030d00000b
:020000040000fa
:081b0000c4170000030d0000f2
:020000040000fa
:081b0800d4170000030d0000da
:020000040000fa
:081b1000e4170000060d0000bf
:020000040000fa
:061b180010b500f003f817
:020000040000fa
:041b1e0000207047ec
:020000040000fa
:021b2200fee7dc
:020000040000fa
:021b2400fee7da
:020000040000fa
:021b2600704706
:020000040000fa
:021b2800704704
:020000040000fa
:021b2a00704702
:020000040000fa
:0200000400807a
:0440000077c700d8a6
:020000040000fa
:0200000400807a
:044004005c00ffff5e
:00000001FF
