:020000040000fa
:10000000f87f0020b10f0000b7110000a712000018
:1000100000000000000000000000000000000000e0
:10002000000000000000000000000000a31b000012
:100030000000000000000000a31b0000a31b000044
:10004000a31b0000a31b0000a31b0000a31b0000b8
:10005000a31b0000a31b0000a31b0000a31b0000a8
:10006000a31b0000c9090000a31b0000a31b000084
:10007000a31b0000a31b0000a31b00003111000004
:10008000a31b0000a31b000009110000a31b00001c
:10009000a31b0000a31b0000a31b0000a31b000068
:1000a000a31b0000a31b0000a31b0000a31b000058
:020000040000fa
:1000b000f8b5c046f8bc08bc9e467047490f000022
:1000c000f8b5c046f8bc08bc9e467047210f00003a
:020000040000fa
:1000d000f0b5de4657464e464546e0b589b00400c9
:1000e000069003911278203ad2b294469000ba4a10
:1000f000825817795279002a00d162e1180a0490d7
:1001000088464244d2b2059200263a19d2b20792ea
:100110004ce1802900d923e10398802800d91fe110
:10012000ae48804694202027b94647464d463d506c
:10013000ed00a94645464f462f50a9482a2585621d
:100140008046019d029f4046007e1042fbd00195f3
:100150000297a2489825aa466835a94655464f46b3
:1001600047514d1ca8462025ab4655465f46475192
:10017000043d4f4647519a48002585628146019dbe
:10018000029f4846007e1042fbd0aa46944845464e
:100190008562814655464846007e1042fbd0019557
:1001a00002978e489825aa466835a94655464f4677
:1001b0004751783dab4655465f464751043d4f4653
:1001c00047518748002585628146019d029f484628
:1001d000007e1042fbd0a946814845468562804694
:1001e0004d464046007e1042fbd00195bb467b4801
:1001f00080256d00a946683d4f464751043da846fd
:10020000743daa464546574647514f4647517448a4
:10021000693d85628046019d5f464046007e1042f2
:10022000fbd0019502976d489825aa466835a946e6
:1002300055464f464751039d0235a8462025ab46fb
:1002400055465f464751043d4f4647516448002597
:1002500085628146019d029f4846007e1042fbd088
:10026000aa465f4845468562814655464846007e17
:100270001042fbd00195029758489825aa46683548
:10028000a94655464f464751783dab4655465f46d1
:100290004751043d4f4647515148002585628146ec
:1002a000019d029f4846007e1042fbd0a9464c4863
:1002b0004546856280464d464046007e1042fbd052
:1002c0000195bb46454880256d00a946683d4f46cf
:1002d0004751043da846743daa46454657464751f6
:1002e0004f4647513e48683d85628046019d5f46c6
:1002f0004046007e1042fbd00195bb46374898250a
:10030000a9466835a8464d4647464751783daa4616
:100310004d4657464751043d474647513048049d96
:1003200085628046019d5f464046007e1042fbd0bc
:10033000b946ff2018402a4fb86238004f46984609
:10034000037e1342fcd00195029743462348804622
:10035000982080256d00a94645464f462f5012e053
:10036000012000f095ff0136f6b280340131c9b2a8
:100370008c450fd001988000174fc0590068805df0
:10038000204200d1c5e6640802980828eed9002c66
:10039000ecd1e8e7019a9446029f039d0135eab249
:1003a00003920136f6b205998a420ad0002ff4d0a2
:1003b000069980240222604601900297079884469d
:1003c000d8e7084b1a78bf181f7009b03cbc90469c
:1003d0009946a246ab46f0bdb4000020004400415f
:0803e00000080042b2000020f9
:020000040000fa
:1003e800f0b5de4657464e464546e0b583b08146f1
:1003f8009c460cab1b8898461778203fffb2ba0082
:10040800914bd3581e795b790193451e7519edb24e
:100418004a1e9a465244d2b2854200d2bfe0802d8d
:1004280000d9bce08a4200d2b9e0802a00d9b6e0ff
:10043800864c94232020e050c000e050844b2a24ae
:100448009c621800283c037e2342fcd07f4b9820f6
:100458008246802464001c5097388346d9441f3054
:1004680054461851743068341c504b46180a784b5f
:1004780098621800fe3c037e2342fcd0ff204b46c6
:100488001840734b98621c000220237e0342fcd064
:100498006e4b982480204000824618510135e03880
:1004a8001851043c50461851694b002098621c00b2
:1004b8000230237e0342fcd0654b9d621c00022063
:1004c800237e0342fcd0614b8024640098201c509a
:1004d800043820251d501c505d4b693898621c005b
:1004e8002938237e0342fcd0584b982480204000b2
:1004f8001851023120251d51043c1851080a544b4b
:1005080098621c000220237e0342fcd0ff2319407e
:100518004f4b996218000221037e0b42fcd04b4bd3
:100528009820802149001950023220241c50043898
:100538001950474b0021996218000231037e0b4283
:10054800fcd0434b9a62190002220b7e1342fcd066
:100558003e4b8021490098229950043a2020985017
:1005680099503b4b683a9a6219002a3a0b7e13421b
:10057800fcd0364b9821802252005a5020205850e7
:1005880004395a50019b002b4ed043461b0a9a4609
:1005980063461b0a994600239b4600253ee001203e
:1005a80000f072fe2a4a544694621400227e1a42cf
:1005b800fcd0ff2244462240254ca262227e1a42e9
:1005c800fcd019e00131c9b28e421ed0ba001e4ccf
:1005d80012591268525d0242e4d01d4a4c46946298
:1005e8001400227e1a42fcd0ff2264462240184c96
:1005f800a262227e1a42fcd04008082ee2d90028c6
:10060800e0d10135edb28030dce70135edb25c4672
:100618000134e3b29b46019b5b4505d00021802055
:100628000223002ed2d1f0e7084a982380214900fe
:10063800d150084b1a78b6181e7003b03cbc9046cf
:100648009946a246ab46f0bdb400002000440041e4
:0806580000080042b20000207e
:020000040000fa
:100660007c0000201c00000000000000b000002002
:100670000100000000000000500000202c000000dd
:1006800000000000980000201000000000000000a2
:10069000b10000200300000000000000b4000020b2
:1006a0007c01000001000000a0180000a818000054
:1006b000b0180000b8180000c0180000c8180000ea
:1006c000d0180000d8180000e0180000e81800005a
:1006d000f0180000f81800000019000008190000c8
:1006e0001019000018190000201900002819000036
:1006f00030190000381900004019000048190000a6
:100700005019000058190000601900006819000015
:100710007019000078190000801900008819000085
:100720009019000098190000a0190000a8190000f5
:10073000b0190000b8190000c0190000c819000065
:10074000d0190000d8190000e0190000e8190000d5
:10075000f0190000f8190000001a0000081a000043
:10076000101a0000181a0000201a0000281a0000b1
:10077000301a0000381a0000401a0000481a000021
:10078000501a0000581a0000601a0000681a000091
:10079000701a0000781a0000801a0000881a000001
:1007a000901a0000981a0000a01a0000a81a000071
:1007b000b01a0000b81a0000c01a0000c81a0000e1
:1007c000d01a0000d81a0000e01a0000e81a000051
:1007d000f01a0000f81a0000001b0000081b0000bf
:1007e000101b0000181b0000201b0000281b00002d
:1007f000301b0000381b0000401b0000481b00009d
:10080000501b0000581b0000601b0000681b00000c
:10081000701b0000781b0000801b0000881b00007c
:10082000901b0000a8000020040000000000000051
:10083000000000205000000000000000ac0000207c
:1008400004000000000000000000000000000000a4
:020000040000fa
:1008500030b55b4a94232021d150c900d150594b67
:100860002a229a621a000223117e1942fcd0544bac
:100870009821802252005a5020245c5004395a504a
:10088000504b00229a621a000223117e1942fcd0ba
:100890004c4b02229a621a000223117e1942fcd0ac
:1008a000474b9821802252005a5020245c50043932
:1008b0005a50444b00229a621a000223117e1942b8
:1008c000fcd0404b81229a621a000223117e194209
:1008d000fcd03b4b8021490098229950043a2024b7
:1008e0009c509950374b693a9a621a000223117e44
:1008f0001942fcd0324b9821802252005a502024b9
:100900005c5004395a502f4b00229a621a0002237d
:10091000117e1942fcd02b4b03229a621a0002234b
:10092000117e1942fcd0264b9821802252005a5049
:1009300020245c5004395a50224b00229a621a003b
:100940000223117e1942fcd01e4b82229a621a00a9
:100950000223117e1942fcd0194b802149009822b4
:100960009950043a20249c509950164b683a9a6248
:100970001a000223117e1942fcd0114b98218022cb
:1009800052005a5020245c5004395a50050a8023e2
:10099000db010c4a1e3c6b3101409562107e204207
:1009a000fcd09162107e2042fcd0013b9bb2002b18
:1009b000f3d1034a983380214900d15030bdc0465d
:0809c000004400410008004260
:020000040000fa
:1009c80070b5504b586a504b9b7d002b54d04e4904
:1009d8004c68072214404b4b5a699d699e680b7ef0
:1009e8005b0757d5896a474bdb68934252d9002c7d
:1009f80043d1444b5b6899540132434b1b7edb0760
:100a080016d5414b012119753e4b9b68ab4256d90f
:100a18003c4b1b68595d3c4b99620135394b1b694e
:100a2800002b01d1b54262d0364bdb68934262d0cd
:100a3800344b5a619d61344b1b7e9b0715d5334b54
:100a48001b78002b18d02f4bdb68934211d12d4b0c
:100a580000221a772c4907240c752c490a701b6a46
:100a6800002b09d0274b1b6a9847284b1b78002b73
:100a780002d0254b02229a7570bd224b5b68540048
:100a8800e1520132204b1b7edb07d1d51e4b0121e1
:100a9800197508e01c4b1b7edb07c9d51a4b0121d1
:100aa8001975002cb0d0174b9b68ab4213d9154b66
:100ab8001b686900c95a144b99620135aee7114b9e
:100ac8001b69002baad0104bff2199620d490b69b5
:100ad800013b0b61a2e70b4b1b69002b9ed00a4b15
:100ae8000b49996207490b69013b0b6196e7074b74
:100af800012119709ce7044b01219975033119757f
:100b080096e7c0465000002000080042b0000020d0
:040b1800ffff0000db
:020000040000fa
:100b1c0070b500f04bfb4d4c982380229200e250b4
:100b2c0000f014fb94232022e250d200e250484bf8
:100b3c00ff3a9a62190001320b7e1342fcd0434cef
:100b4c0080256d009823e550782000f0c1fa94239d
:100b5c002022e250e5503e4b0f3a9a6219000f3ab0
:100b6c000b7e1342fcd0394c80256d009823e55048
:100b7c00782000f0adfa94232022e250e550344b5b
:100b8c001a329a621900383a0b7e1342fcd02f4b62
:100b9c009821802252005a502020585004395a5023
:100bac002b4bfb3a9a621900033a0b7e1342fcd092
:100bbc00264b8021490098229950043a20209850c5
:100bcc009950234b5e3a9a621900343a0b7e1342c9
:100bdc00fcd01e4b9821802252005a502020585095
:100bec0004395a501a4b383a9a621900c63a0b7e9d
:100bfc001342fcd0154b8021490098229950043a9d
:100c0c00202098509950124b813a9a621900113a4f
:100c1c000b7e1342fcd00d4b802149009822995039
:100c2c00043a202098509950094b6b3a9a6219005b
:100c3c00273a0b7e1342fcd0044a982380214900aa
:100c4c00d1500a2000f044fa70bdc0460044004167
:040c5c00000800424a
:020000040000fa
:100c600010b5274b274a1a60274a1a6100224221f1
:100c70005a5441394420195402301954013019543e
:100c8000053105301954013019540130195401301f
:100c90001a54033019540130195422381a540130af
:100ca00004241c540130185403301a5401301a54cf
:100cb00002301a544730154c1c501030144c1c5044
:100cc00030301a5401301a5403301a5401301a5477
:100cd00003301a5401301a54053019540130195494
:100ce0000130195401301954aa315a5402315a545e
:100cf00002315a5403315a5401315a5410bdc0467e
:100d0000004400410480000004700c003303000024
:040d100010c103000b
:020000040000fa
:100d14001d4b00229a619a8c80218a439a841a007e
:100d24001023d1680b42fcd0184b1b689b0e3f2b41
:100d340027d09b02802292001343134a936210230c
:100d4400d1680b42fcd0104b02229a841a00102363
:100d5400d1680b42fcd00e4b0e4a5a601a005378ed
:100d64005bb2002bfbdb0a4b0b4a5a800b4a5a80be
:100d74000b4a5a800b4b0c4a1a62034b00221a622c
:100d84007047203bd5e7c04600080040246080003f
:100d9400000c004000070100144000001a4000004d
:0c0da4001b400000000400400409010096
:020000040000fa
:100db000f0b583b014001e0008ab1f8809ab1d7886
:100dc000114b1870114b19701378002b17d103b009
:100dd000f0bd0e4b19780c4b18783b002200fff742
:100de00077f908e0094b1978074b1878009733001a
:100df0002200fff7f9fa01342378002be7d0012d08
:100e0000e7d0002df7d1ede7b2000020b3000020bd
:020000040000fa
:100e1000bff35f8f62b6124bc22080001a5811498f
:100e20001140c02212020a431a50802292001a6016
:100e300004301a581202120ac02109060a431a5035
:100e4000802212021a6004301a5807491140c02249
:100e500012040a431a508022d2021a607047c04618
:0c0e600000e100e0ff00ffffffff00ffcb
:020000040000fa
:100e6c0000230e4a10b513600d4a13600d4a13602f
:100e7c000d4a13600d4a13600d4a5362136101331e
:100e8c00936000f08bfe00f089fe0a4c0a4b9c42ea
:100e9c0000d310bd08cc9847f8e7c046ac00002042
:100eac000c0000200800002000000020040000209e
:0c0ebc0010000020bc000000c00000007e
:020000040000fa
:100ec800124b01221a6019008b681a42fcd10f4b91
:100ed800b82252011a600122da6301325a6169327a
:100ee8001a64363a5a641d3a9a64da641a65084aea
:100ef800da62084a00211160802252029a621202c4
:100f08001a621a009368002bfcd170470020004237
:080f18000ff80f00a0000020fb
:020000040000fa
:100f200010b5064c2378002b07d1054b002b02d0bf
:100f3000044800e000bf0123237010bd7c000020a6
:100f40000000000000000000044b10b5002b03d08f
:100f50000349044800e000bf10bdc0460000000087
:080f60008000002000000000e9
:020000040000fa
:100f68000e4b01221a801a00d37b5bb2002bfbdbed
:100f78000a4bac22d2001a80094a1a833b229a7380
:100f8800084a0021116001225a7312025a811a007c
:100f9800d37b5bb2002bfbdb7047c046002c0042c2
:080fa800ed020000980000209a
:020000040000fa
:100fb00010b50a4b98470a4b984700f05df8094b6b
:100fc000ff229343084a9360084b9847084b984781
:100fd000084b984700f010f8fee7c046cf1200001b
:100fe000cf1200000000000000ed00e06d0e0000d8
:080ff000cf120000cf12000037
:020000040000fa
:100ff80000b583b0002000f057f800210b4800f03e
:1010080039fcfff787fd0a48fff71efcfa2080002d
:1010180000f060f801230193002300931f33054a71
:101028003c210a20fff7c0fefee7c04695180000e5
:08103800ffff00008818000012
:020000040000fa
:101040000a4a0023136213779360d360084a5360ff
:10105000d369002bfcd1064b01221a73054a1a6092
:101060001a00d369002bfcd17047c0465000002005
:08107000000800420e0001001f
:020000040000fa
:1010780010b50b480168002905d14368002b02d13f
:1010880000f08dfd10bd04008368064a9bb20c3445
:101098009b009b5842682000984780002018e9e789
:0810a80060060000a812000020
:020000040000fa
:1010b00010b5094b06225a60fff7d2fdfff72afe52
:1010c00000f0d6fbfff700fffff7bafffff74cff7a
:0c10d000fff79efe10bdc046004000412e
:020000040000fa
:1010dc0010b5040000f0bef8002c0ad00648002120
:1010ec00020001701378002bfcd0013ca4b2002c40
:0c10fc00f7d100f0bbf810bdb1000020df
:020000040000fa
:1011080010b5074b987bc0b23b229a73054b1b68fe
:10111800002b03d0034b59681b68984710bdc04685
:08112800002c00429800002099
:020000040000fa
:1011300010b5064a5168064bd86a064cdc62db6a79
:101140001368002b01d01368984710bda000002041
:08115000002000420ff80f001f
:020000040000fa
:1011580070b5064c10259423e5503220fff7baffee
:101168009823e5503220fff7b5ff70bd00440041d9
:020000040000fa
:1011780010b5054c054b9c4202d8fef79dff10bdeb
:10118800043c23689847f5e7d0000000cc00000035
:020000040000fa
:10119800002310b5934206d103201840421e904107
:0e11a8009b08c01810bdc45ccc540133f2e7a4
:020000040000fa
:0211b600fee752
:020000040000fa
:1011b80010b5054a98230121d1500131d15096200c
:0c11c800fff788ff10bdc0460044004146
:020000040000fa
:1011d400ff80ff80ff80dd80ab80ab80d580f28014
:0c11e400ea80ed80ff80ff80ff80c046a5
:020000040000fa
:1011f000ffc0ffc0ffc0e0c0df40b280ac80ad8068
:0c120000ad40b0c0df00e0c0ffc0c04641
:020000040000fa
:10120c00ff80ff80ff80be809c809c80aa80aa808b
:0c121c00aa80b680ff80ff80ff80c046e3
:020000040000fa
:10122800ff80ff80ff8077006b00aa80aa80aa80d9
:0c123800aa80dd80ff80ff80ff80c046a0
:020000040000fa
:10124400ff80ff80ff80ff80ff808180b680b680b2
:0c125400b680b680ff80ff80ff80c0469f
:020000040000fa
:10126000044a138802210b431380d37b5bb2002b0b
:08127000fbdb7047002c00427b
:020000040000fa
:10127800044a138802218b431380d37b5bb2002b73
:08128800fbdb7047002c004263
:020000040000fa
:1012900010b5040000f089fcfff76eff00f085fc3c
:0612a000200000f079fcc3
:020000040000fa
:0212a600fee761
:020000040000fa
:1012a800bd120000991100009f1b00009f1b000049
:0412b8009f1b000078
:020000040000fa
:1012bc008a18914201d10020704700230b70013134
:0212cc00f7e742
:020000040000fa
:0212ce00704767
:020000040000fa
:1012d000e0e0e0e0e0e0e0e0e0e0e0e0e000c046a8
:020000040000fa
:1012e000e0e0e0a0a0a0a0a0e0a0e0e0e000c04618
:020000040000fa
:1012f000f0f0f0505050f0f0f0f0f0f0f000c04698
:020000040000fa
:10130000fcfcfcd4d404ac045c5cfcfcfc00c046db
:020000040000fa
:10131000fcfcfc8c541cc4d4548cdcfcfc00c0468b
:020000040000fa
:10132000fefefec6b6ce9e687288fefefe00c04679
:020000040000fa
:10133000c0c0c0404040c0c0c0c0c0c0c000c04667
:020000040000fa
:10134000e0e0e0c0a06060606060a0c0e000c04677
:020000040000fa
:10135000e0e0e060a0c0c0c0c0c0a060e000c04647
:020000040000fa
:10136000f0f0f010b050f0f0f0f0f0f0f000c04607
:020000040000fa
:10137000fcfcfcfcdcdc04dcdcfcfcfcfc00c04613
:020000040000fa
:10138000e0e0e0e0e0e0e0e0e0a0a0e0e000c04677
:020000040000fa
:10139000e0e0e0e0e0e0e020e0e0e0e0e000c046a7
:020000040000fa
:1013a000e0e0e0e0e0e0e0e0e0a0e0e0e000c04617
:020000040000fa
:1013b000e0e0e0c0c0a0a0a06060e0e0e000c046c7
:020000040000fa
:1013c000fcfcfc8c74747474748cfcfcfc00c046d3
:020000040000fa
:1013d000fcfcfcecccacececececfcfcfc00c0460b
:020000040000fa
:1013e000fcfcfc8c74f4ecdcbc04fcfcfc00c04693
:020000040000fa
:1013f000fcfcfc8c74f4ccf4748cfcfcfc00c0464b
:020000040000fa
:10140000fcfcfce4d4b47400f4f4fcfcfc00c04626
:020000040000fa
:10141000fcfcfc84bc0c74f4748cfcfcfc00c0462a
:020000040000fa
:10142000fcfcfc8c740c7474748cfcfcfc00c046da
:020000040000fa
:10143000fcfcfc04ececdcdcbcbcfcfcfc00c046b2
:020000040000fa
:10144000fcfcfc8c74748c74748cfcfcfc00c0463a
:020000040000fa
:10145000fcfcfc8c74747484748cfcfcfc00c04632
:020000040000fa
:10146000e0e0e0e0e0a0e0e0e0a0e0e0e000c04696
:020000040000fa
:10147000e0e0e0e0e0a0e0e0e0a0a0e0e000c046c6
:020000040000fa
:10148000fcfcfcfcf4ccbcccf4fcfcfcfc00c0463a
:020000040000fa
:10149000fcfcfcfcfc04fc04fcfcfcfcfc00c0466a
:020000040000fa
:1014a000fcfcfcfcbcccf4ccbcfcfcfcfc00c04652
:020000040000fa
:1014b000fcfcfc8478f8e4ecfcecfcfcfc00c04692
:020000040000fa
:1014c000fefefeeed6d6ba82ba7cfefefe00c04616
:020000040000fa
:1014d000fefefe86baba82baba86fefefe00c0469c
:020000040000fa
:1014e000fefefec6babebebebac6fefefe00c046c8
:020000040000fa
:1014f000fefefe8eb6bababab68efefefe00c0463c
:020000040000fa
:10150000fefefe82bebe82bebe82fefefe00c04663
:020000040000fa
:10151000fcfcfc84bcbc8cbcbcbcfcfcfc00c04621
:020000040000fa
:10152000ffffffe7dbbfb1bddbe7ffffff00c0460a
:020000040000fa
:10153000fefefebababa82bababafefefe00c046d3
:020000040000fa
:10154000e0e0e0a0a0a0a0a0a0a0e0e0e000c046f5
:020000040000fa
:10155000f8f8f8e8e8e8e8e86818f8f8f800c046ad
:020000040000fa
:10156000fefefebab6aeae96babcfefefe00c046a9
:020000040000fa
:10157000fcfcfcbcbcbcbcbcbc80fcfcfc00c04695
:020000040000fa
:10158000fefefeba9a9aaab2b2bafefefe00c046ab
:020000040000fa
:10159000ffffffc3bdbdbdbdbdc3ffffff00c04614
:020000040000fa
:1015a000fefefe86baba86bebebefefefe00c04687
:020000040000fa
:1015b000ffffffc3bdbdbdbdb3c1ffffff00c04600
:020000040000fa
:1015c000fefefe86baba86b6babafefefe00c04677
:020000040000fa
:1015d000fefefec6babec6fabac6fefefe00c04693
:020000040000fa
:1015e000fefefe82eeeeeeeeeeeefefefe00c046eb
:020000040000fa
:1015f000fefefebabababababac6fefefe00c046cf
:020000040000fa
:10160000fefefe7cbababad6d6eefefefe00c0469c
:020000040000fa
:10161000fefefebad6eeeed6ba7cfefefe00c04658
:020000040000fa
:10162000fefefe7cbad6eeeeeeeefefefe00c046fc
:020000040000fa
:10163000fcfcfc00f0e4cc9c7c00fcfcfc00c04604
:020000040000fa
:10164000e0e0e080a0a0a0a0a0a0a080e000c046b4
:020000040000fa
:10165000e0e0e06060a0a0a0c0c0e0e0e000c04624
:020000040000fa
:10166000e0e0e020a0a0a0a0a0a0a020e000c04654
:020000040000fa
:10167000f8f8f8d8a8a870f8f8f8f8f8f800c04614
:020000040000fa
:10168000fcfcfcfcfcfcfcfcfcfcfc00fc00c04684
:020000040000fa
:10169000e0e0e060a0e0e0e0e0e0e0e0e000c046a4
:020000040000fa
:1016a000fcfcfcfcfcc4f4c4b484fcfcfc00c046a0
:020000040000fa
:1016b000fcfcfcbcbc8cb4b4b48cfcfcfc00c04690
:020000040000fa
:1016c000f8f8f8f8f8c8b0b8b0c8f8f8f800c046ac
:020000040000fa
:1016d000fcfcfcf4f4c4b4b4b4c4fcfcfc00c04690
:020000040000fa
:1016e000fcfcfcfcfcccb484bcc4fcfcfc00c04690
:020000040000fa
:1016f000e0e0e0c0a000a0a0a0a0e0e0e000c046c4
:020000040000fa
:10170000fcfcfcfcfcc4b4b4b4c4b4ccfc00c046c7
:020000040000fa
:10171000fcfcfcbcbc8cb4b4b4b4fcfcfc00c04607
:020000040000fa
:10172000e0e0e0a0e0a0a0a0a0a0e0e0e000c046d3
:020000040000fa
:10173000e0e0e0a0e0a0a0a0a0a0a060e000c04683
:020000040000fa
:10174000f0f0f070706050105060f0f0f000c046a3
:020000040000fa
:10175000e0e0e0a0a0a0a0a0a0a0e0e0e000c046e3
:020000040000fa
:10176000fcfcfcfcfc8cb4b4b4b4fcfcfc00c04637
:020000040000fa
:10177000fcfcfcfcfcccb4b4b4ccfcfcfc00c046cf
:020000040000fa
:10178000fcfcfcfcfc8cb4b4b48cbcbcfc00c046bf
:020000040000fa
:10179000fcfcfcfcfcc4b4b4b4c4f4f4fc00c046cf
:020000040000fa
:1017a000e0e0e0e0e080a0a0a0a0e0e0e000c04633
:020000040000fa
:1017b000f0f0f0f0f0807090e010f0f0f000c04633
:020000040000fa
:1017c000e0e0e0a0a000a0a0a080e0e0e000c04633
:020000040000fa
:1017d000fcfcfcfcfcb4b4b4b4c4fcfcfc00c0468f
:020000040000fa
:1017e000f8f8f8f8f870a8a8a8d8f8f8f800c046f3
:020000040000fa
:1017f000fefefefefe6c545454bafefefe00c046d1
:020000040000fa
:10180000f8f8f8f8f870a8d8a870f8f8f800c0460a
:020000040000fa
:10181000f8f8f8f8f870a8a8a8d8d8b8f800c04622
:020000040000fa
:10182000f8f8f8f8f800e8d8b800f8f8f800c0467a
:020000040000fa
:10183000e0e0e080a0a0a060a0a0a080e000c04602
:020000040000fa
:10184000e0e0e0a0a0a0a0a0a0a0a0a0e000c04672
:020000040000fa
:10185000e0e0e020a0a0a0c0a0a0a020e000c04642
:020000040000fa
:10186000fcfcfcfcfcfc1444fcfcfcfcfc00c04646
:020000040000fa
:0c187000014b82225a607047004000418a
:020000040000fa
:0c187c00014b1860596070479800002074
:020000040000fa
:0c18880048656c6c6f20576f726c640038
:020000040000fa
:0c189400014b01221a707047b1000020c7
:020000040000fa
:0818a000d0120000030d00004e
:020000040000fa
:0818a800e0120000030d000036
:020000040000fa
:0818b000f0120000040d00001d
:020000040000fa
:0818b80000130000060d000002
:020000040000fa
:0818c00010130000060d0000ea
:020000040000fa
:0818c800d4110000090d00001d
:020000040000fa
:0818d00020130000070d0000c9
:020000040000fa
:0818d80030130000020d0000b6
:020000040000fa
:0818e00040130000030d00009d
:020000040000fa
:0818e80050130000030d000085
:020000040000fa
:0818f00060130000040d00006c
:020000040000fa
:0818f80070130000060d000052
:020000040000fa
:0819000080130000030d00003c
:020000040000fa
:0819080090130000030d000024
:020000040000fa
:08191000a0130000030d00000c
:020000040000fa
:08191800b0130000030d0000f4
:020000040000fa
:08192000c0130000060d0000d9
:020000040000fa
:08192800d0130000060d0000c1
:020000040000fa
:08193000e0130000060d0000a9
:020000040000fa
:08193800f0130000060d000091
:020000040000fa
:0819400000140000060d000078
:020000040000fa
:0819480010140000060d000060
:020000040000fa
:0819500020140000060d000048
:020000040000fa
:0819580030140000060d000030
:020000040000fa
:0819600040140000060d000018
:020000040000fa
:0819680050140000060d000000
:020000040000fa
:0819700060140000030d0000eb
:020000040000fa
:0819780070140000030d0000d3
:020000040000fa
:0819800080140000060d0000b8
:020000040000fa
:0819880090140000060d0000a0
:020000040000fa
:08199000a0140000060d000088
:020000040000fa
:08199800b0140000060d000070
:020000040000fa
:0819a000f01100000a0d000027
:020000040000fa
:0819a800c0140000070d00004f
:020000040000fa
:0819b000d0140000070d000037
:020000040000fa
:0819b800e0140000070d00001f
:020000040000fa
:0819c000f0140000070d000007
:020000040000fa
:0819c80000150000070d0000ee
:020000040000fa
:0819d00010150000060d0000d7
:020000040000fa
:0819d80020150000080d0000bd
:020000040000fa
:0819e00030150000070d0000a6
:020000040000fa
:0819e80040150000030d000092
:020000040000fa
:0819f00050150000050d000078
:020000040000fa
:0819f80060150000070d00005e
:020000040000fa
:081a000070150000060d000046
:020000040000fa
:081a08000c120000090d0000a2
:020000040000fa
:081a100080150000070d000025
:020000040000fa
:081a180090150000080d00000c
:020000040000fa
:081a2000a0150000070d0000f5
:020000040000fa
:081a2800b0150000080d0000dc
:020000040000fa
:081a3000c0150000070d0000c5
:020000040000fa
:081a3800d0150000070d0000ad
:020000040000fa
:081a4000e0150000070d000095
:020000040000fa
:081a4800f0150000070d00007d
:020000040000fa
:081a500000160000070d000064
:020000040000fa
:081a580028120000090d000036
:020000040000fa
:081a600010160000070d000044
:020000040000fa
:081a680020160000070d00002c
:020000040000fa
:081a700030160000060d000015
:020000040000fa
:081a780040160000030d000000
:020000040000fa
:081a800050160000030d0000e8
:020000040000fa
:081a880060160000030d0000d0
:020000040000fa
:081a900070160000050d0000b6
:020000040000fa
:081a980080160000060d00009d
:020000040000fa
:081aa00090160000030d000088
:020000040000fa
:081aa800a0160000060d00006d
:020000040000fa
:081ab000b0160000060d000055
:020000040000fa
:081ab800c0160000050d00003e
:020000040000fa
:081ac000d0160000060d000025
:020000040000fa
:081ac800e0160000060d00000d
:020000040000fa
:081ad000f0160000030d0000f8
:020000040000fa
:081ad80000170000060d0000dc
:020000040000fa
:081ae00010170000060d0000c4
:020000040000fa
:081ae80020170000030d0000af
:020000040000fa
:081af00030170000030d000097
:020000040000fa
:081af80040170000040d00007e
:020000040000fa
:081b000050170000030d000066
:020000040000fa
:081b080044120000090d000069
:020000040000fa
:081b100060170000060d000043
:020000040000fa
:081b180070170000060d00002b
:020000040000fa
:081b200080170000060d000013
:020000040000fa
:081b280090170000060d0000fb
:020000040000fa
:081b3000a0170000030d0000e6
:020000040000fa
:081b3800b0170000040d0000cd
:020000040000fa
:081b4000c0170000030d0000b6
:020000040000fa
:081b4800d0170000060d00009b
:020000040000fa
:081b5000e0170000050d000084
:020000040000fa
:081b5800f0170000070d00006a
:020000040000fa
:081b600000180000050d000053
:020000040000fa
:081b680010180000050d00003b
:020000040000fa
:081b700020180000050d000023
:020000040000fa
:081b780030180000030d00000d
:020000040000fa
:081b800040180000030d0000f5
:020000040000fa
:081b880050180000030d0000dd
:020000040000fa
:081b900060180000060d0000c2
:020000040000fa
:061b980010b500f003f897
:020000040000fa
:041b9e00002070476c
:020000040000fa
:021ba200fee75c
:020000040000fa
:021ba400fee75a
:020000040000fa
:021ba600704786
:020000040000fa
:021ba800704784
:020000040000fa
:021baa00704782
:020000040000fa
:0200000400807a
:0440000077c700d8a6
:020000040000fa
:0200000400807a
:044004005c00ffff5e
:00000001FF
