:020000040000fa
:10000000f07f0020890d00008f0f0000f30f00002b
:1000100000000000000000000000000000000000e0
:100020000000000000000000000000008f10000031
:1000300000000000000000008f1000008f10000082
:100040008f1000008f1000008f1000008f10000034
:100050008f1000008f1000008f1000008f10000024
:100060008f100000210700008f1000008f1000008b
:100070008f1000008f1000008f100000090f00008b
:100080008f1000008f100000e10e00008f100000a4
:100090008f1000008f1000008f1000008f100000e4
:1000a0008f1000008f1000008f1000008f100000d4
:020000040000fa
:1000b000f8b5c046f8bc08bc9e467047210d00004c
:1000c000f8b5c046f8bc08bc9e467047f90c000065
:020000040000fa
:1000d000f0b5de4657464e464546e0b583b080460d
:1000e0000cac208884461278413ad2b2904c2270ef
:1000f0009200904c1559287901906a7991464246b0
:10010000013a82465244d6b24c1e4c44e4b24645b3
:1001100000d2c5e0802e00d9c2e08c4200d2bfe000
:10012000802c00d9bce0844f94222020b850c0001d
:10013000b850824a2a2797621000283f027e3a422e
:10014000fcd07d4a9820824680277f001750973840
:100150008346d8441f305746d05174306837175003
:100160004246100a754a90621000fe3f027e3a42f3
:10017000fcd0ff2042461040704a906217000220d7
:100180003a7e0242fcd06c4a98278020400082468a
:10019000d0510136e038d051043f5046d051674a23
:1001a00000209062170002303a7e0242fcd0634a7f
:1001b0009662170002203a7e0242fcd05e4a8027f7
:1001c0007f009820175004382026165017505b4a9d
:1001d00069389062170029383a7e0242fcd0564aac
:1001e000982780204000d05102312026d651043f6c
:1001f000d051080a514a9062170002203a7e02420a
:10020000fcd0ff2211404d4a916210000221027e73
:100210000a42fcd0484a98208021490011500234fb
:100220002027175004381150444a002191621000d1
:100230000231027e0a42fcd0404a94621000022140
:10024000027e0a42fcd03c4a802040009821505057
:100250000439202454505050384a683991621000b3
:100260002a39027e0a42fcd0334a98208021490074
:10027000115020241450043811504a46002a44d00a
:100280006246120a90461a0a92460024ff229346ba
:10029000624659460a4000925746cc46994631e09c
:1002a000012000f09bfe254b42469a621e0002226e
:1002b000337e1342fcd06b461b88204a93621600a3
:1002c0000222337e1342fcd049080138002815d0a1
:1002d0002b681b5d0b42e6d0184b9f621e0002226a
:1002e000337e1342fcd0154a5b464e463340936240
:1002f00016000222337e1342fcd0e5e70134e2b25d
:10030000944502d907208021e2e70b4a98238021f7
:100310004900d1500a4a137801998c4663441370fe
:1003200003b03cbc90469946a246ab46f0bdc046e1
:10033000b2000020b8000020004400410008004244
:04034000b3000020e6
:020000040000fa
:10034400f0b5de4657464e464546e0b585b00290c8
:100354001278413ad2b28e48027092008d481658f3
:10036400327903927279002a00d104e1180a844692
:100374005218d2b290460025ff221340f5e0012026
:1003840000f02afe40080132d2b2012800d1e4e094
:100394003368019c1b5d0342f4d1802aefd84b469d
:1003a400802becd87c4c94232027e750ff00e750a7
:1003b4007a4b2a249c621f00283c019d3b7e2342e9
:1003c400fcd00195744b9824a24627006834dc5174
:1003d400571c2025ab4655465c465c517434683541
:1003e4001d516e4b00249c629a460234019d534673
:1003f4001b7e2342fbd0694b9f629a4602245346dc
:100404001b7e2342fbd00195634b9824a246250012
:1004140068345c51783dab4655465c465c51743457
:1004240068351d515d4b00249c629a460234019d3f
:1004340053461b7e2342fbd0584b9f621f0002246d
:100444003b7e2342fcd0ab46534b80277f0098244d
:100454001f51043c20251d511f51504b693c9c6287
:100464001f00293c5d463b7e2342fcd001954a4b4c
:100474009824a246250068345c514d46af1c2025c3
:10048400ab4655465c465c51743468351d51434b4c
:1004940000249c629a460234019d53461b7e2342eb
:1004a400fbd03e4b9f629a46022453461b7e234256
:1004b400fbd00195384b9824a246250068345c5142
:1004c400783dab4655465c465c51743468351d51e5
:1004d400324b00249c629a460234019d53461b7e93
:1004e4002342fbd02d4b9f621f0002243b7e2342fc
:1004f400fcd0ab46284b80277f0098241f51043c36
:1005040020251d511f51254b683c9c621f002a3c2d
:100514005d463b7e2342fcd0ab461f4b982780248c
:100524006400dc512025dd51043fdc511b4b644643
:100534009c621f0002235d463c7e1c42fcd0174c8b
:10054400a162270002243b7e2342fcd00195124c79
:10055400982380277f00e75014e7019d0b0049464c
:100564000131c9b20135414505d0029a8020019577
:10057400894619000ce70a4a137803998c466344a8
:10058400137005b03cbc90469946a246ab46f0bdfc
:10059400b2000020b80000200044004100080042de
:0405a400b300002080
:020000040000fa
:1005a80030b55b4a94232021d150c900d150594b12
:1005b8002a229a621a000223117e1942fcd0544b57
:1005c8009821802252005a5020245c5004395a50f5
:1005d800504b00229a621a000223117e1942fcd065
:1005e8004c4b02229a621a000223117e1942fcd057
:1005f800474b9821802252005a5020245c500439dd
:100608005a50444b00229a621a000223117e194262
:10061800fcd0404b81229a621a000223117e1942b3
:10062800fcd03b4b8021490098229950043a202461
:100638009c509950374b693a9a621a000223117eee
:100648001942fcd0324b9821802252005a50202463
:100658005c5004395a502f4b00229a621a00022328
:10066800117e1942fcd02b4b03229a621a000223f6
:10067800117e1942fcd0264b9821802252005a50f4
:1006880020245c5004395a50224b00229a621a00e6
:100698000223117e1942fcd01e4b82229a621a0054
:1006a8000223117e1942fcd0194b8021490098225f
:1006b8009950043a20249c509950164b683a9a62f3
:1006c8001a000223117e1942fcd0114b9821802276
:1006d80052005a5020245c5004395a50050a80238d
:1006e800db010c4a1e3c6b3101409562107e2042b2
:1006f800fcd09162107e2042fcd0013b9bb2002bc3
:10070800f3d1034a983380214900d15030bdc04607
:0807180000440041000800420a
:020000040000fa
:1007200070b5504b586a504b9b7d002b54d04e49ae
:100730004c68072214404b4b5a699d699e680b7e9a
:100740005b0757d5896a474bdb68934252d9002c27
:1007500043d1444b5b6899540132434b1b7edb070a
:1007600016d5414b012119753e4b9b68ab4256d9ba
:100770003c4b1b68595d3c4b99620135394b1b69f9
:10078000002b01d1b54262d0364bdb68934262d078
:10079000344b5a619d61344b1b7e9b0715d5334bff
:1007a0001b78002b18d02f4bdb68934211d12d4bb7
:1007b00000221a772c4907240c752c490a701b6af1
:1007c000002b09d0274b1b6a9847284b1b78002b1e
:1007d00002d0254b02229a7570bd224b5b685400f3
:1007e000e1520132204b1b7edb07d1d51e4b01218c
:1007f000197508e01c4b1b7edb07c9d51a4b01217c
:100800001975002cb0d0174b9b68ab4213d9154b10
:100810001b686900c95a144b99620135aee7114b48
:100820001b69002baad0104bff2199620d490b695f
:10083000013b0b61a2e70b4b1b69002b9ed00a4bbf
:100840000b49996207490b69013b0b6196e7074b1e
:10085000012119709ce7044b012199750331197529
:1008600096e7c0465000002000080042b00000207b
:04087000ffff000086
:020000040000fa
:1008740070b500f08bfb4d4c982380229200e2501f
:1008840000f054fb94232022e250d200e250484b63
:10089400ff3a9a62190001320b7e1342fcd0434c9a
:1008a40080256d009823e550782000f001fb942307
:1008b4002022e250e5503e4b0f3a9a6219000f3a5b
:1008c4000b7e1342fcd0394c80256d009823e550f3
:1008d400782000f0edfa94232022e250e550344bc6
:1008e4001a329a621900383a0b7e1342fcd02f4b0d
:1008f4009821802252005a502020585004395a50ce
:100904002b4bfb3a9a621900033a0b7e1342fcd03c
:10091400264b8021490098229950043a202098506f
:100924009950234b5e3a9a621900343a0b7e134273
:10093400fcd01e4b9821802252005a50202058503f
:1009440004395a501a4b383a9a621900c63a0b7e47
:100954001342fcd0154b8021490098229950043a47
:10096400202098509950124b813a9a621900113afa
:100974000b7e1342fcd00d4b8021490098229950e4
:10098400043a202098509950094b6b3a9a62190006
:10099400273a0b7e1342fcd0044a98238021490055
:1009a400d1500a2000f084fa70bdc04600440041d2
:0409b40000080042f5
:020000040000fa
:1009b80010b5274b274a1a60274a1a61002242219c
:1009c8005a544139442019540230195401301954e9
:1009d80005310530195401301954013019540130ca
:1009e8001a54033019540130195422381a5401305a
:1009f80004241c540130185403301a5401301a547a
:100a080002301a544730154c1c501030144c1c50ee
:100a180030301a5401301a5403301a5401301a5421
:100a280003301a5401301a5405301954013019543e
:100a38000130195401301954aa315a5402315a5408
:100a480002315a5403315a5401315a5410bdc04628
:100a5800004400410480000004700c0033030000cf
:040a680010c10300b6
:020000040000fa
:100a6c001d4b00229a619a8c80218a439a841a0029
:100a7c001023d1680b42fcd0184b1b689b0e3f2bec
:100a8c0027d09b02802292001343134a93621023b7
:100a9c00d1680b42fcd0104b02229a841a0010230e
:100aac00d1680b42fcd00e4b0e4a5a601a00537898
:100abc005bb2002bfbdb0a4b0b4a5a800b4a5a8069
:100acc000b4a5a800b4b0c4a1a62034b00221a62d7
:100adc007047203bd5e7c0460008004024608000ea
:100aec00000c004000070100144000001a400000f8
:0c0afc001b400000000400400409010041
:020000040000fa
:100b08007c0000201c00000000000000b000002055
:100b18000100000000000000500000202c00000030
:100b280000000000980000201000000000000000f5
:100b3800b10000200400000000000000b800002000
:100b48000c00000001000000701000007810000088
:100b580080100000a8000020040000000000000031
:100b6800000000205000000000000000ac00002041
:100b78000400000000000000000000000000000069
:020000040000fa
:100b8800f0b583b014001e0008ab1f8809ab1d78b0
:100b9800114b1870114b19701378002b17d103b033
:100ba800f0bd0e4b19780c4b18783b002200fff76c
:100bb800c5fb08e0094b1978074b187800973300f4
:100bc8002200fff781fa01342378002be7d0012daa
:100bd800e7d0002df7d1ede7b3000020b4000020e6
:020000040000fa
:100be800bff35f8f62b6124bc22080001a581149ba
:100bf8001140c02212020a431a50802292001a6041
:100c080004301a581202120ac02109060a431a505f
:100c1800802212021a6004301a5807491140c02273
:100c280012040a431a508022d2021a607047c04642
:0c0c380000e100e0ff00ffffffff00fff5
:020000040000fa
:100c440000230e4a10b513600d4a13600d4a136059
:100c54000d4a13600d4a13600d4a53621361013348
:100c6400936000f019fa00f017fa0a4c0a4b9c4200
:100c740000d310bd08cc9847f8e7c046ac0000206c
:100c84000c000020080000200000002004000020c8
:0c0c940010000020bc000000c0000000a8
:020000040000fa
:100ca000124b01221a6019008b681a42fcd10f4bbb
:100cb000b82252011a600122da6301325a616932a4
:100cc0001a64363a5a641d3a9a64da641a65084a14
:100cd000da62084a00211160802252029a621202ee
:100ce0001a621a009368002bfcd170470020004262
:080cf0000ff80f00a000002026
:020000040000fa
:100cf80010b5064c2378002b07d1054b002b02d0ea
:100d0800044800e000bf0123237010bd7c000020d0
:100d18000000000000000000044b10b5002b03d0b9
:100d28000349044800e000bf10bdc04600000000b1
:080d3800800000200000000013
:020000040000fa
:100d40000e4b01221a801a00d37b5bb2002bfbdb17
:100d50000a4bac22d2001a80094a1a833b229a73aa
:100d6000084a0021116001225a7312025a811a00a6
:100d7000d37b5bb2002bfbdb7047c046002c0042ec
:080d8000ed02000098000020c4
:020000040000fa
:100d880010b50a4b98470a4b984700f05df8094b95
:100d9800ff229343084a9360084b9847084b9847ab
:100da800084b984700f010f8fee7c0461b100000fb
:100db8001b1000000000000000ed00e0450c0000e2
:080dc8001b1000001b100000cd
:020000040000fa
:100dd00000b583b0002000f057f800210c4800f067
:100de0003bf9fff747fd1f20fff7defbfa208000ed
:100df00000f060f8fc2301220192f8221202009216
:100e0000db00044a3c213c20fff7befefee7c04663
:080e10006510000090100000c5
:020000040000fa
:100e18000a4a0023136213779360d360084a536029
:100e2800d369002bfcd1064b01221a73054a1a60bc
:100e38001a00d369002bfcd17047c046500000202f
:080e4800000800420e00010049
:020000040000fa
:100e500010b50b480168002905d14368002b02d169
:100e600000f01bf910bd04008368064a9bb20c34e5
:100e70009b009b5842682000984780002018e9e7b3
:080e8000080b0000f40f000054
:020000040000fa
:100e880010b5094b06225a60fff792fdfff7eafdfd
:100e980000f0d8f8fff700fffff7bafffff74cffa5
:0c0ea800fff79efe10bdc0460040004158
:020000040000fa
:100eb40010b5040000f078f8002c0ad00648002190
:100ec400020001701378002bfcd0013ca4b2002c6a
:0c0ed400f7d100f075f810bdb10000204f
:020000040000fa
:100ee00010b5074b987bc0b23b229a73054b1b6829
:100ef000002b03d0034b59681b68984710bdc046b0
:080f0000002c004298000020c3
:020000040000fa
:100f080010b5064a5168064bd86a064cdc62db6aa3
:100f18001368002b01d01368984710bda00000206b
:080f2800002000420ff80f0049
:020000040000fa
:100f300070b5064c10259423e5503220fff7baff18
:100f40009823e5503220fff7b5ff70bd0044004103
:020000040000fa
:100f500010b5054c054b9c4202d8fff7b1f810bd07
:100f6000043c23689847f5e7d0000000cc0000005f
:020000040000fa
:100f7000002310b5934206d103201840421e904131
:0e0f80009b08c01810bdc45ccc540133f2e7ce
:020000040000fa
:020f8e00fee77c
:020000040000fa
:100f900010b5054a98230121d1500131d150962036
:0c0fa000fff788ff10bdc0460044004170
:020000040000fa
:100fac00044a138802210b431380d37b5bb2002bc2
:080fbc00fbdb7047002c004232
:020000040000fa
:100fc400044a138802218b431380d37b5bb2002b2a
:080fd400fbdb7047002c00421a
:020000040000fa
:100fdc0010b5040000f05df8fff7b4ff00f059f80d
:060fec00200000f04bf8ac
:020000040000fa
:020ff200fee718
:020000040000fa
:100ff40009100000710f000095100000951000000a
:041004009510000043
:020000040000fa
:101008008a18914201d10020704700230b700131ea
:02101800f7e7f8
:020000040000fa
:02101a0070471d
:020000040000fa
:10101c00fefefeeed6d6ba82ba7cfefefe00c046be
:020000040000fa
:10102c00fefefe86baba82baba86fefefe00c04644
:020000040000fa
:10103c00fefefec6babebebebac6fefefe00c04670
:020000040000fa
:0c104c00014b82225a60704700400041b6
:020000040000fa
:0c105800014b18605960704798000020a0
:020000040000fa
:0c106400014b01221a707047b1000020ff
:020000040000fa
:081070001c100000070d000038
:020000040000fa
:081078002c100000070d000020
:020000040000fa
:081080003c100000070d000008
:020000040000fa
:0610880010b500f005f8b0
:020000040000fa
:02108e00fee77b
:020000040000fa
:041090004142430096
:020000040000fa
:041094000020704781
:020000040000fa
:02109800fee771
:020000040000fa
:02109a0070479d
:020000040000fa
:02109c0070479b
:020000040000fa
:02109e00704799
:020000040000fa
:0200000400807a
:0440000077c700d8a6
:020000040000fa
:0200000400807a
:044004005c00ffff5e
:00000001FF
