:020000040000fa
:10000000f07f0020652500005f2200009b27000094
:1000100000000000000000000000000000000000e0
:100020000000000000000000000000004328000065
:1000300000000000000000004328000043280000ea
:100040004328000043280000432800004328000004
:1000500043280000432800004328000043280000f4
:1000600043280000511d00004328000043280000e1
:100070004328000043280000432800001127000007
:100080004328000043280000e92600004328000020
:1000900043280000432800004328000043280000b4
:1000a00043280000432800004328000043280000a4
:020000040000fa
:1000b000f8b5c046f8bc08bc9e467047fd24000059
:1000c000f8b5c046f8bc08bc9e467047d524000071
:020000040000fa
:1000d000f0b5de4657464e464546e0b58bb00e00bd
:1000e000069109930792002a01d101f0f7fa190a43
:1000f0000130c3b208931f0004930023059301f05d
:10010000cafa059b5b000133079884469c4463460a
:100110000793069bd418e4b2049b812b01d901f00c
:10012000cbfa802c01d901f0c7fae64894232025a8
:10013000c550ed00c550e44b2a2098621d002838b8
:100140002b7e0342fcd0df4b982580204000804668
:100150005851e0385851043d40465851da4b002080
:1001600098621d0002302b7e0342fcd00498844626
:10017000d54b98621d0002202b7e0342fcd0d14b50
:1001800098258020400081465851e0385851043d60
:1001900048465851cc4b002098621d0002302b7eff
:1001a0000342fcd0c84b604698621d0002202b7ea3
:1001b0000342fcd0c34b802040008246683855463d
:1001c0001d500438814674384d46585148465546ae
:1001d0001d50bd4b693898621d0029382b7e0342a3
:1001e000fcd0b84b98258020400081465851e0381b
:1001f0005851043d48465851b34b002098621d00a9
:1002000002302b7e0342fcd0af4b9c621d000220cb
:100210002b7e0342fcd0ab4b9825802040008146ca
:100220005851e0385851043d48465851a64b0020db
:1002300098621d0002302b7e0342fcd0a24b9c62d0
:100240001d0002202b7e0342fcd09e4b80204000ec
:100250008246683855461d500438814674384d46ec
:100260005851484655461d50974b683898621d00b6
:100270002a382b7e0342fcd0924b982580204000e8
:1002800081465851e0385851043d484658518e4bec
:1002900099621d00fe382b7e0342fcd0ff23099893
:1002a0000340894883620500022098462b7e034262
:1002b000fcd043460193834d982380204000e850b2
:1002c0000898801ac3b20293812b01d901f0f7f983
:1002d000f5b2802d01d901f0f2f97a4da8469425a6
:1002e0002020814640464b464351db009946434619
:1002f00048465851744d2a23ab62a94602239846ba
:100300000298019b9a464d462d7e43461d42fad0e7
:100310008346534601936b4d98239946683398461c
:100320004b464046e850783b9a464b465046e8508c
:10033000043b4046e850644d0023ab62a9460223cb
:1003400098465846019b9a464d462d7e43461d428f
:10035000fad0534601935c4da862a9460223984601
:10036000019b9a464d462d7e43461d42fad0834658
:1003700053460193534d98239946683398464b460c
:100380004046e850783b9a464b465046e850043b7e
:100390004046e8504c4d0023ab62a94602239846e4
:1003a0005846019b9a464d462d7e43461d42fad043
:1003b00053460193444da862a94602239846019be7
:1003c0009a464d462d7e43461d42fad083465346fb
:1003d00001933c4d80235b009946683b4846e850ba
:1003e000043b9846743b9a4643465046e85048467c
:1003f000e850354d693bab62a94602239846584602
:10040000019b9a464d462d7e43461d42fad08346b7
:10041000534601932b4d98239946683398464b4693
:100420004046e850783b9a464b465046e850043bdd
:100430004046e850244d0023ab62a946022398466b
:100440005846019b9a464d462d7e43461d42fad0a2
:10045000534601931c4dae62a94602239846019b68
:100460009a464d462d7e43461d42fad0834653465a
:100470000193144d98239946683398464b4640465d
:10048000e850783b9a464b465046e850043b40467d
:10049000e8500d4d0023ab62a9460223984658460a
:1004a000019b9a464d462d7e43461d42fad0534647
:1004b0000193054dae62a94602239846019b9a46d8
:1004c00004e0c04600440041000800424d462d7e35
:1004d00043461d42fad0834653460193ed4d802397
:1004e0005b009946683b4846e850043b9846743b9d
:1004f0009a4643465046e8504846e850e64d683b29
:10050000ab62a946022398465846019b9a464d463f
:100510002d7e43461d42fad0834653460193dd4d5e
:1005200098239946683398464b464046e850783bb6
:100530009a464b465046e850043b4046e850d64d5c
:10054000a962a946022398465846019b9a464d4601
:100550002d7e43461d42fad05346cf4dab62a8468e
:100560000225d14643461b7e2b42fbd002904b46d0
:100570000193c84b9846982580235b0099464346d3
:1005800048465851069b05981d1aebb20393802be1
:1005900001d901f097f8bf4b994694239846743bd4
:1005a0009a464b46404655461d5080235b009a466e
:1005b0004b4655461d50b84b98462a23994643460c
:1005c00048469862c246022399460298019b984683
:1005d000039d934653461b7e4a461342fad002902f
:1005e0004346019303955a46aa4b984698239a4648
:1005f00068339946434650464d461d5020239b463e
:1006000043465d461d5094239a46434650464d4608
:100610001d50a14b98460023994643464846986290
:10062000c246022399460298019b9846039d934631
:1006300053461b7e4a461342fad043460193964bdb
:1006400098629a4602239946019b984653461b7e20
:100650004a461342fad002904346019303955a4604
:100660008c4b984698239a466833994643465046a1
:100670004d461d5020239b4643465d461d50942306
:100680009a46434650464d461d50834b984600239c
:100690009946434648469862c246022399460298c4
:1006a000019b9846039d934653461b7e4a46134240
:1006b000fad08146404603955a46774b4d469d6297
:1006c0009946022398468246039d4846007e43464b
:1006d0001842fad053460193ab466e4880235b0024
:1006e0009946683b4d46c550043b9846743b9a4634
:1006f00043465546c5504d46c5506748693b8362e1
:10070000814602239846019b9a465d464846007ef4
:1007100043461842fad053460193ab465d489823ae
:100720009946683398464b464546c550783b9a46ad
:100730004b465546c550043b4546c55056480023d8
:100740008362814602239846019b9a465d4648464d
:10075000007e43461842fad0534601934e488562c4
:10076000814602239846019b9a464846007e4346ae
:100770001842fad053460193ab464648982399460f
:10078000683398464b464546c550783b9a464b469b
:100790005546c550043b4546c5503f48002383623b
:1007a000814602239846019b9a465d464846007e54
:1007b00043461842fad05346019337488562814632
:1007c00002239846019b9a464846007e43461842bb
:1007d000fad053460193ab462e4880235b009946de
:1007e000683b4d46c550043b9846743b9a46434689
:1007f0005546c5504d46c5502748683b83628146e3
:1008000002239846019b9a465d464846007e434631
:100810001842fad053460193ab461e489823994696
:10082000683398464b464546c550783b9a464b46fa
:100830005546c550043b4546c55017488162814620
:1008400002239846019b9a465d464846007e4346f1
:100850001842fad053461048836280460220d1469f
:1008600043461b7e0342fbd04b4601930395094b45
:100870009846982080235b00994643464d461d507c
:10088000069b981ac3b20293802b01d900f01dff7a
:1008900004e0c0460044004100080042ef4b994686
:1008a00094239846743b9a464b46404655461d5005
:1008b00080235b009a464b4655461d50e84b9846b0
:1008c0002a239946434648469862c24602239946df
:1008d0000298019b9846039d934653461b7e4a46c9
:1008e0001342fad002904346019303955a46db4bdc
:1008f000984698239a4668339946434650464d4653
:100900001d5020239b4643465d461d5094239a4626
:10091000434650464d461d50d14b984600239946bc
:10092000434648469862c246022399460298019b74
:100930009846039d934653461b7e4a461342fad07f
:10094000029043460193c64b604698629a46022342
:1009500099460298019b984653461b7e4a4613428d
:10096000fad002904346019303955a46bb4b9846f2
:1009700098239a4668339946434650464d461d5043
:1009800020239b4643465d461d5094239a4643468a
:1009900050464d461d50b24b98460023994643465b
:1009a00048469862c246022399460298019b98469f
:1009b000039d934653461b7e4a461342fad0824615
:1009c00043460193a64b6046986299460223984697
:1009d0005046019b9c46da464b461b7e42461342dc
:1009e000fad0029063460193ab4652469b4b9c461d
:1009f00080235b009946683b9846634640464d46d7
:100a00001d5094239846743b9a466346404655468b
:100a10001d504d461d50924b9c462b2398466346d5
:100a200040469862e146022398460298019b9c4604
:100a30005d4692464b461b7e42461342fad00290d8
:100a400063460193ab465246844b9c469823994695
:100a5000683398466346484645461d5020239a46cb
:100a6000634655461d50942399466346484645467d
:100a70001d507b4b9c460023984663464046986237
:100a8000e146022398460298019b9c465d469246a9
:100a90004b461b7e42461342fad063460193704b8d
:100aa0009862994602239846019b9c464b461b7ec2
:100ab00042461342fad0029063460193ab46524637
:100ac000664b9c4698239946683398466346484649
:100ad00045461d5020239a46634655461d50942393
:100ae00099466346484645461d505d4b9c4600234b
:100af0009846634640469862e1460223984602982b
:100b0000019b9c465d4692464b461b7e42461342e5
:100b1000fad063460193524b986299460223984655
:100b2000019b9c464b461b7e42461342fad00290e4
:100b300063460193ab465246484b9c4680235b007c
:100b40009946683b9846634640464d461d5094235f
:100b50009846743b9a466346404655461d504d465e
:100b60001d503f4b9c462c23984663464046986256
:100b7000e146022398460298019b9c465d469246b8
:100b80004b461b7e42461342fad0029063460193c5
:100b9000ab465246314b9c4698239946683398465b
:100ba0006346484645461d5020239a4663465546af
:100bb0001d50942399466346484645461d50284b90
:100bc00099629946022398460298019b9c465d468d
:100bd00092464b461b7e42461342fad081466346fc
:100be0001f48836280460220844648469946434611
:100bf0001b7e62461342fad002904b460193039546
:100c0000164b984698239c4668339946434660465f
:100c10004d461d50fbb2812b01d900f059fd0f4b01
:100c2000984694239c46743b9946434660464d46fd
:100c30001d5080235b00994643464d461d50084b8e
:100c40009c462a239846634640469862e146022322
:100c500098460298019b9c46039d03e00044004196
:100c6000000800424b461b7e42461342fad00290d7
:100c700063460193ab465246eb4b9c4698239946fc
:100c8000683398466346484645461d5020239a4699
:100c9000634655461d50942399466346484645464b
:100ca0001d50e24b9c46002398466346404698629e
:100cb000e146022398460298019b9c465d46924677
:100cc0004b461b7e42461342fad063460193d74bf4
:100cd0009f62994602239846019b9c464b461b7e89
:100ce00042461342fad0029063460193ab46524605
:100cf000cd4b9c46982399466833984663464846b0
:100d000045461d5020239a46634655461d50942360
:100d100099466346484645461d50c44b9c460023b1
:100d20009846634640469862e146022398460298f8
:100d3000019b9c465d4692464b461b7e42461342b3
:100d4000fad063460193b94b9f62994602239846b5
:100d5000019b9c464b461b7e42461342fad00290b2
:100d600063460193ab465246af4b9c4680235b00e3
:100d70009946683b9846634640464d461d5094232d
:100d80009846743b9a466346404655461d504d462c
:100d90001d50a64b9c462b239846634640469862be
:100da000e146022398460298019b9c465d46924686
:100db0004b461b7e42461342fad002906346019393
:100dc000ab465246984b9c469823994668339846c2
:100dd0006346484645461d5020239a46634655467d
:100de0001d50942399466346484645461d508f4bf7
:100df0009c4600239846634640469862e14602239b
:100e000098460298019b9c465d4692464b461b7e47
:100e100042461342fad063460193844b9862994646
:100e200002239846019b9c464b461b7e424613423a
:100e3000fad0029063460193ab4652467a4b9c46e9
:100e400098239946683398466346484645461d5060
:100e500020239a46634655461d509423994663467f
:100e6000484645461d50714b9c46002398466346b4
:100e700040469862e146022398460298019b9c46b0
:100e80005d4692464b461b7e42461342fad0804650
:100e90006046ab465246654b45469d6298460223e6
:100ea0009c4681465d464046007e63461842fad025
:100eb0004b460193aa465c4880235b009846683bfa
:100ec0004546c550043b9c46743b994663464d4697
:100ed000c5504546c5505548683b8362804602234d
:100ee0009c46019b994655464046007e6346184203
:100ef000fad04b460193aa464b489823984668334c
:100f00009c4643466546c550783b994643464d4608
:100f1000c550043b6546c550444881628046022363
:100f20009c46019b994655464046007e63461842c2
:100f3000fad04b463d48836284460220c846634649
:100f40001b7e0342fbd0434601930395364b9c46e0
:100f5000982080235b009846634645461d50089bb9
:100f6000d018c3b29b46812b00d9b4e32e4b9846d0
:100f700094239c46743b99464346654648465851df
:100f800080235b009946434660464d461d50274be3
:100f90009c462a239846634640469862e1460223cf
:100fa00098465846019b9c46039d92464b461b7ea5
:100fb00042461342fad08346634601930395524654
:100fc000194b9c4698239946683398466346484691
:100fd00045461d5020239a46634655461d5094238e
:100fe00099466346484645461d50104b9c46002393
:100ff0009846634640469862e14602239846584622
:10100000019b9c46039d92464b461b7e42461342e3
:10101000fad063460193054b98629946022398469d
:10102000019b9c4604e0c046004400410008004289
:101030004b461b7e42461342fad0834663460193d9
:1010400003955246eb4b9c46982399466833984645
:101050006346484645461d5020239a4663465546fa
:101060001d50942399466346484645461d50e24b21
:101070009c4600239846634640469862e146022318
:1010800098465846019b9c46039d92464b461b7ec4
:1010900042461342fad063460193d74b9862994671
:1010a00002239846019b9c464b461b7e42461342b8
:1010b000fad083466346019303955246cd4b9c4636
:1010c00080235b009946683b9846634640464d4600
:1010d0001d5094239846743b9a46634640465546b5
:1010e0001d504d461d50c44b9c462b2398466346cd
:1010f00040469862e146022398465846019b9c462a
:10110000039d92464b461b7e42461342fad08346cd
:101110006346019303955246b64b9c4698239946e5
:10112000683398466346484645461d5020239a46f4
:10113000634655461d5094239946634648464546a6
:101140001d50ad4b9c46002398466346404698622e
:10115000e146022398465846019b9c46039d9246d1
:101160004b461b7e42461342fad063460193a24b84
:101170009d62994602239846019b9c464b461b7ee6
:1011800042461342fad08346634601930395524682
:10119000984b9c4698239946683398466346484640
:1011a00045461d5020239a46634655461d509423bc
:1011b00099466346484645461d508f4b9c46002342
:1011c0009846634640469862e14602239846584650
:1011d000019b9c46039d92464b461b7e4246134212
:1011e000fad0634601935246834b9d629846022390
:1011f0009c46019b994645462d7e63461d42fad08a
:1012000083464b4601937b4d80235b009846683ba9
:101210004046e850043b9c46743b9946634648462a
:10122000e8504046e850744d683bab62a846022344
:101230009c465846019b994645462d7e63461d4275
:10124000fad083464b4601936a4d982398466833fb
:101250009c4643466046e850783b9946434648469c
:10126000e850043b6046e850634da962a84602235b
:101270009c465846019b994645462d7e63461d4235
:10128000fad04b465c4dab62ac460225c84663467d
:101290001b7e2b42fbd0834643460193554d802352
:1012a0005b009846683b4046e850043b9c46743bd4
:1012b000994663464846e8504046e8504e4d6a3be2
:1012c000ab62a84602239c465846019b9946454678
:1012d0002d7e63461d42fad083464b460193454d11
:1012e0009823984668339c4643466046e850783bce
:1012f000994643464846e850043b6046e8503e4d18
:101300000023ab62a84602239c465846019b99469f
:1013100045462d7e63461d42fad04b460193364d1d
:10132000a862a84602239c46019b994645462d7e0d
:1013300063461d42fad083464b4601932d4d9823b8
:10134000984668339c4643466046e850783b994649
:1013500043464846e850043b6046e850264d00238b
:10136000ab62a84602239c465846019b99464546d7
:101370002d7e63461d42fad01f4da862ac46022561
:101380004b466046007e2842fbd099461948802390
:101390005b009c4698254351043de03b4351634626
:1013a00043511548693d85628446293d4b46604658
:1013b000007e2842fbd09a460e4898239c46802502
:1013c0006d00a946c550783b984663464546c550d2
:1013d000043b4d46c55008480025856284460235c9
:1013e00053466046007e2842fbd00348866284460e
:1013f000022503e000440041000800426046007ef0
:101400002842fbd09a46b94898239c4680256d0017
:10141000a946c550783b984663464546c550043baf
:101420004d46c550b2480025856284460235534674
:101430006046007e2842fbd0ad4886628446022585
:101440006046007e2842fbd09946a84880235b0076
:101450009c4698254351043de03b4351634643512c
:10146000a348683d856284462a3d4b466046007e1f
:101470002842fbd09a469d4898239c4680256d00c3
:10148000a946c550783b984663464546c550043b3f
:101490004d46c550964881628446fe3d534660469f
:1014a000007e2842fbd092488362050002209c46c1
:1014b0002b7e0342fcd0634601938c4880235b0063
:1014c0009c4698254351043de03b435163464351bc
:1014d00087486a3d85628446283d019b6046007ec0
:1014e0002842fbd09a46814898239c4680256d006f
:1014f000a946c550783b984663464546c550043bcf
:101500004d46c5507a4800258562844602355346cb
:101510006046007e2842fbd07548876284460225db
:101520006046007e2842fbd09a46704898239c462d
:1015300080256d00a946c550783b984663464546d0
:10154000c550043b4d46c550694800258562844618
:10155000023553466046007e2842fbd064488762cd
:10156000844602256046007e2842fbd099465f48ab
:1015700080235b009c4698254351043de03b43514a
:10158000634643515a48693d85628446293d4b462e
:101590006046007e2842fbd09a46544898239c46d9
:1015a00080256d00a946c550783b98466346454660
:1015b000c550043b4d46c5504d48002585628446c4
:1015c000023553466046007e2842fbd0484884627c
:1015d000844602256046007e2842fbd09a46434856
:1015e00098239c4680256d00a946c550783b9846b7
:1015f00063464546c550043b4d46c5503c48002512
:1016000085628446023553466046007e2842fbd000
:101610003748846205000224287e2042fcd0984688
:10162000324880256d0098240551043c2023035145
:1016300005512f48683c846205002a3c4346287eb9
:101640002042fcd0984629489825802464004451c3
:1016500020234351043d4451254881620500fe3c4e
:101660004346287e2042fcd0214883620223047e28
:101670001c42fcd01d48982380246400c450059867
:101680000130059001370136049b013bdbb2049326
:10169000c3b29a4222d90798002801dcfef731fd37
:1016a000013ad2b2059b9b1a5b00013b84469c44e5
:1016b00063460793fef72dfd012001f0a3f80120fa
:1016c00001f0a0f8012001f09df8012001f09af846
:1016d000973801f097f8012001f094f80bb03cbc6a
:1016e00090469946a246ab46f0bdc0460044004134
:0416f00000080042ac
:020000040000fa
:1016f400f0b5c64600b506ac2488a0460130c0b299
:101704000131c9b2884200d9bce0812900d9b9e0cd
:101714009a4200d9b6e0802b00d9b3e05f4e9425fd
:1017240020277751ff0077515d4d2a26ae622f00a6
:10173400283e3d7e3542fcd0584d982780267600c1
:10174400ee512024ec51043fee51554d0026ae627b
:101754002f0002363d7e3542fcd0514da8622f0049
:1017640002263d7e3542fcd04c4d982780267600db
:10177400ee512024ec51043fee51494d0026ae6257
:101784002f0002363d7e3542fcd0454da9622f0024
:1017940002263d7e3542fcd0404d80277f009826ae
:1017a400af51043e2024ac51af513d4d693eae6271
:1017b4002f00293e3d7e3542fcd0384d98278026a7
:1017c4007600ee512024ec51043fee51344d0026b6
:1017d400ae622f0002363d7e3542fcd0304daa6207
:1017e4002f0002263d7e3542fcd02c4d98278026c2
:1017f4007600ee512024ec51043fee51284d002692
:10180400ae622f0002363d7e3542fcd0244dab62e1
:101814002f0002263d7e3542fcd0204d80267600e6
:101824009827ee51091a01319a1a0132514389b2ab
:1018340094232022ea50ee50194b0c329a6218007d
:101844002a3a037e1342fcd0144b98208022520083
:101854001a5020251d5004381a5043461e0a114ab6
:101864000f481e3dff2344461c40013989b2914272
:101874000bd08662037e2b42fcd08462037e2b4213
:10188400fcd0f2e7012000f0bbff044a982380213a
:101894004900d15004bc9046f0bdc046004400410c
:0818a40000080042ffff0000f4
:020000040000fa
:1018ac00f8b50130c0b20131c9b2884200d9b4e0f8
:1018bc00812900d9b1e0802a00d9aee05b4d942497
:1018cc0020262e51f6002e51594c2a25a5622600b1
:1018dc00283d347e2c42fcd0544c982680256d003b
:1018ec00a5512027a751043ea551514c0025a562b6
:1018fc0026000235347e2c42fcd04d4ca0622600d2
:10190c000225347e2c42fcd0484c982680256d0054
:10191c00a5512027a751043ea551454c0025a56291
:10192c0026000235347e2c42fcd0414ca1622600ac
:10193c000225347e2c42fcd03c4c80267600982527
:10194c006651043d202767516651394c693da562ab
:10195c002600293d347e2c42fcd0344c9826802520
:10196c006d00a5512027a751043ea551304c0025f0
:10197c00a56226000235347e2c42fcd02c4ca2628f
:10198c0026000225347e2c42fcd0284c982680253b
:10199c006d00a5512027a751043ea551244c0025cc
:1019ac00a56226000235347e2c42fcd0204ca2626b
:1019bc00250002242a7e2242fcd01c4a802464008a
:1019cc00982554510131091a89b29420783d15504b
:1019dc001450174a6838906214002a38227e02424a
:1019ec00fcd0124a9824802040001051202515511b
:1019fc00043c10511e0a0f4d0d4a923c0138034015
:101a0c00013989b2a9420bd09662107e2042fcd0db
:101a1c009362107e2042fcd0f2e7012000f0ecfe35
:101a2c00024a982380214900d150f8bd004400415e
:081a3c0000080042ffff00005a
:020000040000fa
:101a4400f8b50132d2b2812a00d9b4e0884200d973
:101a5400b1e0802900d9aee05b4d942420262e51bc
:101a6400f6002e51594c2a25a5622600283d347ec5
:101a74002c42fcd0544c982680256d00a55120277b
:101a8400a751043ea551514c0025a56226000235fc
:101a9400347e2c42fcd04d4ca26226000225347eba
:101aa4002c42fcd0484c982680256d00a551202757
:101ab400a751043ea551454c0025a56226000235d8
:101ac400347e2c42fcd0414ca262250002242a7ea2
:101ad4002242fcd03c4a80256d0098241551043cd8
:101ae400202616511551394a693c94621500293c47
:101af4002a7e2242fcd0344a982580246400545122
:101b040020265651043d5451304a00249462150055
:101b140002342a7e2242fcd02c4a90621500022410
:101b24002a7e2242fcd0284a9825802464005451fd
:101b340020265651043d5451244a00249462150031
:101b440002342a7e2242fcd0204a916215000224eb
:101b54002a7e2242fcd01c4a8024640098255451d9
:101b64000131091a89b29420783d15501450174a4e
:101b74006838906214002a38227e0242fcd0124a4d
:101b8400982480204000105120251551043c105108
:101b94001e0a0f4d0d4a923c01380340013989b2a7
:101ba400a9420bd09662107e2042fcd09362107e34
:101bb4002042fcd0f2e7012000f022fe024a9823e2
:101bc40080214900d150f8bd004400410008004282
:041bd400ffff00000f
:020000040000fa
:101bd80030b55b4a94232021d150c900d150594bcc
:101be8002a229a621a000223117e1942fcd0544b11
:101bf8009821802252005a5020245c5004395a50af
:101c0800504b00229a621a000223117e1942fcd01e
:101c18004c4b02229a621a000223117e1942fcd010
:101c2800474b9821802252005a5020245c50043996
:101c38005a50444b00229a621a000223117e19421c
:101c4800fcd0404b81229a621a000223117e19426d
:101c5800fcd03b4b8021490098229950043a20241b
:101c68009c509950374b693a9a621a000223117ea8
:101c78001942fcd0324b9821802252005a5020241d
:101c88005c5004395a502f4b00229a621a000223e2
:101c9800117e1942fcd02b4b01229a621a000223b2
:101ca800117e1942fcd0264b9821802252005a50ae
:101cb80020245c5004395a50224b00229a621a00a0
:101cc8000223117e1942fcd01e4b80229a621a0010
:101cd8000223117e1942fcd0194b80214900982219
:101ce8009950043a20249c509950164b683a9a62ad
:101cf8001a000223117e1942fcd0114b9821802230
:101d080052005a5020245c5004395a50050a802346
:101d1800db010c4a1e3c6b3101409562107e20426b
:101d2800fcd09162107e2042fcd0013b9bb2002b7c
:101d3800f3d1034a983380214900d15030bdc046c1
:081d48000044004100080042c4
:020000040000fa
:101d500070b5504b586a504b9b7d002b54d04e4968
:101d60004c68072214404b4b5a699d699e680b7e54
:101d70005b0757d5896a474bdb68934252d9002ce1
:101d800043d1444b5b6899540132434b1b7edb07c4
:101d900016d5414b012119753e4b9b68ab4256d974
:101da0003c4b1b68595d3c4b99620135394b1b69b3
:101db000002b01d1b54262d0364bdb68934262d032
:101dc000344b5a619d61344b1b7e9b0715d5334bb9
:101dd0001b78002b18d02f4bdb68934211d12d4b71
:101de00000221a772c4907240c752c490a701b6aab
:101df000002b09d0274b1b6a9847284b1b78002bd8
:101e000002d0254b02229a7570bd224b5b685400ac
:101e1000e1520132204b1b7edb07d1d51e4b012145
:101e2000197508e01c4b1b7edb07c9d51a4b012135
:101e30001975002cb0d0174b9b68ab4213d9154bca
:101e40001b686900c95a144b99620135aee7114b02
:101e50001b69002baad0104bff2199620d490b6919
:101e6000013b0b61a2e70b4b1b69002b9ed00a4b79
:101e70000b49996207490b69013b0b6196e7074bd8
:101e8000012119709ce7044b0121997503311975e3
:101e900096e7c0465000002000080042b000002035
:041ea000ffff000040
:020000040000fa
:101ea40070b500f079fc4d4c982380229200e250ea
:101eb40000f080fc94232022e250d200e250484bf0
:101ec400ff3a9a62190001320b7e1342fcd0434c54
:101ed40080256d009823e550782000f0edfb9423d5
:101ee4002022e250e5503e4b0f3a9a6219000f3a15
:101ef4000b7e1342fcd0394c80256d009823e550ad
:101f0400782000f0d9fb94232022e250e550344b92
:101f14001a329a621900383a0b7e1342fcd02f4bc6
:101f24009821802252005a502020585004395a5087
:101f34002b4bfb3a9a621900033a0b7e1342fcd0f6
:101f4400264b8021490098229950043a2020985029
:101f54009950234b5e3a9a621900343a0b7e13422d
:101f6400fcd01e4b9821802252005a5020205850f9
:101f740004395a501a4b00229a62190002320b7e1d
:101f84001342fcd0154b8021490098229950043a01
:101f9400202098509950124b813a9a621900113ab4
:101fa4000b7e1342fcd00d4b80214900982299509e
:101fb400043a202098509950094b6b3a9a621900c0
:101fc400273a0b7e1342fcd0044a9823802149000f
:101fd400d1500a2000f070fb70bdc046004400419f
:041fe40000080042af
:020000040000fa
:101fe800f0b583b01f20fff7f3fdfa24e4002000ca
:101ff80000f060fbf8200002fff7eafd200000f087
:1020080059fbfc20c000fff7e3fd200000f052fb65
:102018003648fff7ddfd364800f04cfb0a24f8256a
:102028002d02e2b22b0080210120fff73bfcfa20b1
:1020380000f040fb0a34822cf3d1783ce2b21f2333
:1020480080210120fff7fafcfa2000f033fb0a3464
:10205800822cf3d1fa20c00000f02cfb234f38006b
:10206800fff7b6fdfa20800000f024fb1f23009341
:10207800593364227821642000f094fa7334ff34d1
:10208800200000f017fbfc23db00009332230a2218
:1020980032210a20fff72afb200000f00bfbf8266c
:1020a8003602019605230093553346225a214620cd
:1020b80000f0e0f90e4d280000f0fcfa3800fff7b8
:1020c80087fd1f23142240214020fdf7fdff20003b
:1020d80000f0f0fa330014226421642000f066f85e
:1020e800280000f0e7fa03b0f0bdc046ffff00008b
:0420f800b80b000021
:020000040000fa
:1020fc0010b5284b284a1a60284a1a61002242213e
:10210c005a5401315a54423944201954023019544a
:10211c00013019540531053019540130195401306e
:10212c00195401301a540330195401301954013028
:10213c00195423381a54013004241c5401301854f7
:10214c0003301a5401301a5402301a5401301a5404
:10215c004630134c1c501030124c1c5030301a545a
:10216c0001301a5404301a5403301a5401301a54e2
:10217c00063019540130195401301954aa315a54eb
:10218c0002315a5402315a5403315a5401315a54bf
:10219c0010bdc046004400410c8000000c701c00b7
:0821ac00230300000081030081
:020000040000fa
:1021b400f0b5de4657464e464546e0b585b0814605
:1021c4008a46151e0193934640d0002434e06300f0
:1021d40001339b444b461b1bdbb298466700ffb29e
:1021e400de19f6b25346ea18d2b2019b31004046da
:1021f400fff75afb53465a1bd2b2019b31004046ab
:10220400fff752fb4b465b1bd8b24b46ee18f1b2bc
:1022140053461e19f6b2019b320003910290fff758
:1022240043fbf71bfab2019b03990298fff73cfbaf
:102234000134e4b2a54209d95b46002bc7dd013d58
:10224400edb2631b5b00013b9b44c3e705b03cbca0
:0a22540090469946a246ab46f0bd45
:020000040000fa
:02225e00fee799
:020000040000fa
:102260001d4b00229a619a8c80218a439a841a001d
:102270001023d1680b42fcd0184b1b689b0e3f2be0
:1022800027d09b02802292001343134a93621023ab
:10229000d1680b42fcd0104b02229a841a00102302
:1022a000d1680b42fcd00e4b0e4a5a601a0053788c
:1022b0005bb2002bfbdb0a4b0b4a5a800b4a5a805d
:1022c0000b4a5a800b4b0c4a1a62034b00221a62cb
:1022d0007047203bd5e7c0460008004024608000de
:1022e000000c004000070100144000001a400000ec
:0c22f0001b400000000400400409010035
:020000040000fa
:1022fc007c0000201c00000000000000b00000204a
:10230c000100000000000000500000202c00000024
:10231c0000000000980000201000000000000000e9
:10232c00b10000200100000000000000a800002007
:10233c00040000000000000000000020500000001d
:10234c0000000000ac0000200400000000000000b1
:10235c000000000000000000666666666666666641
:020000040000fa
:10236c00bff35f8f62b6124bc22080001a5811491e
:10237c001140c02212020a431a50802292001a60a5
:10238c0004301a581202120ac02109060a431a50c4
:10239c00802212021a6004301a5807491140c022d8
:1023ac0012040a431a508022d2021a607047c046a7
:0c23bc0000e100e0ff00ffffffff00ff5a
:020000040000fa
:1023c80000230e4a10b513600d4a13600d4a1360be
:1023d8000d4a13600d4a13600d4a536213610133ad
:1023e800936000f044fa00f042fa0a4c0a4b9c420f
:1023f80000d310bd08cc9847f8e7c046ac000020d1
:102408000c0000200800002000000020040000202c
:0c24180010000020bc000000c00000000c
:020000040000fa
:10242400124b01221a6019008b681a42fcd10f4b1f
:10243400b82252011a600122da6301325a61693208
:102444001a64363a5a641d3a9a64da641a65084a78
:10245400da62084a00211160802252029a62120252
:102464001a621a009368002bfcd1704700200042c6
:082474000ff80f00a00000208a
:020000040000fa
:10247c00f0b5de4657464e464546e0b583b083463a
:10248c000f00904699460dab1b889a460cab1d78f5
:10249c00002d12dd0024e0b24b461b1adbb2424683
:1024ac008218d2b2391ac9b25844c0b256460096f4
:1024bc0000f076f80134ac42eddb03b03cbc904646
:0824cc009946a246ab46f0bda3
:020000040000fa
:1024d40010b5064c2378002b07d1054b002b02d0f6
:1024e400044800e000bf0123237010bd7c000020dd
:1024f4000000000000000000044b10b5002b03d0c6
:102504000349044800e000bf10bdc04600000000bd
:0825140080000020000000001f
:020000040000fa
:10251c000e4b01221a801a00d37b5bb2002bfbdb23
:10252c000a4bac22d2001a80094a1a833b229a73b6
:10253c00084a0021116001225a7312025a811a00b2
:10254c00d37b5bb2002bfbdb7047c046002c0042f8
:08255c00ed02000098000020d0
:020000040000fa
:1025640010b50a4b98470a4b984700f059f8094ba5
:10257400ff229343084a9360084b9847084b9847b7
:10258400084b984700f068f8fee7c0461b28000097
:102594001b2800000000000000ed00e0c92300003b
:0825a4001b2800001b280000a9
:020000040000fa
:1025ac00f0b583b007000e001d0008ab1c8823009b
:1025bc000192fff775f923002a0031003800fff76c
:1025cc006ff923003a002900019f3800fff734fa15
:1025dc002300320029003800fff72efa03b0f0bdbb
:020000040000fa
:1025ec000a4a0023136213779360d360084a53603e
:1025fc00d369002bfcd1064b01221a73054a1a60d1
:10260c001a00d369002bfcd17047c0465000002043
:08261c00000800420e0001005d
:020000040000fa
:1026240010b50b480168002905d14368002b02d17d
:1026340000f01ef910bd04008368064a9bb20c34f6
:102644009b009b5842682000984780002018e9e7c7
:08265400fc2200001c2800001c
:020000040000fa
:10265c0010b5002000f016f80021084800f0f2f840
:10266c00fff71afc0648fff7b1fafa20800000f0d9
:10267c001ff8fff7b3fc00f059f8fee75d280000e7
:04268c00ffff00004c
:020000040000fa
:1026900010b5094b06225a60fff730fdfff7e0fd49
:1026a00000f0d0f8fff7a2fffff7bcfefff736ff00
:0c26b000fff75cfe10bdc046004000417a
:020000040000fa
:1026bc0010b5040000f088f8002c0ad00648002160
:1026cc00020001701378002bfcd0013ca4b2002c4a
:0c26dc00f7d100f085f810bdb10000201f
:020000040000fa
:1026e80010b5074b987bc0b23b229a73054b1b6809
:1026f800002b03d0034b59681b68984710bdc04690
:08270800002c004298000020a3
:020000040000fa
:1027100010b5064a5168064bd86a064cdc62db6a83
:102720001368002b01d01368984710bda00000204b
:08273000002000420ff80f0029
:020000040000fa
:1027380010b5074c082363619620fff7bbff94236d
:102748000122e2500132e2501202e25010bdc046ae
:0427580000440041f8
:020000040000fa
:10275c0010b5054c054b9c4202d8fdf7abfc10bde7
:10276c00043c23689847f5e7d0000000cc0000003b
:020000040000fa
:10277c00002310b5934206d103201840421e90410d
:0e278c009b08c01810bdc45ccc540133f2e7aa
:020000040000fa
:02279a00fee758
:020000040000fa
:10279c0010b5054a98230121d1500131d150962012
:0c27ac00fff786ff10bdc046004400414e
:020000040000fa
:1027b80070b5054c082565613220fff77bffa561e0
:0c27c8003220fff777ff70bd0044004195
:020000040000fa
:1027d400044a138802210b431380d37b5bb2002b82
:0827e400fbdb7047002c0042f2
:020000040000fa
:1027ec00044a138802218b431380d37b5bb2002bea
:0827fc00fbdb7047002c0042da
:020000040000fa
:1028040010b5040000f036f8fff7a6ff00f032f828
:06281400200000f027f88f
:020000040000fa
:02281a00704705
:020000040000fa
:10281c00312800007d2700006f2800006f28000081
:04282c006f28000011
:020000040000fa
:102830008a18914201d10020704700230b700131aa
:02284000f7e7b8
:020000040000fa
:02284200fee7af
:020000040000fa
:0c284400014b82225a60704700400041a6
:020000040000fa
:0c285000014b1860596070479800002090
:020000040000fa
:0c285c00014b01221a707047b1000020ef
:020000040000fa
:0628680010b500f002f8bb
:020000040000fa
:04286e00002070478f
:020000040000fa
:02287200fee77f
:020000040000fa
:022874007047ab
:020000040000fa
:022876007047a9
:020000040000fa
:022878007047a7
:020000040000fa
:0200000400807a
:0440000077c700d8a6
:020000040000fa
:0200000400807a
:044004005c00ffff5e
:00000001FF
